Archive member included to satisfy reference by file (symbol)

../richtek/lib/libbuild.a(pd_main.c.obj)
                              CMakeFiles/STM32F070x6.elf.dir/richtek/USBPD.cpp.obj (PD_Reset_Init)
../richtek/lib/libbuild.a(pd_sub_func.c.obj)
                              ../richtek/lib/libbuild.a(pd_main.c.obj) (Run_Optional_Control)
../richtek/lib/libbuild.a(pd_timer.c.obj)
                              ../richtek/lib/libbuild.a(pd_sub_func.c.obj) (Tcpm_Timer8_Timeout)
../richtek/lib/libbuild.a(pd_util.c.obj)
                              ../richtek/lib/libbuild.a(pd_main.c.obj) (pd_reset_protocol_layer)
../richtek/lib/libbuild.a(pd_xram.c.obj)
                              ../richtek/lib/libbuild.a(pd_timer.c.obj) (tcpm_timer16)
../richtek/lib/libbuild.a(rt1711_access.c.obj)
                              ../richtek/lib/libbuild.a(pd_sub_func.c.obj) (rt1711_update_fault_mask)
../richtek/lib/libbuild.a(tcpc_alert.c.obj)
                              ../richtek/lib/libbuild.a(pd_main.c.obj) (update_cc_changed)
../richtek/lib/libbuild.a(tcpc_core.c.obj)
                              ../richtek/lib/libbuild.a(pd_sub_func.c.obj) (tcpc_transfer_state)
../richtek/lib/libbuild.a(tcpc_xram.c.obj)
                              ../richtek/lib/libbuild.a(pd_main.c.obj) (tcpc_state_actions)
../richtek/lib/libbuild.a(pd_ams30.c.obj)
                              ../richtek/lib/libbuild.a(pd_util.c.obj) (ams30_state_transfer)
../richtek/lib/libbuild.a(pd_core.c.obj)
                              ../richtek/lib/libbuild.a(pd_main.c.obj) (Policy_Engine)
../richtek/lib/libbuild.a(pd_core_power_control.c.obj)
                              ../richtek/lib/libbuild.a(pd_sub_func.c.obj) (check_vbus_5v)
../richtek/lib/libbuild.a(pd_pe.c.obj)
                              ../richtek/lib/libbuild.a(pd_sub_func.c.obj) (pe_state_transfer)
../richtek/lib/libbuild.a(pd_dpm.c.obj)
                              ../richtek/lib/libbuild.a(pd_pe.c.obj) (pd_dpm_snk_hard_reset)
../richtek/lib/libbuild.a(pd_packet.c.obj)
                              ../richtek/lib/libbuild.a(pd_dpm.c.obj) (pdo_decompose)
c:/progra~2/gnutoo~1/92019-~1/bin/../lib/gcc/arm-none-eabi/9.2.1/thumb/v6-m/nofp\libgcc.a(_thumb1_case_uqi.o)
                              CMakeFiles/STM32F070x6.elf.dir/src/main.cpp.obj (__gnu_thumb1_case_uqi)
c:/progra~2/gnutoo~1/92019-~1/bin/../lib/gcc/arm-none-eabi/9.2.1/thumb/v6-m/nofp\libgcc.a(_udivsi3.o)
                              CMakeFiles/STM32F070x6.elf.dir/st-library/src/cmsis/system_stm32f0xx.c.obj (__aeabi_uidiv)
c:/progra~2/gnutoo~1/92019-~1/bin/../lib/gcc/arm-none-eabi/9.2.1/thumb/v6-m/nofp\libgcc.a(_divsi3.o)
                              CMakeFiles/STM32F070x6.elf.dir/st-library/src/cmsis/system_stm32f0xx.c.obj (__aeabi_idiv)
c:/progra~2/gnutoo~1/92019-~1/bin/../lib/gcc/arm-none-eabi/9.2.1/thumb/v6-m/nofp\libgcc.a(_dvmd_tls.o)
                              c:/progra~2/gnutoo~1/92019-~1/bin/../lib/gcc/arm-none-eabi/9.2.1/thumb/v6-m/nofp\libgcc.a(_udivsi3.o) (__aeabi_idiv0)
c:/progra~2/gnutoo~1/92019-~1/bin/../lib/gcc/arm-none-eabi/9.2.1/thumb/v6-m/nofp\libgcc.a(_arm_cmpsf2.o)
                              CMakeFiles/STM32F070x6.elf.dir/src/main.cpp.obj (__aeabi_fcmple)
c:/progra~2/gnutoo~1/92019-~1/bin/../lib/gcc/arm-none-eabi/9.2.1/thumb/v6-m/nofp\libgcc.a(divsf3.o)
                              CMakeFiles/STM32F070x6.elf.dir/src/main.cpp.obj (__aeabi_fdiv)
c:/progra~2/gnutoo~1/92019-~1/bin/../lib/gcc/arm-none-eabi/9.2.1/thumb/v6-m/nofp\libgcc.a(eqsf2.o)
                              c:/progra~2/gnutoo~1/92019-~1/bin/../lib/gcc/arm-none-eabi/9.2.1/thumb/v6-m/nofp\libgcc.a(_arm_cmpsf2.o) (__eqsf2)
c:/progra~2/gnutoo~1/92019-~1/bin/../lib/gcc/arm-none-eabi/9.2.1/thumb/v6-m/nofp\libgcc.a(gesf2.o)
                              c:/progra~2/gnutoo~1/92019-~1/bin/../lib/gcc/arm-none-eabi/9.2.1/thumb/v6-m/nofp\libgcc.a(_arm_cmpsf2.o) (__gesf2)
c:/progra~2/gnutoo~1/92019-~1/bin/../lib/gcc/arm-none-eabi/9.2.1/thumb/v6-m/nofp\libgcc.a(lesf2.o)
                              c:/progra~2/gnutoo~1/92019-~1/bin/../lib/gcc/arm-none-eabi/9.2.1/thumb/v6-m/nofp\libgcc.a(_arm_cmpsf2.o) (__lesf2)
c:/progra~2/gnutoo~1/92019-~1/bin/../lib/gcc/arm-none-eabi/9.2.1/thumb/v6-m/nofp\libgcc.a(mulsf3.o)
                              CMakeFiles/STM32F070x6.elf.dir/src/main.cpp.obj (__aeabi_fmul)
c:/progra~2/gnutoo~1/92019-~1/bin/../lib/gcc/arm-none-eabi/9.2.1/thumb/v6-m/nofp\libgcc.a(floatunsisf.o)
                              CMakeFiles/STM32F070x6.elf.dir/src/main.cpp.obj (__aeabi_ui2f)
c:/progra~2/gnutoo~1/92019-~1/bin/../lib/gcc/arm-none-eabi/9.2.1/thumb/v6-m/nofp\libgcc.a(_clzsi2.o)
                              c:/progra~2/gnutoo~1/92019-~1/bin/../lib/gcc/arm-none-eabi/9.2.1/thumb/v6-m/nofp\libgcc.a(divsf3.o) (__clzsi2)
c:/progra~2/gnutoo~1/92019-~1/bin/../lib/gcc/arm-none-eabi/9.2.1/../../../../arm-none-eabi/lib/thumb/v6-m/nofp\libc_nano.a(lib_a-atexit.o)
                              CMakeFiles/STM32F070x6.elf.dir/src/main.cpp.obj (atexit)
c:/progra~2/gnutoo~1/92019-~1/bin/../lib/gcc/arm-none-eabi/9.2.1/../../../../arm-none-eabi/lib/thumb/v6-m/nofp\libc_nano.a(lib_a-errno.o)
                              CMakeFiles/STM32F070x6.elf.dir/st-library/src/newlib/_sbrk.c.obj (__errno)
c:/progra~2/gnutoo~1/92019-~1/bin/../lib/gcc/arm-none-eabi/9.2.1/../../../../arm-none-eabi/lib/thumb/v6-m/nofp\libc_nano.a(lib_a-impure.o)
                              c:/progra~2/gnutoo~1/92019-~1/bin/../lib/gcc/arm-none-eabi/9.2.1/../../../../arm-none-eabi/lib/thumb/v6-m/nofp\libc_nano.a(lib_a-errno.o) (_impure_ptr)
c:/progra~2/gnutoo~1/92019-~1/bin/../lib/gcc/arm-none-eabi/9.2.1/../../../../arm-none-eabi/lib/thumb/v6-m/nofp\libc_nano.a(lib_a-memcpy-stub.o)
                              CMakeFiles/STM32F070x6.elf.dir/richtek/USBPD.cpp.obj (memcpy)
c:/progra~2/gnutoo~1/92019-~1/bin/../lib/gcc/arm-none-eabi/9.2.1/../../../../arm-none-eabi/lib/thumb/v6-m/nofp\libc_nano.a(lib_a-memset.o)
                              ../richtek/lib/libbuild.a(pd_util.c.obj) (memset)
c:/progra~2/gnutoo~1/92019-~1/bin/../lib/gcc/arm-none-eabi/9.2.1/../../../../arm-none-eabi/lib/thumb/v6-m/nofp\libc_nano.a(lib_a-strlen.o)
                              CMakeFiles/STM32F070x6.elf.dir/src/main.cpp.obj (strlen)
c:/progra~2/gnutoo~1/92019-~1/bin/../lib/gcc/arm-none-eabi/9.2.1/../../../../arm-none-eabi/lib/thumb/v6-m/nofp\libc_nano.a(lib_a-vsnprintf.o)
                              CMakeFiles/STM32F070x6.elf.dir/st-library/src/diag/Trace.c.obj (vsnprintf)
c:/progra~2/gnutoo~1/92019-~1/bin/../lib/gcc/arm-none-eabi/9.2.1/../../../../arm-none-eabi/lib/thumb/v6-m/nofp\libc_nano.a(lib_a-__atexit.o)
                              c:/progra~2/gnutoo~1/92019-~1/bin/../lib/gcc/arm-none-eabi/9.2.1/../../../../arm-none-eabi/lib/thumb/v6-m/nofp\libc_nano.a(lib_a-atexit.o) (__register_exitproc)
c:/progra~2/gnutoo~1/92019-~1/bin/../lib/gcc/arm-none-eabi/9.2.1/../../../../arm-none-eabi/lib/thumb/v6-m/nofp\libc_nano.a(lib_a-__call_atexit.o)
                              c:/progra~2/gnutoo~1/92019-~1/bin/../lib/gcc/arm-none-eabi/9.2.1/../../../../arm-none-eabi/lib/thumb/v6-m/nofp\libc_nano.a(lib_a-__atexit.o) (__call_exitprocs)
c:/progra~2/gnutoo~1/92019-~1/bin/../lib/gcc/arm-none-eabi/9.2.1/../../../../arm-none-eabi/lib/thumb/v6-m/nofp\libc_nano.a(lib_a-lock.o)
                              c:/progra~2/gnutoo~1/92019-~1/bin/../lib/gcc/arm-none-eabi/9.2.1/../../../../arm-none-eabi/lib/thumb/v6-m/nofp\libc_nano.a(lib_a-__atexit.o) (__retarget_lock_acquire_recursive)
c:/progra~2/gnutoo~1/92019-~1/bin/../lib/gcc/arm-none-eabi/9.2.1/../../../../arm-none-eabi/lib/thumb/v6-m/nofp\libc_nano.a(lib_a-nano-svfprintf.o)
                              c:/progra~2/gnutoo~1/92019-~1/bin/../lib/gcc/arm-none-eabi/9.2.1/../../../../arm-none-eabi/lib/thumb/v6-m/nofp\libc_nano.a(lib_a-vsnprintf.o) (_svfprintf_r)
c:/progra~2/gnutoo~1/92019-~1/bin/../lib/gcc/arm-none-eabi/9.2.1/../../../../arm-none-eabi/lib/thumb/v6-m/nofp\libc_nano.a(lib_a-nano-vfprintf_i.o)
                              c:/progra~2/gnutoo~1/92019-~1/bin/../lib/gcc/arm-none-eabi/9.2.1/../../../../arm-none-eabi/lib/thumb/v6-m/nofp\libc_nano.a(lib_a-nano-svfprintf.o) (_printf_i)
c:/progra~2/gnutoo~1/92019-~1/bin/../lib/gcc/arm-none-eabi/9.2.1/../../../../arm-none-eabi/lib/thumb/v6-m/nofp\libc_nano.a(lib_a-memchr-stub.o)
                              c:/progra~2/gnutoo~1/92019-~1/bin/../lib/gcc/arm-none-eabi/9.2.1/../../../../arm-none-eabi/lib/thumb/v6-m/nofp\libc_nano.a(lib_a-nano-svfprintf.o) (memchr)
c:/progra~2/gnutoo~1/92019-~1/bin/../lib/gcc/arm-none-eabi/9.2.1/../../../../arm-none-eabi/lib/thumb/v6-m/nofp\libc_nano.a(lib_a-memmove.o)
                              c:/progra~2/gnutoo~1/92019-~1/bin/../lib/gcc/arm-none-eabi/9.2.1/../../../../arm-none-eabi/lib/thumb/v6-m/nofp\libc_nano.a(lib_a-nano-svfprintf.o) (memmove)
c:/progra~2/gnutoo~1/92019-~1/bin/../lib/gcc/arm-none-eabi/9.2.1/../../../../arm-none-eabi/lib/thumb/v6-m/nofp\libc_nano.a(lib_a-nano-freer.o)
                              c:/progra~2/gnutoo~1/92019-~1/bin/../lib/gcc/arm-none-eabi/9.2.1/../../../../arm-none-eabi/lib/thumb/v6-m/nofp\libc_nano.a(lib_a-nano-svfprintf.o) (_free_r)
c:/progra~2/gnutoo~1/92019-~1/bin/../lib/gcc/arm-none-eabi/9.2.1/../../../../arm-none-eabi/lib/thumb/v6-m/nofp\libc_nano.a(lib_a-nano-mallocr.o)
                              c:/progra~2/gnutoo~1/92019-~1/bin/../lib/gcc/arm-none-eabi/9.2.1/../../../../arm-none-eabi/lib/thumb/v6-m/nofp\libc_nano.a(lib_a-nano-svfprintf.o) (_malloc_r)
c:/progra~2/gnutoo~1/92019-~1/bin/../lib/gcc/arm-none-eabi/9.2.1/../../../../arm-none-eabi/lib/thumb/v6-m/nofp\libc_nano.a(lib_a-nano-reallocr.o)
                              c:/progra~2/gnutoo~1/92019-~1/bin/../lib/gcc/arm-none-eabi/9.2.1/../../../../arm-none-eabi/lib/thumb/v6-m/nofp\libc_nano.a(lib_a-nano-svfprintf.o) (_realloc_r)
c:/progra~2/gnutoo~1/92019-~1/bin/../lib/gcc/arm-none-eabi/9.2.1/../../../../arm-none-eabi/lib/thumb/v6-m/nofp\libc_nano.a(lib_a-sbrkr.o)
                              c:/progra~2/gnutoo~1/92019-~1/bin/../lib/gcc/arm-none-eabi/9.2.1/../../../../arm-none-eabi/lib/thumb/v6-m/nofp\libc_nano.a(lib_a-nano-mallocr.o) (_sbrk_r)
c:/progra~2/gnutoo~1/92019-~1/bin/../lib/gcc/arm-none-eabi/9.2.1/../../../../arm-none-eabi/lib/thumb/v6-m/nofp\libc_nano.a(lib_a-mlock.o)
                              c:/progra~2/gnutoo~1/92019-~1/bin/../lib/gcc/arm-none-eabi/9.2.1/../../../../arm-none-eabi/lib/thumb/v6-m/nofp\libc_nano.a(lib_a-nano-freer.o) (__malloc_lock)
c:/progra~2/gnutoo~1/92019-~1/bin/../lib/gcc/arm-none-eabi/9.2.1/../../../../arm-none-eabi/lib/thumb/v6-m/nofp\libc_nano.a(lib_a-nano-msizer.o)
                              c:/progra~2/gnutoo~1/92019-~1/bin/../lib/gcc/arm-none-eabi/9.2.1/../../../../arm-none-eabi/lib/thumb/v6-m/nofp\libc_nano.a(lib_a-nano-reallocr.o) (_malloc_usable_size_r)
c:/progra~2/gnutoo~1/92019-~1/bin/../lib/gcc/arm-none-eabi/9.2.1/thumb/v6-m/nofp\libgcc.a(_thumb1_case_shi.o)
                              c:/progra~2/gnutoo~1/92019-~1/bin/../lib/gcc/arm-none-eabi/9.2.1/../../../../arm-none-eabi/lib/thumb/v6-m/nofp\libc_nano.a(lib_a-nano-vfprintf_i.o) (__gnu_thumb1_case_shi)

Allocating common symbols
Common symbol       size              file

__lock___atexit_recursive_mutex
                    0x1               c:/progra~2/gnutoo~1/92019-~1/bin/../lib/gcc/arm-none-eabi/9.2.1/../../../../arm-none-eabi/lib/thumb/v6-m/nofp\libc_nano.a(lib_a-lock.o)
dpm_config_flags    0x1               CMakeFiles/STM32F070x6.elf.dir/richtek/src/pd_user_xram.c.obj
__lock___arc4random_mutex
                    0x1               c:/progra~2/gnutoo~1/92019-~1/bin/../lib/gcc/arm-none-eabi/9.2.1/../../../../arm-none-eabi/lib/thumb/v6-m/nofp\libc_nano.a(lib_a-lock.o)
tcpm_timer16        0x12              ../richtek/lib/libbuild.a(pd_xram.c.obj)
errno               0x4               CMakeFiles/STM32F070x6.elf.dir/st-library/src/newlib/_syscalls.c.obj
TcpcLock            0x1               ../richtek/lib/libbuild.a(tcpc_xram.c.obj)
__lock___env_recursive_mutex
                    0x1               c:/progra~2/gnutoo~1/92019-~1/bin/../lib/gcc/arm-none-eabi/9.2.1/../../../../arm-none-eabi/lib/thumb/v6-m/nofp\libc_nano.a(lib_a-lock.o)
__lock___sinit_recursive_mutex
                    0x1               c:/progra~2/gnutoo~1/92019-~1/bin/../lib/gcc/arm-none-eabi/9.2.1/../../../../arm-none-eabi/lib/thumb/v6-m/nofp\libc_nano.a(lib_a-lock.o)
__lock___malloc_recursive_mutex
                    0x1               c:/progra~2/gnutoo~1/92019-~1/bin/../lib/gcc/arm-none-eabi/9.2.1/../../../../arm-none-eabi/lib/thumb/v6-m/nofp\libc_nano.a(lib_a-lock.o)
pd_allow_time_consuming_task
                    0x1               ../richtek/lib/libbuild.a(tcpc_xram.c.obj)
tcpm_timer8         0x19              ../richtek/lib/libbuild.a(pd_xram.c.obj)
__lock___at_quick_exit_mutex
                    0x1               c:/progra~2/gnutoo~1/92019-~1/bin/../lib/gcc/arm-none-eabi/9.2.1/../../../../arm-none-eabi/lib/thumb/v6-m/nofp\libc_nano.a(lib_a-lock.o)
typec_state         0x1               ../richtek/lib/libbuild.a(tcpc_xram.c.obj)
__lock___dd_hash_mutex
                    0x1               c:/progra~2/gnutoo~1/92019-~1/bin/../lib/gcc/arm-none-eabi/9.2.1/../../../../arm-none-eabi/lib/thumb/v6-m/nofp\libc_nano.a(lib_a-lock.o)
__lock___tz_mutex   0x1               c:/progra~2/gnutoo~1/92019-~1/bin/../lib/gcc/arm-none-eabi/9.2.1/../../../../arm-none-eabi/lib/thumb/v6-m/nofp\libc_nano.a(lib_a-lock.o)
__lock___sfp_recursive_mutex
                    0x1               c:/progra~2/gnutoo~1/92019-~1/bin/../lib/gcc/arm-none-eabi/9.2.1/../../../../arm-none-eabi/lib/thumb/v6-m/nofp\libc_nano.a(lib_a-lock.o)

Discarded input sections

 .group         0x00000000        0x8 CMakeFiles/STM32F070x6.elf.dir/richtek/USBPD.cpp.obj
 .group         0x00000000        0xc CMakeFiles/STM32F070x6.elf.dir/richtek/USBPD.cpp.obj
 .group         0x00000000        0xc CMakeFiles/STM32F070x6.elf.dir/richtek/USBPD.cpp.obj
 .group         0x00000000        0xc CMakeFiles/STM32F070x6.elf.dir/richtek/USBPD.cpp.obj
 .group         0x00000000        0xc CMakeFiles/STM32F070x6.elf.dir/richtek/USBPD.cpp.obj
 .group         0x00000000        0xc CMakeFiles/STM32F070x6.elf.dir/richtek/USBPD.cpp.obj
 .group         0x00000000        0xc CMakeFiles/STM32F070x6.elf.dir/richtek/USBPD.cpp.obj
 .group         0x00000000        0xc CMakeFiles/STM32F070x6.elf.dir/richtek/USBPD.cpp.obj
 .group         0x00000000        0x8 CMakeFiles/STM32F070x6.elf.dir/richtek/USBPD.cpp.obj
 .group         0x00000000        0x8 CMakeFiles/STM32F070x6.elf.dir/richtek/USBPD.cpp.obj
 .text          0x00000000        0x0 CMakeFiles/STM32F070x6.elf.dir/richtek/USBPD.cpp.obj
 .data          0x00000000        0x0 CMakeFiles/STM32F070x6.elf.dir/richtek/USBPD.cpp.obj
 .bss           0x00000000        0x0 CMakeFiles/STM32F070x6.elf.dir/richtek/USBPD.cpp.obj
 .text.uart_prints
                0x00000000        0x2 CMakeFiles/STM32F070x6.elf.dir/richtek/USBPD.cpp.obj
 .text.plat_check_vdc_in
                0x00000000        0x4 CMakeFiles/STM32F070x6.elf.dir/richtek/USBPD.cpp.obj
 .text.plat_notify_power_change
Memory Configuration

Name             Origin             Length             Attributes
RAM              0x20000000         0x00001800         xrw
CCMRAM           0x00000000         0x00000000         xrw
FLASH            0x08000000         0x00007800         xr
CONFIG           0x0801f800         0x00000800         xr
FLASHB1          0x00000000         0x00000000         xr
EXTMEMB0         0x00000000         0x00000000         xr
EXTMEMB1         0x00000000         0x00000000         xr
EXTMEMB2         0x00000000         0x00000000         xr
EXTMEMB3         0x00000000         0x00000000         xr
MEMORY_ARRAY     0x00000000         0x00000000         xrw
*default*        0x00000000         0xffffffff

Linker script and memory map

LOAD CMakeFiles/STM32F070x6.elf.dir/richtek/USBPD.cpp.obj
LOAD CMakeFiles/STM32F070x6.elf.dir/richtek/src/pd_user_dpm.c.obj
LOAD CMakeFiles/STM32F070x6.elf.dir/richtek/src/pd_user_xram.c.obj
LOAD CMakeFiles/STM32F070x6.elf.dir/src/Interrupt.cpp.obj
LOAD CMakeFiles/STM32F070x6.elf.dir/src/main.cpp.obj
LOAD CMakeFiles/STM32F070x6.elf.dir/st-library/src/cmsis/system_stm32f0xx.c.obj
LOAD CMakeFiles/STM32F070x6.elf.dir/st-library/src/cmsis/vectors_stm32f0xx.c.obj
LOAD CMakeFiles/STM32F070x6.elf.dir/st-library/src/cortexm/_initialize_hardware.c.obj
LOAD CMakeFiles/STM32F070x6.elf.dir/st-library/src/cortexm/_reset_hardware.c.obj
LOAD CMakeFiles/STM32F070x6.elf.dir/st-library/src/cortexm/exception_handlers.c.obj
LOAD CMakeFiles/STM32F070x6.elf.dir/st-library/src/diag/Trace.c.obj
LOAD CMakeFiles/STM32F070x6.elf.dir/st-library/src/diag/trace_impl.c.obj
LOAD CMakeFiles/STM32F070x6.elf.dir/st-library/src/newlib/_cxx.cpp.obj
LOAD CMakeFiles/STM32F070x6.elf.dir/st-library/src/newlib/_exit.c.obj
LOAD CMakeFiles/STM32F070x6.elf.dir/st-library/src/newlib/_sbrk.c.obj
LOAD CMakeFiles/STM32F070x6.elf.dir/st-library/src/newlib/_startup.c.obj
LOAD CMakeFiles/STM32F070x6.elf.dir/st-library/src/newlib/_syscalls.c.obj
LOAD CMakeFiles/STM32F070x6.elf.dir/st-library/src/newlib/assert.c.obj
LOAD CMakeFiles/STM32F070x6.elf.dir/st-library/src/stm32f0-stdperiph/stm32f0xx_adc.c.obj
LOAD CMakeFiles/STM32F070x6.elf.dir/st-library/src/stm32f0-stdperiph/stm32f0xx_can.c.obj
LOAD CMakeFiles/STM32F070x6.elf.dir/st-library/src/stm32f0-stdperiph/stm32f0xx_cec.c.obj
LOAD CMakeFiles/STM32F070x6.elf.dir/st-library/src/stm32f0-stdperiph/stm32f0xx_comp.c.obj
LOAD CMakeFiles/STM32F070x6.elf.dir/st-library/src/stm32f0-stdperiph/stm32f0xx_crc.c.obj
LOAD CMakeFiles/STM32F070x6.elf.dir/st-library/src/stm32f0-stdperiph/stm32f0xx_crs.c.obj
LOAD CMakeFiles/STM32F070x6.elf.dir/st-library/src/stm32f0-stdperiph/stm32f0xx_dac.c.obj
LOAD CMakeFiles/STM32F070x6.elf.dir/st-library/src/stm32f0-stdperiph/stm32f0xx_dbgmcu.c.obj
LOAD CMakeFiles/STM32F070x6.elf.dir/st-library/src/stm32f0-stdperiph/stm32f0xx_dma.c.obj
LOAD CMakeFiles/STM32F070x6.elf.dir/st-library/src/stm32f0-stdperiph/stm32f0xx_exti.c.obj
LOAD CMakeFiles/STM32F070x6.elf.dir/st-library/src/stm32f0-stdperiph/stm32f0xx_flash.c.obj
LOAD CMakeFiles/STM32F070x6.elf.dir/st-library/src/stm32f0-stdperiph/stm32f0xx_gpio.c.obj
LOAD CMakeFiles/STM32F070x6.elf.dir/st-library/src/stm32f0-stdperiph/stm32f0xx_i2c.c.obj
LOAD CMakeFiles/STM32F070x6.elf.dir/st-library/src/stm32f0-stdperiph/stm32f0xx_iwdg.c.obj
LOAD CMakeFiles/STM32F070x6.elf.dir/st-library/src/stm32f0-stdperiph/stm32f0xx_misc.c.obj
LOAD CMakeFiles/STM32F070x6.elf.dir/st-library/src/stm32f0-stdperiph/stm32f0xx_pwr.c.obj
LOAD CMakeFiles/STM32F070x6.elf.dir/st-library/src/stm32f0-stdperiph/stm32f0xx_rcc.c.obj
LOAD CMakeFiles/STM32F070x6.elf.dir/st-library/src/stm32f0-stdperiph/stm32f0xx_rtc.c.obj
LOAD CMakeFiles/STM32F070x6.elf.dir/st-library/src/stm32f0-stdperiph/stm32f0xx_spi.c.obj
LOAD CMakeFiles/STM32F070x6.elf.dir/st-library/src/stm32f0-stdperiph/stm32f0xx_syscfg.c.obj
LOAD CMakeFiles/STM32F070x6.elf.dir/st-library/src/stm32f0-stdperiph/stm32f0xx_tim.c.obj
LOAD CMakeFiles/STM32F070x6.elf.dir/st-library/src/stm32f0-stdperiph/stm32f0xx_usart.c.obj
LOAD CMakeFiles/STM32F070x6.elf.dir/st-library/src/stm32f0-stdperiph/stm32f0xx_wwdg.c.obj
LOAD ../richtek/lib/libbuild.a
LOAD c:/progra~2/gnutoo~1/92019-~1/bin/../lib/gcc/arm-none-eabi/9.2.1/../../../../arm-none-eabi/lib/thumb/v6-m/nofp\libstdc++_nano.a
LOAD c:/progra~2/gnutoo~1/92019-~1/bin/../lib/gcc/arm-none-eabi/9.2.1/../../../../arm-none-eabi/lib/thumb/v6-m/nofp\libm.a
START GROUP
LOAD c:/progra~2/gnutoo~1/92019-~1/bin/../lib/gcc/arm-none-eabi/9.2.1/thumb/v6-m/nofp\libgcc.a
LOAD c:/progra~2/gnutoo~1/92019-~1/bin/../lib/gcc/arm-none-eabi/9.2.1/../../../../arm-none-eabi/lib/thumb/v6-m/nofp\libc_nano.a
END GROUP
START GROUP
LOAD c:/progra~2/gnutoo~1/92019-~1/bin/../lib/gcc/arm-none-eabi/9.2.1/thumb/v6-m/nofp\libgcc.a
LOAD c:/progra~2/gnutoo~1/92019-~1/bin/../lib/gcc/arm-none-eabi/9.2.1/../../../../arm-none-eabi/lib/thumb/v6-m/nofp\libc_nano.a
END GROUP
                0x20001800                __stack = (ORIGIN (RAM) + LENGTH (RAM))
                0x20001800                _estack = __stack
                0x00000400                __Main_Stack_Size = 0x400
                [!provide]                PROVIDE (_Main_Stack_Size = __Main_Stack_Size)
                0x20001400                __Main_Stack_Limit = (__stack - __Main_Stack_Size)
                [!provide]                PROVIDE (_Main_Stack_Limit = __Main_Stack_Limit)
                0x00000100                _Minimum_Stack_Size = 0x100
                0x20000d3c                PROVIDE (_Heap_Begin = _end_noinit)
                0x20001400                PROVIDE (_Heap_Limit = (__stack - __Main_Stack_Size))

.isr_vector     0x08000000      0x1c0
 FILL mask 0xff
                0x08000000                __vectors_start = ABSOLUTE (.)
                0x08000000                __vectors_start__ = ABSOLUTE (.)
 *(.isr_vector)
 .isr_vector    0x08000000       0xc4 CMakeFiles/STM32F070x6.elf.dir/st-library/src/cmsis/vectors_stm32f0xx.c.obj
                0x08000000                g_pfnVectors
 *(.cfmconfig)
 *(.after_vectors .after_vectors.*)
 .after_vectors
                0x080000c4       0x48 CMakeFiles/STM32F070x6.elf.dir/st-library/src/cortexm/exception_handlers.c.obj
                0x080000c4                Reset_Handler
                0x080000c8                NMI_Handler
                0x080000ca                HardFault_Handler
                0x080000e2                HardFault_Handler_C
                0x080000fc                SVC_Handler
 .after_vectors
                0x0800010c       0xb4 CMakeFiles/STM32F070x6.elf.dir/st-library/src/newlib/_startup.c.obj
                0x0800010c                _start

.inits          0x080001c0       0x38
                0x080001c0                __data_regions_array_start = .
                0x080001c0        0x4 LONG 0x8006c9c LOADADDR (.data)
                0x080001c4        0x4 LONG 0x20000000 ADDR (.data)
                0x080001c8        0x4 LONG 0x20000148 (ADDR (.data) + SIZEOF (.data))
                0x080001cc        0x4 LONG 0x8006c9c LOADADDR (.data_CCMRAM)
                0x080001d0        0x4 LONG 0x0 ADDR (.data_CCMRAM)
                0x080001d4        0x4 LONG 0x0 (ADDR (.data_CCMRAM) + SIZEOF (.data_CCMRAM))
                0x080001d8                __data_regions_array_end = .
                0x080001d8                __bss_regions_array_start = .
                0x080001d8        0x4 LONG 0x20000148 ADDR (.bss)
                0x080001dc        0x4 LONG 0x20000d3c (ADDR (.bss) + SIZEOF (.bss))
                0x080001e0        0x4 LONG 0x0 ADDR (.bss_CCMRAM)
                0x080001e4        0x4 LONG 0x0 (ADDR (.bss_CCMRAM) + SIZEOF (.bss_CCMRAM))
                0x080001e8                __bss_regions_array_end = .
 *(.init)
 *(.fini)
                0x080001e8                . = ALIGN (0x4)
                0x080001e8                PROVIDE (__preinit_array_start = .)
 *(.preinit_array_sysinit .preinit_array_sysinit.*)
 *(.preinit_array_platform .preinit_array_platform.*)
 *(.preinit_array .preinit_array.*)
                0x080001e8                PROVIDE (__preinit_array_end = .)
                0x080001e8                . = ALIGN (0x4)
                0x080001e8                PROVIDE (__init_array_start = .)
 *(SORT_BY_NAME(.init_array.*))
 *(.init_array)
 .init_array    0x080001e8        0x4 CMakeFiles/STM32F070x6.elf.dir/richtek/USBPD.cpp.obj
 .init_array    0x080001ec        0x4 CMakeFiles/STM32F070x6.elf.dir/src/Interrupt.cpp.obj
 .init_array    0x080001f0        0x4 CMakeFiles/STM32F070x6.elf.dir/src/main.cpp.obj
                0x080001f4                PROVIDE (__init_array_end = .)
                0x080001f4                . = ALIGN (0x4)
                0x080001f4                PROVIDE (__fini_array_start = .)
 *(SORT_BY_NAME(.fini_array.*))
 *(.fini_array)
 .fini_array    0x080001f4        0x4 CMakeFiles/STM32F070x6.elf.dir/src/main.cpp.obj
                0x080001f8                PROVIDE (__fini_array_end = .)

.flashtext
 *(.flashtext .flashtext.*)

.text           0x080001f8     0x6aa3
 *(.text .text.*)
 .text.irq_lock
                0x080001f8        0x2 CMakeFiles/STM32F070x6.elf.dir/richtek/USBPD.cpp.obj
                0x080001f8                irq_lock
 .text.irq_unlock
                0x080001fa        0x2 CMakeFiles/STM32F070x6.elf.dir/richtek/USBPD.cpp.obj
                0x080001fa                irq_unlock
 .text.plat_check_alert
                0x080001fc        0x4 CMakeFiles/STM32F070x6.elf.dir/richtek/USBPD.cpp.obj
                0x080001fc                plat_check_alert
 .text.plat_check_self_power
                0x08000200        0x4 CMakeFiles/STM32F070x6.elf.dir/richtek/USBPD.cpp.obj
                0x08000200                plat_check_self_power
 .text.plat_notify_tcpm_status
                0x08000204       0x10 CMakeFiles/STM32F070x6.elf.dir/richtek/USBPD.cpp.obj
                0x08000204                plat_notify_tcpm_status
 .text.plat_power_source_enable
                0x08000214        0x2 CMakeFiles/STM32F070x6.elf.dir/richtek/USBPD.cpp.obj
                0x08000214                plat_power_source_enable
 .text.plat_power_sink_enable
                0x08000216       0x12 CMakeFiles/STM32F070x6.elf.dir/richtek/USBPD.cpp.obj
                0x08000216                plat_power_sink_enable
 .text.plat_power_bulk_enable
                0x08000228        0x2 CMakeFiles/STM32F070x6.elf.dir/richtek/USBPD.cpp.obj
                0x08000228                plat_power_bulk_enable
 .text.plat_power_discharge_enable
                0x0800022a        0x2 CMakeFiles/STM32F070x6.elf.dir/richtek/USBPD.cpp.obj
                0x0800022a                plat_power_discharge_enable
 .text._ZN3USB2PD4TickEv
                0x0800022c        0x8 CMakeFiles/STM32F070x6.elf.dir/richtek/USBPD.cpp.obj
                0x0800022c                USB::PD::Tick()
 .text._ZN3USB2PD5StartEv
                0x08000234       0x58 CMakeFiles/STM32F070x6.elf.dir/richtek/USBPD.cpp.obj
                0x08000234                USB::PD::Start()
 .text._ZN3USB2PD3RunEv
                0x0800028c        0x8 CMakeFiles/STM32F070x6.elf.dir/richtek/USBPD.cpp.obj
                0x0800028c                USB::PD::Run()
 .text._ZN2IO3I2CINS_3PinILNS_4PortE0ELm7EEENS1_ILS2_0ELm6EEEE5DelayEi
                0x08000294       0x12 CMakeFiles/STM32F070x6.elf.dir/richtek/USBPD.cpp.obj
                0x08000294                IO::I2C<IO::Pin<(IO::Port)0, 7ul>, IO::Pin<(IO::Port)0, 6ul> >::Delay(int)
 .text._ZN2IO3I2CINS_3PinILNS_4PortE0ELm7EEENS1_ILS2_0ELm6EEEE8WriteSDAENS_5StateE
                0x080002a6       0x1a CMakeFiles/STM32F070x6.elf.dir/richtek/USBPD.cpp.obj
                0x080002a6                IO::I2C<IO::Pin<(IO::Port)0, 7ul>, IO::Pin<(IO::Port)0, 6ul> >::WriteSDA(IO::State)
 .text._ZN2IO3I2CINS_3PinILNS_4PortE0ELm7EEENS1_ILS2_0ELm6EEEE8WriteSCLENS_5StateE
                0x080002c0       0x1a CMakeFiles/STM32F070x6.elf.dir/richtek/USBPD.cpp.obj
                0x080002c0                IO::I2C<IO::Pin<(IO::Port)0, 7ul>, IO::Pin<(IO::Port)0, 6ul> >::WriteSCL(IO::State)
 .text._ZN2IO3I2CINS_3PinILNS_4PortE0ELm7EEENS1_ILS2_0ELm6EEEE5ClockIZNS5_16RestartConditionEvEUlvE_ZNS5_16RestartConditionEvEUlvE0_ZNS5_16RestartConditionEvEUlvE1_EEvOT_OT0_OT1_.isra.0
                0x080002da       0x24 CMakeFiles/STM32F070x6.elf.dir/richtek/USBPD.cpp.obj
 .text._ZN2IO3I2CINS_3PinILNS_4PortE0ELm7EEENS1_ILS2_0ELm6EEEE5ClockIZNS5_9ReadClockEvEUlvE_ZNS5_9ReadClockEvEUlvE0_ZNS5_9ReadClockEvEUlvE1_EEvOT_OT0_OT1_.isra.0
                0x080002fe       0x2a CMakeFiles/STM32F070x6.elf.dir/richtek/USBPD.cpp.obj
 .text._ZN2IO3I2CINS_3PinILNS_4PortE0ELm7EEENS1_ILS2_0ELm6EEEE5ClockIZNS5_10WriteClockEvEUlvE_ZNS5_10WriteClockEvEUlvE0_ZNS5_10WriteClockEvEUlvE1_EEvOT_OT0_OT1_.isra.0
                0x08000328       0x1e CMakeFiles/STM32F070x6.elf.dir/richtek/USBPD.cpp.obj
 .text._ZN2IO3I2CINS_3PinILNS_4PortE0ELm7EEENS1_ILS2_0ELm6EEEE6HandleEN10Containers8DataViewIhLb1EEE
                0x08000346       0x52 CMakeFiles/STM32F070x6.elf.dir/richtek/USBPD.cpp.obj
                0x08000346                IO::I2C<IO::Pin<(IO::Port)0, 7ul>, IO::Pin<(IO::Port)0, 6ul> >::Handle(Containers::DataView<unsigned char, true>)
 .text._ZZN2IO3I2CINS_3PinILNS_4PortE0ELm7EEENS1_ILS2_0ELm6EEEE11SendAddressILj7EEEbNS_12I2CDirectionENS_7AddressIXT_EEEENKUlhE_clEh.isra.0
                0x08000398       0x38 CMakeFiles/STM32F070x6.elf.dir/richtek/USBPD.cpp.obj
 .text._ZZZN2IO3I2CINS_3PinILNS_4PortE0ELm7EEENS1_ILS2_0ELm6EEEE5MixedILj7EN10Containers8DataViewIhLb1EEEJS9_EEEjNS_7AddressIXT_EEET0_DpT1_ENKUlvE_clEvENKUlNSA_ILj7EEET_E0_clIS9_EEDaSG_SH_
                0x080003d0       0x68 CMakeFiles/STM32F070x6.elf.dir/richtek/USBPD.cpp.obj
                0x080003d0                auto IO::I2C<IO::Pin<(IO::Port)0, 7ul>, IO::Pin<(IO::Port)0, 6ul> >::Mixed<7u, Containers::DataView<unsigned char, true>, Containers::DataView<unsigned char, true> >(IO::Address<7u>, Containers::DataView<unsigned char, true>, Containers::DataView<unsigned char, true>)::{lambda()#1}::operator()() const::{lambda(IO::Address<7u>, auto:1)#2}::operator()<Containers::DataView<unsigned char, true> >({lambda()#1}, IO::Address<7u>) const
 .text.plat_i2c_write_block
                0x08000438       0xa6 CMakeFiles/STM32F070x6.elf.dir/richtek/USBPD.cpp.obj
                0x08000438                plat_i2c_write_block
 .text._ZN2IO3I2CINS_3PinILNS_4PortE0ELm7EEENS1_ILS2_0ELm6EEEE8ReadByteEb
                0x080004de      0x120 CMakeFiles/STM32F070x6.elf.dir/richtek/USBPD.cpp.obj
                0x080004de                IO::I2C<IO::Pin<(IO::Port)0, 7ul>, IO::Pin<(IO::Port)0, 6ul> >::ReadByte(bool)
 .text._ZZZN2IO3I2CINS_3PinILNS_4PortE0ELm7EEENS1_ILS2_0ELm6EEEE5MixedILj7EN10Containers8DataViewIhLb1EEEJNS8_IhLb0EEEEEEjNS_7AddressIXT_EEET0_DpT1_ENKUlvE_clEvENKUlT_E_clISA_EEbSH_
                0x080005fe       0x4e CMakeFiles/STM32F070x6.elf.dir/richtek/USBPD.cpp.obj
                0x080005fe                bool IO::I2C<IO::Pin<(IO::Port)0, 7ul>, IO::Pin<(IO::Port)0, 6ul> >::Mixed<7u, Containers::DataView<unsigned char, true>, Containers::DataView<unsigned char, false> >(IO::Address<7u>, Containers::DataView<unsigned char, true>, Containers::DataView<unsigned char, false>)::{lambda()#1}::operator()() const::{lambda(auto:1)#1}::operator()<Containers::DataView<unsigned char, false> >({lambda()#1}) const
 .text._ZZN2IO3I2CINS_3PinILNS_4PortE0ELm7EEENS1_ILS2_0ELm6EEEE5MixedILj7EN10Containers8DataViewIhLb1EEEJNS8_IhLb0EEEEEEjNS_7AddressIXT_EEET0_DpT1_ENKUlvE_clEv
                0x0800064c       0xda CMakeFiles/STM32F070x6.elf.dir/richtek/USBPD.cpp.obj
                0x0800064c                IO::I2C<IO::Pin<(IO::Port)0, 7ul>, IO::Pin<(IO::Port)0, 6ul> >::Mixed<7u, Containers::DataView<unsigned char, true>, Containers::DataView<unsigned char, false> >(IO::Address<7u>, Containers::DataView<unsigned char, true>, Containers::DataView<unsigned char, false>)::{lambda()#1}::operator()() const
 .text.plat_i2c_read_block
                0x08000726       0x60 CMakeFiles/STM32F070x6.elf.dir/richtek/USBPD.cpp.obj
                0x08000726                plat_i2c_read_block
 *fill*         0x08000786        0x2 
 .text.startup._GLOBAL__sub_I_TypeCMode
                0x08000788       0x18 CMakeFiles/STM32F070x6.elf.dir/richtek/USBPD.cpp.obj
 .text.WWDG_IRQHandler
                0x080007a0       0x24 CMakeFiles/STM32F070x6.elf.dir/src/Interrupt.cpp.obj
                0x080007a0                WWDG_IRQHandler
 .text.RTC_IRQHandler
                0x080007c4       0x24 CMakeFiles/STM32F070x6.elf.dir/src/Interrupt.cpp.obj
                0x080007c4                RTC_IRQHandler
 .text.FLASH_IRQHandler
                0x080007e8       0x24 CMakeFiles/STM32F070x6.elf.dir/src/Interrupt.cpp.obj
                0x080007e8                FLASH_IRQHandler
 .text.EXTI0_1_IRQHandler
                0x0800080c       0x24 CMakeFiles/STM32F070x6.elf.dir/src/Interrupt.cpp.obj
                0x0800080c                EXTI0_1_IRQHandler
 .text.EXTI2_3_IRQHandler
                0x08000830       0x24 CMakeFiles/STM32F070x6.elf.dir/src/Interrupt.cpp.obj
                0x08000830                EXTI2_3_IRQHandler
 .text.EXTI4_15_IRQHandler
                0x08000854       0x24 CMakeFiles/STM32F070x6.elf.dir/src/Interrupt.cpp.obj
                0x08000854                EXTI4_15_IRQHandler
 .text.DMA1_Channel1_IRQHandler
                0x08000878       0x24 CMakeFiles/STM32F070x6.elf.dir/src/Interrupt.cpp.obj
                0x08000878                DMA1_Channel1_IRQHandler
 .text.DMA1_Channel2_3_IRQHandler
                0x0800089c       0x24 CMakeFiles/STM32F070x6.elf.dir/src/Interrupt.cpp.obj
                0x0800089c                DMA1_Channel2_3_IRQHandler
 .text.TIM1_BRK_UP_TRG_COM_IRQHandler
                0x080008c0       0x24 CMakeFiles/STM32F070x6.elf.dir/src/Interrupt.cpp.obj
                0x080008c0                TIM1_BRK_UP_TRG_COM_IRQHandler
 .text.TIM1_CC_IRQHandler
                0x080008e4       0x24 CMakeFiles/STM32F070x6.elf.dir/src/Interrupt.cpp.obj
                0x080008e4                TIM1_CC_IRQHandler
 .text.TIM3_IRQHandler
                0x08000908       0x24 CMakeFiles/STM32F070x6.elf.dir/src/Interrupt.cpp.obj
                0x08000908                TIM3_IRQHandler
 .text.TIM14_IRQHandler
                0x0800092c       0x24 CMakeFiles/STM32F070x6.elf.dir/src/Interrupt.cpp.obj
                0x0800092c                TIM14_IRQHandler
 .text.ADC1_IRQHandler
                0x08000950       0x24 CMakeFiles/STM32F070x6.elf.dir/src/Interrupt.cpp.obj
                0x08000950                ADC1_IRQHandler
 .text.TIM16_IRQHandler
                0x08000974       0x24 CMakeFiles/STM32F070x6.elf.dir/src/Interrupt.cpp.obj
                0x08000974                TIM16_IRQHandler
 .text.TIM17_IRQHandler
                0x08000998       0x24 CMakeFiles/STM32F070x6.elf.dir/src/Interrupt.cpp.obj
                0x08000998                TIM17_IRQHandler
 .text.I2C1_IRQHandler
                0x080009bc       0x24 CMakeFiles/STM32F070x6.elf.dir/src/Interrupt.cpp.obj
                0x080009bc                I2C1_IRQHandler
 .text.SPI1_IRQHandler
                0x080009e0       0x24 CMakeFiles/STM32F070x6.elf.dir/src/Interrupt.cpp.obj
                0x080009e0                SPI1_IRQHandler
 .text.USART1_IRQHandler
                0x08000a04       0x24 CMakeFiles/STM32F070x6.elf.dir/src/Interrupt.cpp.obj
                0x08000a04                USART1_IRQHandler
 .text.USART2_IRQHandler
                0x08000a28       0x24 CMakeFiles/STM32F070x6.elf.dir/src/Interrupt.cpp.obj
                0x08000a28                USART2_IRQHandler
 .text.RCC_IRQHandler
                0x08000a4c       0x24 CMakeFiles/STM32F070x6.elf.dir/src/Interrupt.cpp.obj
                0x08000a4c                RCC_IRQHandler
 .text.USB_IRQHandler
                0x08000a70       0x24 CMakeFiles/STM32F070x6.elf.dir/src/Interrupt.cpp.obj
                0x08000a70                USB_IRQHandler
 .text.DMA1_Channel4_5_IRQHandler
                0x08000a94       0x24 CMakeFiles/STM32F070x6.elf.dir/src/Interrupt.cpp.obj
                0x08000a94                DMA1_Channel4_5_IRQHandler
 .text.PendSV_Handler
                0x08000ab8       0x24 CMakeFiles/STM32F070x6.elf.dir/src/Interrupt.cpp.obj
                0x08000ab8                PendSV_Handler
 .text.SysTick_Handler
                0x08000adc       0x24 CMakeFiles/STM32F070x6.elf.dir/src/Interrupt.cpp.obj
                0x08000adc                SysTick_Handler
 .text.startup._GLOBAL__sub_I_WWDG_IRQHandler
                0x08000b00       0x18 CMakeFiles/STM32F070x6.elf.dir/src/Interrupt.cpp.obj
 .text._ZN11Peripherals14USARTDMAModuleIN6System11USARTKernalEPFvN10Containers8DataViewIhLb1EEEEE12RecieveBlockES5_
                0x08000b18       0x1c CMakeFiles/STM32F070x6.elf.dir/src/main.cpp.obj
                0x08000b18                Peripherals::USARTDMAModule<System::USARTKernal, void (*)(Containers::DataView<unsigned char, true>)>::RecieveBlock(Containers::DataView<unsigned char, true>)
 .text.__tcf_3  0x08000b34       0x4c CMakeFiles/STM32F070x6.elf.dir/src/main.cpp.obj
 .text._ZN11Peripherals13USBModuleBaseIN3USB13USB_LL_KernalEN2IO3PinILNS3_4PortE0ELm11EEENS4_ILS5_0ELm10EEEE15ActionDoNothingENS_13USBActionDataE
                0x08000b80        0x6 CMakeFiles/STM32F070x6.elf.dir/src/main.cpp.obj
                0x08000b80                Peripherals::USBModuleBase<USB::USB_LL_Kernal, IO::Pin<(IO::Port)0, 11ul>, IO::Pin<(IO::Port)0, 10ul> >::ActionDoNothing(Peripherals::USBActionData)
 *fill*         0x08000b86        0x2 
 .text._ZN11Peripherals13SysTickModuleIZ4mainEUlyE_LNS_11SysTickTypeE1EE9InterruptEv
                0x08000b88       0x2c CMakeFiles/STM32F070x6.elf.dir/src/main.cpp.obj
 .text._ZN7General19StaticLambdaWrapperIZN11Peripherals9ADCModuleIJN2IO3PinILNS3_4PortE0ELm1EEEEEC4IZN6System7GetVbusEffEUlvE_EEOT_EUlNS1_16DMAInterruptFlagEE_vE3RunIJSD_EEEDcDpOT_.isra.0
                0x08000bb4       0x10 CMakeFiles/STM32F070x6.elf.dir/src/main.cpp.obj
 .text._ZN11Peripherals10RCCGeneral4CFGRILj1073876996EE17SelectSystemClockENS0_17SystemClockSourceE.isra.0
                0x08000bc4       0x20 CMakeFiles/STM32F070x6.elf.dir/src/main.cpp.obj
 .text._ZN11Peripherals9DMAModuleIZNS_9ADCModuleIJN2IO3PinILNS2_4PortE0ELm1EEEEEC4IZN6System7GetVbusEffEUlvE_EEOT_EUlNS_16DMAInterruptFlagEE_Lj1ELj1ELj2EE9InterruptEv
                0x08000be4       0x70 CMakeFiles/STM32F070x6.elf.dir/src/main.cpp.obj
                0x08000be4                Peripherals::DMAModule<Peripherals::ADCModule<IO::Pin<(IO::Port)0, 1ul> >::ADCModule<System::GetVbus(float, float)::{lambda()#1}>(System::GetVbus(float, float)::{lambda()#1}&&)::{lambda(Peripherals::DMAInterruptFlag)#1}, 1u, 1u, 2u>::Interrupt()
 .text._ZNK3USB12HIDInterfaceI23USBHIDInterfaceCallbackE17InterfaceCallbackclIRNS_3HID13SetDescriptorEEEvhOT_.isra.0
                0x08000c54       0x12 CMakeFiles/STM32F070x6.elf.dir/src/main.cpp.obj
 *fill*         0x08000c66        0x2 
 .text.__tcf_1  0x08000c68       0x4c CMakeFiles/STM32F070x6.elf.dir/src/main.cpp.obj
 .text.__tcf_2  0x08000cb4       0x4c CMakeFiles/STM32F070x6.elf.dir/src/main.cpp.obj
 .text._ZN11Peripherals13SysTickCommon4WaitEy
                0x08000d00       0x28 CMakeFiles/STM32F070x6.elf.dir/src/main.cpp.obj
                0x08000d00                Peripherals::SysTickCommon::Wait(unsigned long long)
 .text._ZN11Peripherals14USBModulePower9ConstructEv
                0x08000d28       0x50 CMakeFiles/STM32F070x6.elf.dir/src/main.cpp.obj
                0x08000d28                Peripherals::USBModulePower::Construct()
 .text._ZN11Peripherals10ADCGeneral9CalibrateEv
                0x08000d78       0x3c CMakeFiles/STM32F070x6.elf.dir/src/main.cpp.obj
                0x08000d78                Peripherals::ADCGeneral::Calibrate()
 .text._ZN11Peripherals10ADCGeneral14EnableSequenceEv
                0x08000db4       0x2c CMakeFiles/STM32F070x6.elf.dir/src/main.cpp.obj
                0x08000db4                Peripherals::ADCGeneral::EnableSequence()
 .text._ZN11Peripherals10ADCGeneral15DisableSequenceEv
                0x08000de0       0x24 CMakeFiles/STM32F070x6.elf.dir/src/main.cpp.obj
                0x08000de0                Peripherals::ADCGeneral::DisableSequence()
 .text.__tcf_0  0x08000e04       0x2c CMakeFiles/STM32F070x6.elf.dir/src/main.cpp.obj
 .text._ZN7General7RunOnceIN2IO14PinPowerKernalILNS1_4PortE0EEEED2Ev
                0x08000e30       0x24 CMakeFiles/STM32F070x6.elf.dir/src/main.cpp.obj
                0x08000e30                General::RunOnce<IO::PinPowerKernal<(IO::Port)0> >::~RunOnce()
                0x08000e30                General::RunOnce<IO::PinPowerKernal<(IO::Port)0> >::~RunOnce()
 .text._ZN7General7RunOnceIN2IO14PinPowerKernalILNS1_4PortE0EEEEC2Ev
                0x08000e54       0x24 CMakeFiles/STM32F070x6.elf.dir/src/main.cpp.obj
                0x08000e54                General::RunOnce<IO::PinPowerKernal<(IO::Port)0> >::RunOnce()
                0x08000e54                General::RunOnce<IO::PinPowerKernal<(IO::Port)0> >::RunOnce()
 .text._ZN3USB12HIDInterfaceI23USBHIDInterfaceCallbackE16TransmitContinueEPDoFvN11Peripherals13USBActionDataEE
                0x08000e78       0x38 CMakeFiles/STM32F070x6.elf.dir/src/main.cpp.obj
                0x08000e78                USB::HIDInterface<USBHIDInterfaceCallback>::TransmitContinue(void (*)(Peripherals::USBActionData) noexcept)
 .text._Z13USART_ReceiveN10Containers8DataViewIhLb1EEE
                0x08000eb0       0x38 CMakeFiles/STM32F070x6.elf.dir/src/main.cpp.obj
                0x08000eb0                USART_Receive(Containers::DataView<unsigned char, true>)
 .text._ZN11Peripherals11SystemClockILNS_10RCCGeneral6ClocksE2ELNS1_12PCLKDivisionE0ELNS1_12HCLKDivisionE0ELNS1_11PLLMultiplyE4ELNS1_11PLLDivisionE0ELb1EE8SetupPLLEv
                0x08000ee8       0x80 CMakeFiles/STM32F070x6.elf.dir/src/main.cpp.obj
                0x08000ee8                Peripherals::SystemClock<(Peripherals::RCCGeneral::Clocks)2, (Peripherals::RCCGeneral::PCLKDivision)0, (Peripherals::RCCGeneral::HCLKDivision)0, (Peripherals::RCCGeneral::PLLMultiply)4, (Peripherals::RCCGeneral::PLLDivision)0, true>::SetupPLL()
 .text._ZN11Peripherals14ADCPowerKernalIJN2IO3PinILNS1_4PortE0ELm1EEEEE9ConstructEv
                0x08000f68       0x80 CMakeFiles/STM32F070x6.elf.dir/src/main.cpp.obj
                0x08000f68                Peripherals::ADCPowerKernal<IO::Pin<(IO::Port)0, 1ul> >::Construct()
 .text._ZZN11Peripherals13USBModuleBaseIN3USB13USB_LL_KernalEN2IO3PinILNS3_4PortE0ELm11EEENS4_ILS5_0ELm10EEEE11OtherActionENS_13USBActionDataEENKUlT_E_clINS_10USBGeneral2EPILj0EEEEEDaSA_
                0x08000fe8      0x1b0 CMakeFiles/STM32F070x6.elf.dir/src/main.cpp.obj
                0x08000fe8                auto Peripherals::USBModuleBase<USB::USB_LL_Kernal, IO::Pin<(IO::Port)0, 11ul>, IO::Pin<(IO::Port)0, 10ul> >::OtherAction(Peripherals::USBActionData)::{lambda(auto:1)#1}::operator()<Peripherals::USBGeneral::EP<0u> >(Peripherals::USBGeneral::EP<0u>) const
 .text._ZZN11Peripherals13USBModuleBaseIN3USB13USB_LL_KernalEN2IO3PinILNS3_4PortE0ELm11EEENS4_ILS5_0ELm10EEEE11OtherActionENS_13USBActionDataEENKUlT_E_clINS_10USBGeneral2EPILj1EEEEEDaSA_
                0x08001198      0x1b8 CMakeFiles/STM32F070x6.elf.dir/src/main.cpp.obj
                0x08001198                auto Peripherals::USBModuleBase<USB::USB_LL_Kernal, IO::Pin<(IO::Port)0, 11ul>, IO::Pin<(IO::Port)0, 10ul> >::OtherAction(Peripherals::USBActionData)::{lambda(auto:1)#1}::operator()<Peripherals::USBGeneral::EP<1u> >(Peripherals::USBGeneral::EP<1u>) const
 .text._ZN11Peripherals13USBModuleBaseIN3USB13USB_LL_KernalEN2IO3PinILNS3_4PortE0ELm11EEENS4_ILS5_0ELm10EEEE11ActionBoundINS_10USBGeneral2EPILj1EEELNSA_9DirectionE0EEEvNS_13USBActionDataE
                0x08001350      0x200 CMakeFiles/STM32F070x6.elf.dir/src/main.cpp.obj
                0x08001350                void Peripherals::USBModuleBase<USB::USB_LL_Kernal, IO::Pin<(IO::Port)0, 11ul>, IO::Pin<(IO::Port)0, 10ul> >::ActionBound<Peripherals::USBGeneral::EP<1u>, (Peripherals::USBGeneral::Direction)0>(Peripherals::USBActionData)
 .text._ZN11Peripherals13USBModuleBaseIN3USB13USB_LL_KernalEN2IO3PinILNS3_4PortE0ELm11EEENS4_ILS5_0ELm10EEEE11ActionBoundINS_10USBGeneral2EPILj0EEELNSA_9DirectionE0EEEvNS_13USBActionDataE
                0x08001550      0x1fc CMakeFiles/STM32F070x6.elf.dir/src/main.cpp.obj
                0x08001550                void Peripherals::USBModuleBase<USB::USB_LL_Kernal, IO::Pin<(IO::Port)0, 11ul>, IO::Pin<(IO::Port)0, 10ul> >::ActionBound<Peripherals::USBGeneral::EP<0u>, (Peripherals::USBGeneral::Direction)0>(Peripherals::USBActionData)
 .text._ZN11Peripherals13USBModuleBaseIN3USB13USB_LL_KernalEN2IO3PinILNS3_4PortE0ELm11EEENS4_ILS5_0ELm10EEEE11ActionBoundINS_10USBGeneral2EPILj0EEELNSA_9DirectionE1EEEvNS_13USBActionDataE
                0x0800174c      0x204 CMakeFiles/STM32F070x6.elf.dir/src/main.cpp.obj
                0x0800174c                void Peripherals::USBModuleBase<USB::USB_LL_Kernal, IO::Pin<(IO::Port)0, 11ul>, IO::Pin<(IO::Port)0, 10ul> >::ActionBound<Peripherals::USBGeneral::EP<0u>, (Peripherals::USBGeneral::Direction)1>(Peripherals::USBActionData)
 .text._ZN11Peripherals13USBModuleBaseIN3USB13USB_LL_KernalEN2IO3PinILNS3_4PortE0ELm11EEENS4_ILS5_0ELm10EEEE11ActionBoundINS_10USBGeneral2EPILj1EEELNSA_9DirectionE1EEEvNS_13USBActionDataE
                0x08001950      0x20c CMakeFiles/STM32F070x6.elf.dir/src/main.cpp.obj
                0x08001950                void Peripherals::USBModuleBase<USB::USB_LL_Kernal, IO::Pin<(IO::Port)0, 11ul>, IO::Pin<(IO::Port)0, 10ul> >::ActionBound<Peripherals::USBGeneral::EP<1u>, (Peripherals::USBGeneral::Direction)1>(Peripherals::USBActionData)
 .text._ZN11Peripherals13DMAPropertiesILj1ELj5ELj2EE9RemainingEv
                0x08001b5c       0x18 CMakeFiles/STM32F070x6.elf.dir/src/main.cpp.obj
                0x08001b5c                Peripherals::DMAProperties<1u, 5u, 2u>::Remaining()
 .text._ZN11Peripherals14CircularBufferILj512EEclISt5arrayIhLj512EEPDoFvN10Containers8DataViewIhLb1EEEEEEvjRKT_OT0_
                0x08001b74       0x88 CMakeFiles/STM32F070x6.elf.dir/src/main.cpp.obj
                0x08001b74                void Peripherals::CircularBuffer<512u>::operator()<std::array<unsigned char, 512u>, void (*)(Containers::DataView<unsigned char, true>) noexcept>(unsigned int, std::array<unsigned char, 512u> const&, void (*&&)(Containers::DataView<unsigned char, true>) noexcept)
 .text._ZN11Peripherals14USARTDMAModuleIN6System11USARTKernalEPFvN10Containers8DataViewIhLb1EEEEE9InterruptEv
                0x08001bfc       0x40 CMakeFiles/STM32F070x6.elf.dir/src/main.cpp.obj
                0x08001bfc                Peripherals::USARTDMAModule<System::USARTKernal, void (*)(Containers::DataView<unsigned char, true>)>::Interrupt()
 .text._ZN11Peripherals13DMAPropertiesILj1ELj4ELj2EE7DisableEv
                0x08001c3c       0x28 CMakeFiles/STM32F070x6.elf.dir/src/main.cpp.obj
                0x08001c3c                Peripherals::DMAProperties<1u, 4u, 2u>::Disable()
 .text._ZN7General19StaticLambdaWrapperIZN11Peripherals14USARTDMAModuleIN6System11USARTKernalEPFvN10Containers8DataViewIhLb1EEEEE16SetupDMATransmitEvEUlNS1_16DMAInterruptFlagEE_vE3RunIJSB_EEEDcDpOT_.isra.0
                0x08001c64       0x24 CMakeFiles/STM32F070x6.elf.dir/src/main.cpp.obj
 .text._ZN11Peripherals9DMAModuleIZNS_14USARTDMAModuleIN6System11USARTKernalEPFvN10Containers8DataViewIhLb1EEEEE16SetupDMATransmitEvEUlNS_16DMAInterruptFlagEE_Lj1ELj4ELj2EE9InterruptEv
                0x08001c88       0x78 CMakeFiles/STM32F070x6.elf.dir/src/main.cpp.obj
                0x08001c88                Peripherals::DMAModule<Peripherals::USARTDMAModule<System::USARTKernal, void (*)(Containers::DataView<unsigned char, true>)>::SetupDMATransmit()::{lambda(Peripherals::DMAInterruptFlag)#1}, 1u, 4u, 2u>::Interrupt()
 .text._ZN11Peripherals14USARTDMAModuleIN6System11USARTKernalEPFvN10Containers8DataViewIhLb1EEEEE15TriggerTransmitES5_
                0x08001d00       0x9c CMakeFiles/STM32F070x6.elf.dir/src/main.cpp.obj
                0x08001d00                Peripherals::USARTDMAModule<System::USARTKernal, void (*)(Containers::DataView<unsigned char, true>)>::TriggerTransmit(Containers::DataView<unsigned char, true>)
 .text._ZN10Containers4FILOIPFvvELj2EE4PushIJS2_EEEjDpRKT_
                0x08001d9c       0x1a CMakeFiles/STM32F070x6.elf.dir/src/main.cpp.obj
                0x08001d9c                unsigned int Containers::FILO<void (*)(), 2u>::Push<void (*)()>(void (* const&)())
 *fill*         0x08001db6        0x2 
 .text._ZN11Peripherals9ADCModuleIJN2IO3PinILNS1_4PortE0ELm1EEEEEC2IZN6System7GetVbusEffEUlvE_EEOT_
                0x08001db8      0x1a0 CMakeFiles/STM32F070x6.elf.dir/src/main.cpp.obj
                0x08001db8                Peripherals::ADCModule<IO::Pin<(IO::Port)0, 1ul> >::ADCModule<System::GetVbus(float, float)::{lambda()#1}>(System::GetVbus(float, float)::{lambda()#1}&&)
                0x08001db8                Peripherals::ADCModule<IO::Pin<(IO::Port)0, 1ul> >::ADCModule<System::GetVbus(float, float)::{lambda()#1}>(System::GetVbus(float, float)::{lambda()#1}&&)
 .text._ZN11Peripherals14USARTDMAModuleIN6System11USARTKernalEPFvN10Containers8DataViewIhLb1EEEEEC2IRDoFvS5_EEEOT_
                0x08001f58      0x4ec CMakeFiles/STM32F070x6.elf.dir/src/main.cpp.obj
                0x08001f58                Peripherals::USARTDMAModule<System::USARTKernal, void (*)(Containers::DataView<unsigned char, true>)>::USARTDMAModule<void (&)(Containers::DataView<unsigned char, true>) noexcept>(void (&)(Containers::DataView<unsigned char, true>) noexcept)
                0x08001f58                Peripherals::USARTDMAModule<System::USARTKernal, void (*)(Containers::DataView<unsigned char, true>)>::USARTDMAModule<void (&)(Containers::DataView<unsigned char, true>) noexcept>(void (&)(Containers::DataView<unsigned char, true>) noexcept)
 .text._ZN11Peripherals13USBModuleBaseIN3USB13USB_LL_KernalEN2IO3PinILNS3_4PortE0ELm11EEENS4_ILS5_0ELm10EEEEC2Ev
                0x08002444       0x8c CMakeFiles/STM32F070x6.elf.dir/src/main.cpp.obj
                0x08002444                Peripherals::USBModuleBase<USB::USB_LL_Kernal, IO::Pin<(IO::Port)0, 11ul>, IO::Pin<(IO::Port)0, 10ul> >::USBModuleBase()
                0x08002444                Peripherals::USBModuleBase<USB::USB_LL_Kernal, IO::Pin<(IO::Port)0, 11ul>, IO::Pin<(IO::Port)0, 10ul> >::USBModuleBase()
 .text.startup.main
                0x080024d0      0x33c CMakeFiles/STM32F070x6.elf.dir/src/main.cpp.obj
                0x080024d0                main
 .text._ZN7General19StaticLambdaWrapperIZN11Peripherals14USARTDMAModuleIN6System11USARTKernalEPFvN10Containers8DataViewIhLb1EEEEE15SetupDMAReceiveEvEUlNS1_16DMAInterruptFlagEE_vE3RunIJSB_EEEDcDpOT_
                0x0800280c       0x38 CMakeFiles/STM32F070x6.elf.dir/src/main.cpp.obj
                0x0800280c                decltype(auto) General::StaticLambdaWrapper<Peripherals::USARTDMAModule<System::USARTKernal, void (*)(Containers::DataView<unsigned char, true>)>::SetupDMAReceive()::{lambda(Peripherals::DMAInterruptFlag)#1}, void>::Run<Peripherals::DMAInterruptFlag>(Peripherals::DMAInterruptFlag&&)
 .text._ZN11Peripherals9DMAModuleIZNS_14USARTDMAModuleIN6System11USARTKernalEPFvN10Containers8DataViewIhLb1EEEEE15SetupDMAReceiveEvEUlNS_16DMAInterruptFlagEE_Lj1ELj5ELj2EE9InterruptEv
                0x08002844       0x88 CMakeFiles/STM32F070x6.elf.dir/src/main.cpp.obj
                0x08002844                Peripherals::DMAModule<Peripherals::USARTDMAModule<System::USARTKernal, void (*)(Containers::DataView<unsigned char, true>)>::SetupDMAReceive()::{lambda(Peripherals::DMAInterruptFlag)#1}, 1u, 5u, 2u>::Interrupt()
 .text._ZN3USB12HIDInterfaceI23USBHIDInterfaceCallbackE9KeepAliveEPDoFvN11Peripherals13USBActionDataEE
                0x080028cc       0x12 CMakeFiles/STM32F070x6.elf.dir/src/main.cpp.obj
                0x080028cc                USB::HIDInterface<USBHIDInterfaceCallback>::KeepAlive(void (*)(Peripherals::USBActionData) noexcept)
 *fill*         0x080028de        0x2 
 .text._ZZNK3USB16SetupOutCallbackINS_10USBManagerIJNS_12HIDInterfaceI23USBHIDInterfaceCallbackEEEEEEclEhPDoFvN11Peripherals13USBActionDataEENS7_14USBReceiveTypeEN10Containers8DataViewIhLb1EEEENKUlhT_E0_clINS_9GetStatusEEEDahSF_
                0x080028e0       0x9c CMakeFiles/STM32F070x6.elf.dir/src/main.cpp.obj
                0x080028e0                auto USB::SetupOutCallback<USB::USBManager<USB::HIDInterface<USBHIDInterfaceCallback> > >::operator()(unsigned char, void (*)(Peripherals::USBActionData) noexcept, Peripherals::USBReceiveType, Containers::DataView<unsigned char, true>) const::{lambda(unsigned char, auto:1)#2}::operator()<USB::GetStatus>(unsigned char, USB::GetStatus) const
 .text._ZZNK3USB16SetupOutCallbackINS_10USBManagerIJNS_12HIDInterfaceI23USBHIDInterfaceCallbackEEEEEEclEhPDoFvN11Peripherals13USBActionDataEENS7_14USBReceiveTypeEN10Containers8DataViewIhLb1EEEENKUlhT_E0_clINS_13GetDescriptorEEEDahSF_
                0x0800297c       0xdc CMakeFiles/STM32F070x6.elf.dir/src/main.cpp.obj
                0x0800297c                auto USB::SetupOutCallback<USB::USBManager<USB::HIDInterface<USBHIDInterfaceCallback> > >::operator()(unsigned char, void (*)(Peripherals::USBActionData) noexcept, Peripherals::USBReceiveType, Containers::DataView<unsigned char, true>) const::{lambda(unsigned char, auto:1)#2}::operator()<USB::GetDescriptor>(unsigned char, USB::GetDescriptor) const
 .text._ZN3USB9TransformIZNKS_16SetupOutCallbackINS_10USBManagerIJNS_12HIDInterfaceI23USBHIDInterfaceCallbackEEEEEEclEhPDoFvN11Peripherals13USBActionDataEENS8_14USBReceiveTypeEN10Containers8DataViewIhLb1EEEEUlhT_E0_EEbhNS_21StandardDeviceRequestEOSG_
                0x08002a58      0x134 CMakeFiles/STM32F070x6.elf.dir/src/main.cpp.obj
                0x08002a58                bool USB::Transform<USB::SetupOutCallback<USB::USBManager<USB::HIDInterface<USBHIDInterfaceCallback> > >::operator()(unsigned char, void (*)(Peripherals::USBActionData) noexcept, Peripherals::USBReceiveType, Containers::DataView<unsigned char, true>) const::{lambda(unsigned char, auto:1)#2}>(unsigned char, USB::StandardDeviceRequest, USB::SetupOutCallback<USB::USBManager<USB::HIDInterface<USBHIDInterfaceCallback> > >::operator()(unsigned char, void (*)(Peripherals::USBActionData) noexcept, Peripherals::USBReceiveType, Containers::DataView<unsigned char, true>) const::{lambda(unsigned char, auto:1)#2}&&)
 .text._ZZN11Peripherals13USBModuleBaseIN3USB13USB_LL_KernalEN2IO3PinILNS3_4PortE0ELm11EEENS4_ILS5_0ELm10EEEE22ConfigureEndpointsImplIJNS_8EndpointILt0ELNS_17EndpointDirectionE3ELt64ELNS_12EndpointTypeE1ELNS_11ControlKindE0ELNS_6StatusE1ELSE_3EEENSA_ILt1ELSB_1ELt64ELSC_3ELi0ELSE_2ELSE_0EEEEEEvDpT_ENKUlT_E_clINS_10USBGeneral2EPILj0EEEEEDaSJ_
                0x08002b8c      0x110 CMakeFiles/STM32F070x6.elf.dir/src/main.cpp.obj
                0x08002b8c                auto Peripherals::USBModuleBase<USB::USB_LL_Kernal, IO::Pin<(IO::Port)0, 11ul>, IO::Pin<(IO::Port)0, 10ul> >::ConfigureEndpointsImpl<Peripherals::Endpoint<(unsigned short)0, (Peripherals::EndpointDirection)3, (unsigned short)64, (Peripherals::EndpointType)1, (Peripherals::ControlKind)0, (Peripherals::Status)1, (Peripherals::Status)3>, Peripherals::Endpoint<(unsigned short)1, (Peripherals::EndpointDirection)1, (unsigned short)64, (Peripherals::EndpointType)3, 0, (Peripherals::Status)2, (Peripherals::Status)0> >(Peripherals::Endpoint<(unsigned short)0, (Peripherals::EndpointDirection)3, (unsigned short)64, (Peripherals::EndpointType)1, (Peripherals::ControlKind)0, (Peripherals::Status)1, (Peripherals::Status)3>, Peripherals::Endpoint<(unsigned short)1, (Peripherals::EndpointDirection)1, (unsigned short)64, (Peripherals::EndpointType)3, 0, (Peripherals::Status)2, (Peripherals::Status)0>)::{lambda(auto:1)#1}::operator()<Peripherals::USBGeneral::EP<0u> >(Peripherals::USBGeneral::EP<0u>) const
 .text._ZZN11Peripherals13USBModuleBaseIN3USB13USB_LL_KernalEN2IO3PinILNS3_4PortE0ELm11EEENS4_ILS5_0ELm10EEEE22ConfigureEndpointsImplIJNS_8EndpointILt0ELNS_17EndpointDirectionE3ELt64ELNS_12EndpointTypeE1ELNS_11ControlKindE0ELNS_6StatusE1ELSE_3EEENSA_ILt1ELSB_1ELt64ELSC_3ELi0ELSE_2ELSE_0EEEEEEvDpT_ENKUlT_E0_clINS_10USBGeneral2EPILj1EEEEEDaSJ_
                0x08002c9c       0x9c CMakeFiles/STM32F070x6.elf.dir/src/main.cpp.obj
                0x08002c9c                auto Peripherals::USBModuleBase<USB::USB_LL_Kernal, IO::Pin<(IO::Port)0, 11ul>, IO::Pin<(IO::Port)0, 10ul> >::ConfigureEndpointsImpl<Peripherals::Endpoint<(unsigned short)0, (Peripherals::EndpointDirection)3, (unsigned short)64, (Peripherals::EndpointType)1, (Peripherals::ControlKind)0, (Peripherals::Status)1, (Peripherals::Status)3>, Peripherals::Endpoint<(unsigned short)1, (Peripherals::EndpointDirection)1, (unsigned short)64, (Peripherals::EndpointType)3, 0, (Peripherals::Status)2, (Peripherals::Status)0> >(Peripherals::Endpoint<(unsigned short)0, (Peripherals::EndpointDirection)3, (unsigned short)64, (Peripherals::EndpointType)1, (Peripherals::ControlKind)0, (Peripherals::Status)1, (Peripherals::Status)3>, Peripherals::Endpoint<(unsigned short)1, (Peripherals::EndpointDirection)1, (unsigned short)64, (Peripherals::EndpointType)3, 0, (Peripherals::Status)2, (Peripherals::Status)0>)::{lambda(auto:1)#2}::operator()<Peripherals::USBGeneral::EP<1u> >(Peripherals::USBGeneral::EP<1u>) const
 .text._ZNK3USB13EventCallbackINS_10USBManagerIJNS_12HIDInterfaceI23USBHIDInterfaceCallbackEEEEEEclEhPDoFvN11Peripherals13USBActionDataEENS7_8USBEventE
                0x08002d38       0xbc CMakeFiles/STM32F070x6.elf.dir/src/main.cpp.obj
                0x08002d38                USB::EventCallback<USB::USBManager<USB::HIDInterface<USBHIDInterfaceCallback> > >::operator()(unsigned char, void (*)(Peripherals::USBActionData) noexcept, Peripherals::USBEvent) const
 .text._ZN7General19StaticLambdaWrapperIN3USB13EventCallbackINS1_10USBManagerIJNS1_12HIDInterfaceI23USBHIDInterfaceCallbackEEEEEEEN11Peripherals9USBModuleINS9_13USBModuleBaseINS1_13USB_LL_KernalEN2IO3PinILNSD_4PortE0ELm11EEENSE_ILSF_0ELm10EEEEES8_NS1_16SetupOutCallbackIS7_EEEEE3RunIJRKjRDoFvNS9_13USBActionDataEENS9_8USBEventEEEEDcDpOT_
                0x08002df4       0x24 CMakeFiles/STM32F070x6.elf.dir/src/main.cpp.obj
                0x08002df4                decltype(auto) General::StaticLambdaWrapper<USB::EventCallback<USB::USBManager<USB::HIDInterface<USBHIDInterfaceCallback> > >, Peripherals::USBModule<Peripherals::USBModuleBase<USB::USB_LL_Kernal, IO::Pin<(IO::Port)0, 11ul>, IO::Pin<(IO::Port)0, 10ul> >, USB::EventCallback<USB::USBManager<USB::HIDInterface<USBHIDInterfaceCallback> > >, USB::SetupOutCallback<USB::USBManager<USB::HIDInterface<USBHIDInterfaceCallback> > > > >::Run<unsigned int const&, void (&)(Peripherals::USBActionData) noexcept, Peripherals::USBEvent>(unsigned int const&, void (&)(Peripherals::USBActionData) noexcept, Peripherals::USBEvent&&)
 .text._ZN11Peripherals9USBModuleINS_13USBModuleBaseIN3USB13USB_LL_KernalEN2IO3PinILNS4_4PortE0ELm11EEENS5_ILS6_0ELm10EEEEENS2_13EventCallbackINS2_10USBManagerIJNS2_12HIDInterfaceI23USBHIDInterfaceCallbackEEEEEEENS2_16SetupOutCallbackISF_EEE10BasicEventENS_8USBEventE
                0x08002e18       0x20 CMakeFiles/STM32F070x6.elf.dir/src/main.cpp.obj
                0x08002e18                Peripherals::USBModule<Peripherals::USBModuleBase<USB::USB_LL_Kernal, IO::Pin<(IO::Port)0, 11ul>, IO::Pin<(IO::Port)0, 10ul> >, USB::EventCallback<USB::USBManager<USB::HIDInterface<USBHIDInterfaceCallback> > >, USB::SetupOutCallback<USB::USBManager<USB::HIDInterface<USBHIDInterfaceCallback> > > >::BasicEvent(Peripherals::USBEvent)
 .text._ZZN11Peripherals9USBModuleINS_13USBModuleBaseIN3USB13USB_LL_KernalEN2IO3PinILNS4_4PortE0ELm11EEENS5_ILS6_0ELm10EEEEENS2_13EventCallbackINS2_10USBManagerIJNS2_12HIDInterfaceI23USBHIDInterfaceCallbackEEEEEEENS2_16SetupOutCallbackISF_EEE22CTR_Transmit_InterruptINS_10USBGeneral2EPILj0EEEEEvT_ENKUlNS_8USBEventEE_clESP_.isra.0
                0x08002e38       0x20 CMakeFiles/STM32F070x6.elf.dir/src/main.cpp.obj
 .text._ZZN11Peripherals9USBModuleINS_13USBModuleBaseIN3USB13USB_LL_KernalEN2IO3PinILNS4_4PortE0ELm11EEENS5_ILS6_0ELm10EEEEENS2_13EventCallbackINS2_10USBManagerIJNS2_12HIDInterfaceI23USBHIDInterfaceCallbackEEEEEEENS2_16SetupOutCallbackISF_EEE22CTR_Transmit_InterruptINS_10USBGeneral2EPILj1EEEEEvT_ENKUlNS_8USBEventEE_clESP_.isra.0
                0x08002e58       0x20 CMakeFiles/STM32F070x6.elf.dir/src/main.cpp.obj
 .text._ZNK3USB12HIDInterfaceI23USBHIDInterfaceCallbackE17InterfaceCallbackclIRNS_3HID13GetDescriptorEEEvhOT_
                0x08002e78       0x70 CMakeFiles/STM32F070x6.elf.dir/src/main.cpp.obj
                0x08002e78                void USB::HIDInterface<USBHIDInterfaceCallback>::InterfaceCallback::operator()<USB::HID::GetDescriptor&>(unsigned char, USB::HID::GetDescriptor&) const
 .text._ZN3USB3HID9TransformINS_12HIDInterfaceI23USBHIDInterfaceCallbackE17InterfaceCallbackEEEbhNS_21StandardDeviceRequestEOT_
                0x08002ee8       0x8e CMakeFiles/STM32F070x6.elf.dir/src/main.cpp.obj
                0x08002ee8                bool USB::HID::Transform<USB::HIDInterface<USBHIDInterfaceCallback>::InterfaceCallback>(unsigned char, USB::StandardDeviceRequest, USB::HIDInterface<USBHIDInterfaceCallback>::InterfaceCallback&&)
 *fill*         0x08002f76        0x2 
 .text._ZN7General19StaticLambdaWrapperIN3USB16SetupOutCallbackINS1_10USBManagerIJNS1_12HIDInterfaceI23USBHIDInterfaceCallbackEEEEEEEN11Peripherals9USBModuleINS9_13USBModuleBaseINS1_13USB_LL_KernalEN2IO3PinILNSD_4PortE0ELm11EEENSE_ILSF_0ELm10EEEEENS1_13EventCallbackIS7_EES8_EEE3RunIJRKjRDoFvNS9_13USBActionDataEERNS9_14USBReceiveTypeERN10Containers8DataViewIhLb1EEEEEEDcDpOT_
                0x08002f78       0x94 CMakeFiles/STM32F070x6.elf.dir/src/main.cpp.obj
                0x08002f78                decltype(auto) General::StaticLambdaWrapper<USB::SetupOutCallback<USB::USBManager<USB::HIDInterface<USBHIDInterfaceCallback> > >, Peripherals::USBModule<Peripherals::USBModuleBase<USB::USB_LL_Kernal, IO::Pin<(IO::Port)0, 11ul>, IO::Pin<(IO::Port)0, 10ul> >, USB::EventCallback<USB::USBManager<USB::HIDInterface<USBHIDInterfaceCallback> > >, USB::SetupOutCallback<USB::USBManager<USB::HIDInterface<USBHIDInterfaceCallback> > > > >::Run<unsigned int const&, void (&)(Peripherals::USBActionData) noexcept, Peripherals::USBReceiveType&, Containers::DataView<unsigned char, true>&>(unsigned int const&, void (&)(Peripherals::USBActionData) noexcept, Peripherals::USBReceiveType&, Containers::DataView<unsigned char, true>&)
 .text._ZZN11Peripherals9USBModuleINS_13USBModuleBaseIN3USB13USB_LL_KernalEN2IO3PinILNS4_4PortE0ELm11EEENS5_ILS6_0ELm10EEEEENS2_13EventCallbackINS2_10USBManagerIJNS2_12HIDInterfaceI23USBHIDInterfaceCallbackEEEEEEENS2_16SetupOutCallbackISF_EEE13CTR_InterruptEvENKUlT_E_clINS_10USBGeneral2EPILj0EEEEEDaSK_
                0x0800300c      0x134 CMakeFiles/STM32F070x6.elf.dir/src/main.cpp.obj
                0x0800300c                auto Peripherals::USBModule<Peripherals::USBModuleBase<USB::USB_LL_Kernal, IO::Pin<(IO::Port)0, 11ul>, IO::Pin<(IO::Port)0, 10ul> >, USB::EventCallback<USB::USBManager<USB::HIDInterface<USBHIDInterfaceCallback> > >, USB::SetupOutCallback<USB::USBManager<USB::HIDInterface<USBHIDInterfaceCallback> > > >::CTR_Interrupt()::{lambda(auto:1)#1}::operator()<Peripherals::USBGeneral::EP<0u> >(Peripherals::USBGeneral::EP<0u>) const
 .text._ZZN11Peripherals9USBModuleINS_13USBModuleBaseIN3USB13USB_LL_KernalEN2IO3PinILNS4_4PortE0ELm11EEENS5_ILS6_0ELm10EEEEENS2_13EventCallbackINS2_10USBManagerIJNS2_12HIDInterfaceI23USBHIDInterfaceCallbackEEEEEEENS2_16SetupOutCallbackISF_EEE13CTR_InterruptEvENKUlT_E_clINS_10USBGeneral2EPILj1EEEEEDaSK_
                0x08003140      0x134 CMakeFiles/STM32F070x6.elf.dir/src/main.cpp.obj
                0x08003140                auto Peripherals::USBModule<Peripherals::USBModuleBase<USB::USB_LL_Kernal, IO::Pin<(IO::Port)0, 11ul>, IO::Pin<(IO::Port)0, 10ul> >, USB::EventCallback<USB::USBManager<USB::HIDInterface<USBHIDInterfaceCallback> > >, USB::SetupOutCallback<USB::USBManager<USB::HIDInterface<USBHIDInterfaceCallback> > > >::CTR_Interrupt()::{lambda(auto:1)#1}::operator()<Peripherals::USBGeneral::EP<1u> >(Peripherals::USBGeneral::EP<1u>) const
 .text._ZN11Peripherals9USBModuleINS_13USBModuleBaseIN3USB13USB_LL_KernalEN2IO3PinILNS4_4PortE0ELm11EEENS5_ILS6_0ELm10EEEEENS2_13EventCallbackINS2_10USBManagerIJNS2_12HIDInterfaceI23USBHIDInterfaceCallbackEEEEEEENS2_16SetupOutCallbackISF_EEE9InterruptEv
                0x08003274      0x1a8 CMakeFiles/STM32F070x6.elf.dir/src/main.cpp.obj
                0x08003274                Peripherals::USBModule<Peripherals::USBModuleBase<USB::USB_LL_Kernal, IO::Pin<(IO::Port)0, 11ul>, IO::Pin<(IO::Port)0, 10ul> >, USB::EventCallback<USB::USBManager<USB::HIDInterface<USBHIDInterfaceCallback> > >, USB::SetupOutCallback<USB::USBManager<USB::HIDInterface<USBHIDInterfaceCallback> > > >::Interrupt()
 .text.startup._GLOBAL__sub_I__ZN3USB12RemoteWakeupE
                0x0800341c       0x94 CMakeFiles/STM32F070x6.elf.dir/src/main.cpp.obj
 .text.exit._GLOBAL__sub_D__ZN3USB12RemoteWakeupE
                0x080034b0       0x3c CMakeFiles/STM32F070x6.elf.dir/src/main.cpp.obj
 .text.SystemInit
                0x080034ec      0x100 CMakeFiles/STM32F070x6.elf.dir/st-library/src/cmsis/system_stm32f0xx.c.obj
                0x080034ec                SystemInit
 .text.SystemCoreClockUpdate
                0x080035ec       0x70 CMakeFiles/STM32F070x6.elf.dir/st-library/src/cmsis/system_stm32f0xx.c.obj
                0x080035ec                SystemCoreClockUpdate
 .text.__initialize_hardware_early
                0x0800365c        0x8 CMakeFiles/STM32F070x6.elf.dir/st-library/src/cortexm/_initialize_hardware.c.obj
                0x0800365c                __initialize_hardware_early
 .text.__initialize_hardware
                0x08003664        0x8 CMakeFiles/STM32F070x6.elf.dir/st-library/src/cortexm/_initialize_hardware.c.obj
                0x08003664                __initialize_hardware
 .text.__reset_hardware
                0x0800366c       0x1c CMakeFiles/STM32F070x6.elf.dir/st-library/src/cortexm/_reset_hardware.c.obj
                0x0800366c                __reset_hardware
 .text.dumpExceptionStack
                0x08003688       0x88 CMakeFiles/STM32F070x6.elf.dir/st-library/src/cortexm/exception_handlers.c.obj
                0x08003688                dumpExceptionStack
 .text.trace_printf
                0x08003710       0x2c CMakeFiles/STM32F070x6.elf.dir/st-library/src/diag/Trace.c.obj
                0x08003710                trace_printf
 .text.trace_write
                0x0800373c        0x6 CMakeFiles/STM32F070x6.elf.dir/st-library/src/diag/trace_impl.c.obj
                0x0800373c                trace_write
 .text._exit    0x08003742        0x6 CMakeFiles/STM32F070x6.elf.dir/st-library/src/newlib/_exit.c.obj
                0x08003742                _exit
 .text._sbrk    0x08003748       0x40 CMakeFiles/STM32F070x6.elf.dir/st-library/src/newlib/_sbrk.c.obj
                0x08003748                _sbrk
 .text.__initialize_args
                0x08003788       0x10 CMakeFiles/STM32F070x6.elf.dir/st-library/src/newlib/_syscalls.c.obj
                0x08003788                __initialize_args
 .text.PD_Reset_Init
                0x08003798        0xe ../richtek/lib/libbuild.a(pd_main.c.obj)
                0x08003798                PD_Reset_Init
 *fill*         0x080037a6        0x2 
 .text.PD_Run_State_Machine
                0x080037a8       0x5c ../richtek/lib/libbuild.a(pd_main.c.obj)
                0x080037a8                PD_Run_State_Machine
 .text._Check_Source_Cap
                0x08003804       0x10 ../richtek/lib/libbuild.a(pd_sub_func.c.obj)
                0x08003804                _Check_Source_Cap
 .text._Check_and_Handle_Bist
                0x08003814       0x6c ../richtek/lib/libbuild.a(pd_sub_func.c.obj)
                0x08003814                _Check_and_Handle_Bist
 .text._Check_and_Handle_Vdm
                0x08003880       0x1c ../richtek/lib/libbuild.a(pd_sub_func.c.obj)
                0x08003880                _Check_and_Handle_Vdm
 .text._Check_and_Handle_Common_Ams30
                0x0800389c       0x64 ../richtek/lib/libbuild.a(pd_sub_func.c.obj)
                0x0800389c                _Check_and_Handle_Common_Ams30
 .text._Check_and_Handle_Snk_Ams30
                0x08003900        0x8 ../richtek/lib/libbuild.a(pd_sub_func.c.obj)
                0x08003900                _Check_and_Handle_Snk_Ams30
 .text.Check_and_Handle_Rec_Swap
                0x08003908       0x1c ../richtek/lib/libbuild.a(pd_sub_func.c.obj)
                0x08003908                Check_and_Handle_Rec_Swap
 .text.Check_and_Handle_DPM_Command
                0x08003924        0x4 ../richtek/lib/libbuild.a(pd_sub_func.c.obj)
                0x08003924                Check_and_Handle_DPM_Command
 .text.Check_and_Handle_GoodCrc_Waiting
                0x08003928       0x30 ../richtek/lib/libbuild.a(pd_sub_func.c.obj)
                0x08003928                Check_and_Handle_GoodCrc_Waiting
 .text._Check_and_Clear_Dpm_Notice
                0x08003958        0x4 ../richtek/lib/libbuild.a(pd_sub_func.c.obj)
                0x08003958                _Check_and_Clear_Dpm_Notice
 .text._Check_and_Load_Rx2DpmBuffer
                0x0800395c        0x4 ../richtek/lib/libbuild.a(pd_sub_func.c.obj)
                0x0800395c                _Check_and_Load_Rx2DpmBuffer
 .text.Check_Sink_Tx_NG
                0x08003960       0x20 ../richtek/lib/libbuild.a(pd_sub_func.c.obj)
                0x08003960                Check_Sink_Tx_NG
 .text.Run_Optional_Control
                0x08003980       0x4c ../richtek/lib/libbuild.a(pd_sub_func.c.obj)
                0x08003980                Run_Optional_Control
 .text._Give_Snk_Cap_with_Filter
                0x080039cc       0x48 ../richtek/lib/libbuild.a(pd_sub_func.c.obj)
                0x080039cc                _Give_Snk_Cap_with_Filter
 .text._Sink_Depend_Remote
                0x08003a14       0x48 ../richtek/lib/libbuild.a(pd_sub_func.c.obj)
                0x08003a14                _Sink_Depend_Remote
 .text.Tcpm_Timer8_Timeout
                0x08003a5c       0x28 ../richtek/lib/libbuild.a(pd_timer.c.obj)
                0x08003a5c                Tcpm_Timer8_Timeout
 .text.Tcpm_Timer8_Enable
                0x08003a84       0x14 ../richtek/lib/libbuild.a(pd_timer.c.obj)
                0x08003a84                Tcpm_Timer8_Enable
 .text.Tcpm_Timer16_Timeout
                0x08003a98       0x28 ../richtek/lib/libbuild.a(pd_timer.c.obj)
                0x08003a98                Tcpm_Timer16_Timeout
 .text.Tcpm_Timer16_Enable
                0x08003ac0       0x14 ../richtek/lib/libbuild.a(pd_timer.c.obj)
                0x08003ac0                Tcpm_Timer16_Enable
 .text.Handle_Protocol_Error30.part.0
                0x08003ad4       0x18 ../richtek/lib/libbuild.a(pd_util.c.obj)
 .text.pd_reset_protocol_layer
                0x08003aec       0x98 ../richtek/lib/libbuild.a(pd_util.c.obj)
                0x08003aec                pd_reset_protocol_layer
 .text.pd_send_message
                0x08003b84       0xb4 ../richtek/lib/libbuild.a(pd_util.c.obj)
                0x08003b84                pd_send_message
 .text.pd_send_ctrl_msg
                0x08003c38        0xc ../richtek/lib/libbuild.a(pd_util.c.obj)
                0x08003c38                pd_send_ctrl_msg
 .text.pd_send_data_msg
                0x08003c44        0x8 ../richtek/lib/libbuild.a(pd_util.c.obj)
                0x08003c44                pd_send_data_msg
 .text.pd_send_ext_msg
                0x08003c4c       0x56 ../richtek/lib/libbuild.a(pd_util.c.obj)
                0x08003c4c                pd_send_ext_msg
 *fill*         0x08003ca2        0x2 
 .text.pd_pe_send_hard_reset
                0x08003ca4       0x2c ../richtek/lib/libbuild.a(pd_util.c.obj)
                0x08003ca4                pd_pe_send_hard_reset
 .text.Check_PD_Message
                0x08003cd0       0xa0 ../richtek/lib/libbuild.a(pd_util.c.obj)
                0x08003cd0                Check_PD_Message
 .text.Clear_Rx_Alert
                0x08003d70       0x1c ../richtek/lib/libbuild.a(pd_util.c.obj)
                0x08003d70                Clear_Rx_Alert
 .text.Handle_Protocol_Error
                0x08003d8c       0x1c ../richtek/lib/libbuild.a(pd_util.c.obj)
                0x08003d8c                Handle_Protocol_Error
 .text.pd_i2c_write8
                0x08003da8       0x1c ../richtek/lib/libbuild.a(pd_util.c.obj)
                0x08003da8                pd_i2c_write8
 .text.pd_i2c_write16
                0x08003dc4       0x1c ../richtek/lib/libbuild.a(pd_util.c.obj)
                0x08003dc4                pd_i2c_write16
 .text.pd_i2c_read8
                0x08003de0       0x18 ../richtek/lib/libbuild.a(pd_util.c.obj)
                0x08003de0                pd_i2c_read8
 .text.pd_i2c_update_bits
                0x08003df8       0x28 ../richtek/lib/libbuild.a(pd_util.c.obj)
                0x08003df8                pd_i2c_update_bits
 .text.pd_i2c_read16
                0x08003e20       0x28 ../richtek/lib/libbuild.a(pd_util.c.obj)
                0x08003e20                pd_i2c_read16
 .text.pd_i2c_read_block
                0x08003e48       0x18 ../richtek/lib/libbuild.a(pd_util.c.obj)
                0x08003e48                pd_i2c_read_block
 .text.Get_Data_Message_Rx_Buffer
                0x08003e60       0x30 ../richtek/lib/libbuild.a(pd_util.c.obj)
                0x08003e60                Get_Data_Message_Rx_Buffer
 .text.pd_i2c_write_block
                0x08003e90       0x18 ../richtek/lib/libbuild.a(pd_util.c.obj)
                0x08003e90                pd_i2c_write_block
 .text.Timer_1Ms_Handler
                0x08003ea8       0x10 ../richtek/lib/libbuild.a(pd_util.c.obj)
                0x08003ea8                Timer_1Ms_Handler
 .text.Get_Timestamp
                0x08003eb8       0x18 ../richtek/lib/libbuild.a(pd_util.c.obj)
                0x08003eb8                Get_Timestamp
 .text.PD_Control_Message_Parser
                0x08003ed0      0x1ac ../richtek/lib/libbuild.a(pd_util.c.obj)
                0x08003ed0                PD_Control_Message_Parser
 .text.Delay_Ms
                0x0800407c       0x16 ../richtek/lib/libbuild.a(pd_util.c.obj)
                0x0800407c                Delay_Ms
 *fill*         0x08004092        0x2 
 .text.Set_Power_Role
                0x08004094       0x24 ../richtek/lib/libbuild.a(pd_util.c.obj)
                0x08004094                Set_Power_Role
 .text.Set_Data_Role
                0x080040b8       0x1c ../richtek/lib/libbuild.a(pd_util.c.obj)
                0x080040b8                Set_Data_Role
 .text.pd_reset_local_hw
                0x080040d4       0x48 ../richtek/lib/libbuild.a(pd_util.c.obj)
                0x080040d4                pd_reset_local_hw
 .text.rt1711_tcpc_init_regs
                0x0800411c       0x4c ../richtek/lib/libbuild.a(rt1711_access.c.obj)
                0x0800411c                rt1711_tcpc_init_regs
 .text.rt1711_update_fault_mask
                0x08004168        0xe ../richtek/lib/libbuild.a(rt1711_access.c.obj)
                0x08004168                rt1711_update_fault_mask
 .text.rt1711_alert_status_clear
                0x08004176       0x2c ../richtek/lib/libbuild.a(rt1711_access.c.obj)
                0x08004176                rt1711_alert_status_clear
 .text.rt1711_power_int_status_clear
                0x080041a2        0xc ../richtek/lib/libbuild.a(rt1711_access.c.obj)
                0x080041a2                rt1711_power_int_status_clear
 .text.rt1711_fault_status_clear
                0x080041ae        0xe ../richtek/lib/libbuild.a(rt1711_access.c.obj)
                0x080041ae                rt1711_fault_status_clear
 .text.rt1711_get_alert_status
                0x080041bc       0x18 ../richtek/lib/libbuild.a(rt1711_access.c.obj)
                0x080041bc                rt1711_get_alert_status
 .text.rt1711_get_power_status
                0x080041d4       0x3c ../richtek/lib/libbuild.a(rt1711_access.c.obj)
                0x080041d4                rt1711_get_power_status
 .text.rt1711_get_fault_status
                0x08004210        0xc ../richtek/lib/libbuild.a(rt1711_access.c.obj)
                0x08004210                rt1711_get_fault_status
 .text.rt1711_get_cc
                0x0800421c       0x60 ../richtek/lib/libbuild.a(rt1711_access.c.obj)
                0x0800421c                rt1711_get_cc
 .text.rt1711_set_cc
                0x0800427c       0x4c ../richtek/lib/libbuild.a(rt1711_access.c.obj)
                0x0800427c                rt1711_set_cc
 .text.rt1711_set_cc_with_update_cc
                0x080042c8        0xe ../richtek/lib/libbuild.a(rt1711_access.c.obj)
                0x080042c8                rt1711_set_cc_with_update_cc
 *fill*         0x080042d6        0x2 
 .text.rt1711_set_vconn_with_flag
                0x080042d8       0x28 ../richtek/lib/libbuild.a(rt1711_access.c.obj)
                0x080042d8                rt1711_set_vconn_with_flag
 .text.rt1711_set_polarity
                0x08004300       0x12 ../richtek/lib/libbuild.a(rt1711_access.c.obj)
                0x08004300                rt1711_set_polarity
 .text.rt1711_set_auto_idle
                0x08004312       0x12 ../richtek/lib/libbuild.a(rt1711_access.c.obj)
                0x08004312                rt1711_set_auto_idle
 .text.rt1711_set_msg_header
                0x08004324       0x12 ../richtek/lib/libbuild.a(rt1711_access.c.obj)
                0x08004324                rt1711_set_msg_header
 .text.rt1711_set_rx_enable
                0x08004336        0xc ../richtek/lib/libbuild.a(rt1711_access.c.obj)
                0x08004336                rt1711_set_rx_enable
 .text.rt1711_transmit
                0x08004342       0x44 ../richtek/lib/libbuild.a(rt1711_access.c.obj)
                0x08004342                rt1711_transmit
 .text.rt1711h_set_bist_test_mode
                0x08004386       0x14 ../richtek/lib/libbuild.a(rt1711_access.c.obj)
                0x08004386                rt1711h_set_bist_test_mode
 .text.rt1711h_protocol_reset
                0x0800439a       0x14 ../richtek/lib/libbuild.a(rt1711_access.c.obj)
                0x0800439a                rt1711h_protocol_reset
 .text._set_rx_dz
                0x080043ae       0x1a ../richtek/lib/libbuild.a(tcpc_alert.c.obj)
                0x080043ae                _set_rx_dz
 .text.update_typec_attach_state
                0x080043c8       0x90 ../richtek/lib/libbuild.a(tcpc_alert.c.obj)
                0x080043c8                update_typec_attach_state
 .text.update_cc_changed
                0x08004458       0x64 ../richtek/lib/libbuild.a(tcpc_alert.c.obj)
                0x08004458                update_cc_changed
 .text.tcpci_alert_cc_changed
                0x080044bc        0xa ../richtek/lib/libbuild.a(tcpc_alert.c.obj)
                0x080044bc                tcpci_alert_cc_changed
 *fill*         0x080044c6        0x2 
 .text.tcpci_alert_tx_failed
                0x080044c8       0x2c ../richtek/lib/libbuild.a(tcpc_alert.c.obj)
                0x080044c8                tcpci_alert_tx_failed
 .text.tcpci_alert_tx_discard
                0x080044f4       0x1c ../richtek/lib/libbuild.a(tcpc_alert.c.obj)
                0x080044f4                tcpci_alert_tx_discard
 .text.tcpci_alert_tx_success
                0x08004510       0x44 ../richtek/lib/libbuild.a(tcpc_alert.c.obj)
                0x08004510                tcpci_alert_tx_success
 .text.tcpci_alert_recv_hard_reset
                0x08004554       0x28 ../richtek/lib/libbuild.a(tcpc_alert.c.obj)
                0x08004554                tcpci_alert_recv_hard_reset
 .text.TCPCI_Alert_Handler
                0x0800457c       0xe0 ../richtek/lib/libbuild.a(tcpc_alert.c.obj)
                0x0800457c                TCPCI_Alert_Handler
 .text.tcpci_source_vbus.part.0
                0x0800465c       0x18 ../richtek/lib/libbuild.a(tcpc_core.c.obj)
 .text._tcpc_exit_state_reset_param
                0x08004674       0x20 ../richtek/lib/libbuild.a(tcpc_core.c.obj)
                0x08004674                _tcpc_exit_state_reset_param
 .text.tcpc_transfer_state
                0x08004694       0x10 ../richtek/lib/libbuild.a(tcpc_core.c.obj)
                0x08004694                tcpc_transfer_state
 .text._unattatch_reset_flow_after_cc
                0x080046a4       0x1a ../richtek/lib/libbuild.a(tcpc_core.c.obj)
                0x080046a4                _unattatch_reset_flow_after_cc
 *fill*         0x080046be        0x2 
 .text._unattatch_reset_flow_before_cc
                0x080046c0       0x70 ../richtek/lib/libbuild.a(tcpc_core.c.obj)
                0x080046c0                _unattatch_reset_flow_before_cc
 .text.tcpc_attachwait_snk_entry
                0x08004730       0x7c ../richtek/lib/libbuild.a(tcpc_core.c.obj)
                0x08004730                tcpc_attachwait_snk_entry
 .text.tcpc_attach_snk_entry
                0x080047ac       0xa4 ../richtek/lib/libbuild.a(tcpc_core.c.obj)
                0x080047ac                tcpc_attach_snk_entry
 .text.tcpc_debug_snk_entry
                0x08004850       0x4c ../richtek/lib/libbuild.a(tcpc_core.c.obj)
                0x08004850                tcpc_debug_snk_entry
 .text.tcpc_debug_src_o_entry
                0x0800489c       0x2c ../richtek/lib/libbuild.a(tcpc_core.c.obj)
                0x0800489c                tcpc_debug_src_o_entry
 .text.run_simplify_power_control
                0x080048c8       0xa8 ../richtek/lib/libbuild.a(tcpc_core.c.obj)
                0x080048c8                run_simplify_power_control
 .text.tcpci_source_vbus
                0x08004970       0x30 ../richtek/lib/libbuild.a(tcpc_core.c.obj)
                0x08004970                tcpci_source_vbus
 .text.tcpc_debug_src_u_entry
                0x080049a0       0x6c ../richtek/lib/libbuild.a(tcpc_core.c.obj)
                0x080049a0                tcpc_debug_src_u_entry
 .text.tcpci_sink_vbus
                0x08004a0c       0x64 ../richtek/lib/libbuild.a(tcpc_core.c.obj)
                0x08004a0c                tcpci_sink_vbus
 .text.tcpc_unattach_entry
                0x08004a70       0xb0 ../richtek/lib/libbuild.a(tcpc_core.c.obj)
                0x08004a70                tcpc_unattach_entry
 .text.tcpc_attach_snk_a2c_entry
                0x08004b20       0x64 ../richtek/lib/libbuild.a(tcpc_core.c.obj)
                0x08004b20                tcpc_attach_snk_a2c_entry
 .text.tcpc_audio_entry
                0x08004b84       0x54 ../richtek/lib/libbuild.a(tcpc_core.c.obj)
                0x08004b84                tcpc_audio_entry
 .text.TCPC_Reset_Init
                0x08004bd8       0x24 ../richtek/lib/libbuild.a(tcpc_core.c.obj)
                0x08004bd8                TCPC_Reset_Init
 .text.tcpc_error_recovery_entry
                0x08004bfc       0x74 ../richtek/lib/libbuild.a(tcpc_core.c.obj)
                0x08004bfc                tcpc_error_recovery_entry
 .text.check_src_cap_ext_func
                0x08004c70       0x10 ../richtek/lib/libbuild.a(pd_ams30.c.obj)
                0x08004c70                check_src_cap_ext_func
 .text.check_status_func
                0x08004c80       0x10 ../richtek/lib/libbuild.a(pd_ams30.c.obj)
                0x08004c80                check_status_func
 .text.check_pps_status_func
                0x08004c90       0x10 ../richtek/lib/libbuild.a(pd_ams30.c.obj)
                0x08004c90                check_pps_status_func
 .text.check_bat_cap_func
                0x08004ca0        0x4 ../richtek/lib/libbuild.a(pd_ams30.c.obj)
                0x08004ca0                check_bat_cap_func
 .text.check_bat_status_func
                0x08004ca4       0x10 ../richtek/lib/libbuild.a(pd_ams30.c.obj)
                0x08004ca4                check_bat_status_func
 .text.check_manu_info_func
                0x08004cb4        0xc ../richtek/lib/libbuild.a(pd_ams30.c.obj)
                0x08004cb4                check_manu_info_func
 .text.check_cntry_code_func
                0x08004cc0       0x10 ../richtek/lib/libbuild.a(pd_ams30.c.obj)
                0x08004cc0                check_cntry_code_func
 .text.send_get_src_cap_ext_func
                0x08004cd0       0x1c ../richtek/lib/libbuild.a(pd_ams30.c.obj)
                0x08004cd0                send_get_src_cap_ext_func
 .text.send_get_status_func
                0x08004cec       0x1c ../richtek/lib/libbuild.a(pd_ams30.c.obj)
                0x08004cec                send_get_status_func
 .text.send_get_pps_status_func
                0x08004d08       0x1c ../richtek/lib/libbuild.a(pd_ams30.c.obj)
                0x08004d08                send_get_pps_status_func
 .text.send_get_cntry_code_func
                0x08004d24       0x1c ../richtek/lib/libbuild.a(pd_ams30.c.obj)
                0x08004d24                send_get_cntry_code_func
 .text.send_give_not_support
                0x08004d40        0xc ../richtek/lib/libbuild.a(pd_ams30.c.obj)
                0x08004d40                send_give_not_support
 .text.send_get_bat_cap_func
                0x08004d4c       0x20 ../richtek/lib/libbuild.a(pd_ams30.c.obj)
                0x08004d4c                send_get_bat_cap_func
 .text.send_get_bat_status_func
                0x08004d6c       0x10 ../richtek/lib/libbuild.a(pd_ams30.c.obj)
                0x08004d6c                send_get_bat_status_func
 .text.send_get_manu_info_func
                0x08004d7c       0x20 ../richtek/lib/libbuild.a(pd_ams30.c.obj)
                0x08004d7c                send_get_manu_info_func
 .text.send_give_manu_info_func
                0x08004d9c       0x20 ../richtek/lib/libbuild.a(pd_ams30.c.obj)
                0x08004d9c                send_give_manu_info_func
 .text.ams30_state_transfer
                0x08004dbc       0x2c ../richtek/lib/libbuild.a(pd_ams30.c.obj)
                0x08004dbc                ams30_state_transfer
 .text.pe_ams30_null
                0x08004de8        0x2 ../richtek/lib/libbuild.a(pd_ams30.c.obj)
                0x08004de8                pe_ams30_null
 *fill*         0x08004dea        0x2 
 .text.pe_ams30_get_xxx_entry
                0x08004dec       0x60 ../richtek/lib/libbuild.a(pd_ams30.c.obj)
                0x08004dec                pe_ams30_get_xxx_entry
 .text.pe_ams30_give_xxx_entry
                0x08004e4c       0x40 ../richtek/lib/libbuild.a(pd_ams30.c.obj)
                0x08004e4c                pe_ams30_give_xxx_entry
 .text.pe_ams30_not_sup_rec_entry
                0x08004e8c       0x28 ../richtek/lib/libbuild.a(pd_ams30.c.obj)
                0x08004e8c                pe_ams30_not_sup_rec_entry
 .text.pe_ams30_chunk_rec_entry
                0x08004eb4       0x30 ../richtek/lib/libbuild.a(pd_ams30.c.obj)
                0x08004eb4                pe_ams30_chunk_rec_entry
 .text.pe_ams30_send_not_sup_entry
                0x08004ee4       0x30 ../richtek/lib/libbuild.a(pd_ams30.c.obj)
                0x08004ee4                pe_ams30_send_not_sup_entry
 .text.PD_State_Machine
                0x08004f14       0x18 ../richtek/lib/libbuild.a(pd_core.c.obj)
                0x08004f14                PD_State_Machine
 .text.Policy_Engine
                0x08004f2c       0x38 ../richtek/lib/libbuild.a(pd_core.c.obj)
                0x08004f2c                Policy_Engine
 .text.check_vbus_5v
                0x08004f64       0x44 ../richtek/lib/libbuild.a(pd_core_power_control.c.obj)
                0x08004f64                check_vbus_5v
 .text.check_vbus_level
                0x08004fa8       0x14 ../richtek/lib/libbuild.a(pd_core_power_control.c.obj)
                0x08004fa8                check_vbus_level
 .text.enable_force_discharge
                0x08004fbc        0x8 ../richtek/lib/libbuild.a(pd_core_power_control.c.obj)
                0x08004fbc                enable_force_discharge
 .text.system_simple_source_vbus_disable_fd
                0x08004fc4        0xa ../richtek/lib/libbuild.a(pd_core_power_control.c.obj)
                0x08004fc4                system_simple_source_vbus_disable_fd
 .text.system_simple_source_vbus_gate
                0x08004fce        0xa ../richtek/lib/libbuild.a(pd_core_power_control.c.obj)
                0x08004fce                system_simple_source_vbus_gate
 .text.system_simple_source_vbus_en_vtune
                0x08004fd8        0xa ../richtek/lib/libbuild.a(pd_core_power_control.c.obj)
                0x08004fd8                system_simple_source_vbus_en_vtune
 .text.system_simple_source_vbus_turnoff
                0x08004fe2       0x16 ../richtek/lib/libbuild.a(pd_core_power_control.c.obj)
                0x08004fe2                system_simple_source_vbus_turnoff
 .text.system_sink_vbus_control
                0x08004ff8       0x22 ../richtek/lib/libbuild.a(pd_core_power_control.c.obj)
                0x08004ff8                system_sink_vbus_control
 *fill*         0x0800501a        0x2 
 .text.pe_state_transfer
                0x0800501c       0x4c ../richtek/lib/libbuild.a(pd_pe.c.obj)
                0x0800501c                pe_state_transfer
 .text.pe_snk_null
                0x08005068       0x10 ../richtek/lib/libbuild.a(pd_pe.c.obj)
                0x08005068                pe_snk_null
 .text.pe_snk_startup_entry
                0x08005078       0x3c ../richtek/lib/libbuild.a(pd_pe.c.obj)
                0x08005078                pe_snk_startup_entry
 .text.pe_snk_discovery_entry
                0x080050b4       0x5c ../richtek/lib/libbuild.a(pd_pe.c.obj)
                0x080050b4                pe_snk_discovery_entry
 .text.pe_snk_wait_for_capabilities_entry
                0x08005110       0x4c ../richtek/lib/libbuild.a(pd_pe.c.obj)
                0x08005110                pe_snk_wait_for_capabilities_entry
 .text.pe_snk_evaluate_capability_entry
                0x0800515c       0x2c ../richtek/lib/libbuild.a(pd_pe.c.obj)
                0x0800515c                pe_snk_evaluate_capability_entry
 .text.pe_snk_select_capability_entry
                0x08005188       0x90 ../richtek/lib/libbuild.a(pd_pe.c.obj)
                0x08005188                pe_snk_select_capability_entry
 .text.pe_snk_transition_sink_entry
                0x08005218       0x50 ../richtek/lib/libbuild.a(pd_pe.c.obj)
                0x08005218                pe_snk_transition_sink_entry
 .text.pe_snk_ready_entry
                0x08005268      0x138 ../richtek/lib/libbuild.a(pd_pe.c.obj)
                0x08005268                pe_snk_ready_entry
 .text.pe_snk_hard_reset_entry
                0x080053a0       0x3c ../richtek/lib/libbuild.a(pd_pe.c.obj)
                0x080053a0                pe_snk_hard_reset_entry
 .text.pe_snk_transition_to_default_entry
                0x080053dc       0x30 ../richtek/lib/libbuild.a(pd_pe.c.obj)
                0x080053dc                pe_snk_transition_to_default_entry
 .text.pe_snk_give_sink_cap_entry
                0x0800540c       0x30 ../richtek/lib/libbuild.a(pd_pe.c.obj)
                0x0800540c                pe_snk_give_sink_cap_entry
 .text.pe_snk_get_source_cap_entry
                0x0800543c       0x50 ../richtek/lib/libbuild.a(pd_pe.c.obj)
                0x0800543c                pe_snk_get_source_cap_entry
 .text.pe_snk_send_soft_reset_entry
                0x0800548c       0x80 ../richtek/lib/libbuild.a(pd_pe.c.obj)
                0x0800548c                pe_snk_send_soft_reset_entry
 .text.pe_snk_soft_reset_entry
                0x0800550c       0x4c ../richtek/lib/libbuild.a(pd_pe.c.obj)
                0x0800550c                pe_snk_soft_reset_entry
 .text.pd_dpm_snk_hard_reset
                0x08005558       0x14 ../richtek/lib/libbuild.a(pd_dpm.c.obj)
                0x08005558                pd_dpm_snk_hard_reset
 .text.pd_pseudo_nego_dpm_with_src_caps
                0x0800556c      0x138 ../richtek/lib/libbuild.a(pd_dpm.c.obj)
                0x0800556c                pd_pseudo_nego_dpm_with_src_caps
 .text.pdo_decompose
                0x080056a4       0xa2 ../richtek/lib/libbuild.a(pd_packet.c.obj)
                0x080056a4                pdo_decompose
 .text.rdo_compose
                0x08005746       0x16 ../richtek/lib/libbuild.a(pd_packet.c.obj)
                0x08005746                rdo_compose
 .text.extract_from_pdo_10
                0x0800575c       0x1c ../richtek/lib/libbuild.a(pd_packet.c.obj)
                0x0800575c                extract_from_pdo_10
 .text          0x08005778       0x14 c:/progra~2/gnutoo~1/92019-~1/bin/../lib/gcc/arm-none-eabi/9.2.1/thumb/v6-m/nofp\libgcc.a(_thumb1_case_uqi.o)
                0x08005778                __gnu_thumb1_case_uqi
 .text          0x0800578c      0x114 c:/progra~2/gnutoo~1/92019-~1/bin/../lib/gcc/arm-none-eabi/9.2.1/thumb/v6-m/nofp\libgcc.a(_udivsi3.o)
                0x0800578c                __aeabi_uidiv
                0x0800578c                __udivsi3
                0x08005898                __aeabi_uidivmod
 .text          0x080058a0        0x4 c:/progra~2/gnutoo~1/92019-~1/bin/../lib/gcc/arm-none-eabi/9.2.1/thumb/v6-m/nofp\libgcc.a(_dvmd_tls.o)
                0x080058a0                __aeabi_idiv0
                0x080058a0                __aeabi_ldiv0
 .text          0x080058a4       0x74 c:/progra~2/gnutoo~1/92019-~1/bin/../lib/gcc/arm-none-eabi/9.2.1/thumb/v6-m/nofp\libgcc.a(_arm_cmpsf2.o)
                0x080058a4                __aeabi_cfrcmple
                0x080058ac                __aeabi_cfcmpeq
                0x080058ac                __aeabi_cfcmple
                0x080058bc                __aeabi_fcmpeq
                0x080058c8                __aeabi_fcmplt
                0x080058dc                __aeabi_fcmple
                0x080058f0                __aeabi_fcmpgt
                0x08005904                __aeabi_fcmpge
 .text          0x08005918      0x218 c:/progra~2/gnutoo~1/92019-~1/bin/../lib/gcc/arm-none-eabi/9.2.1/thumb/v6-m/nofp\libgcc.a(divsf3.o)
                0x08005918                __aeabi_fdiv
 .text          0x08005b30       0x50 c:/progra~2/gnutoo~1/92019-~1/bin/../lib/gcc/arm-none-eabi/9.2.1/thumb/v6-m/nofp\libgcc.a(eqsf2.o)
                0x08005b30                __eqsf2
                0x08005b30                __nesf2
 .text          0x08005b80       0x98 c:/progra~2/gnutoo~1/92019-~1/bin/../lib/gcc/arm-none-eabi/9.2.1/thumb/v6-m/nofp\libgcc.a(gesf2.o)
                0x08005b80                __gesf2
                0x08005b80                __gtsf2
 .text          0x08005c18       0x94 c:/progra~2/gnutoo~1/92019-~1/bin/../lib/gcc/arm-none-eabi/9.2.1/thumb/v6-m/nofp\libgcc.a(lesf2.o)
                0x08005c18                __ltsf2
                0x08005c18                __lesf2
 .text          0x08005cac      0x234 c:/progra~2/gnutoo~1/92019-~1/bin/../lib/gcc/arm-none-eabi/9.2.1/thumb/v6-m/nofp\libgcc.a(mulsf3.o)
                0x08005cac                __aeabi_fmul
 .text          0x08005ee0       0x78 c:/progra~2/gnutoo~1/92019-~1/bin/../lib/gcc/arm-none-eabi/9.2.1/thumb/v6-m/nofp\libgcc.a(floatunsisf.o)
                0x08005ee0                __aeabi_ui2f
 .text          0x08005f58       0x3c c:/progra~2/gnutoo~1/92019-~1/bin/../lib/gcc/arm-none-eabi/9.2.1/thumb/v6-m/nofp\libgcc.a(_clzsi2.o)
                0x08005f58                __clzsi2
 .text.atexit   0x08005f94       0x10 c:/progra~2/gnutoo~1/92019-~1/bin/../lib/gcc/arm-none-eabi/9.2.1/../../../../arm-none-eabi/lib/thumb/v6-m/nofp\libc_nano.a(lib_a-atexit.o)
                0x08005f94                atexit
 .text.__errno  0x08005fa4        0xc c:/progra~2/gnutoo~1/92019-~1/bin/../lib/gcc/arm-none-eabi/9.2.1/../../../../arm-none-eabi/lib/thumb/v6-m/nofp\libc_nano.a(lib_a-errno.o)
                0x08005fa4                __errno
 .text.memcpy   0x08005fb0       0x12 c:/progra~2/gnutoo~1/92019-~1/bin/../lib/gcc/arm-none-eabi/9.2.1/../../../../arm-none-eabi/lib/thumb/v6-m/nofp\libc_nano.a(lib_a-memcpy-stub.o)
                0x08005fb0                memcpy
 .text.memset   0x08005fc2       0x10 c:/progra~2/gnutoo~1/92019-~1/bin/../lib/gcc/arm-none-eabi/9.2.1/../../../../arm-none-eabi/lib/thumb/v6-m/nofp\libc_nano.a(lib_a-memset.o)
                0x08005fc2                memset
 .text          0x08005fd2        0xe c:/progra~2/gnutoo~1/92019-~1/bin/../lib/gcc/arm-none-eabi/9.2.1/../../../../arm-none-eabi/lib/thumb/v6-m/nofp\libc_nano.a(lib_a-strlen.o)
                0x08005fd2                strlen
 .text._vsnprintf_r
                0x08005fe0       0x56 c:/progra~2/gnutoo~1/92019-~1/bin/../lib/gcc/arm-none-eabi/9.2.1/../../../../arm-none-eabi/lib/thumb/v6-m/nofp\libc_nano.a(lib_a-vsnprintf.o)
                0x08005fe0                _vsniprintf_r
                0x08005fe0                _vsnprintf_r
 *fill*         0x08006036        0x2 
 .text.vsnprintf
                0x08006038       0x18 c:/progra~2/gnutoo~1/92019-~1/bin/../lib/gcc/arm-none-eabi/9.2.1/../../../../arm-none-eabi/lib/thumb/v6-m/nofp\libc_nano.a(lib_a-vsnprintf.o)
                0x08006038                vsniprintf
                0x08006038                vsnprintf
 .text.__register_exitproc
                0x08006050       0xcc c:/progra~2/gnutoo~1/92019-~1/bin/../lib/gcc/arm-none-eabi/9.2.1/../../../../arm-none-eabi/lib/thumb/v6-m/nofp\libc_nano.a(lib_a-__atexit.o)
                0x08006050                __register_exitproc
 .text.__retarget_lock_acquire_recursive
                0x0800611c        0x2 c:/progra~2/gnutoo~1/92019-~1/bin/../lib/gcc/arm-none-eabi/9.2.1/../../../../arm-none-eabi/lib/thumb/v6-m/nofp\libc_nano.a(lib_a-lock.o)
                0x0800611c                __retarget_lock_acquire_recursive
 .text.__retarget_lock_release
                0x0800611e        0x2 c:/progra~2/gnutoo~1/92019-~1/bin/../lib/gcc/arm-none-eabi/9.2.1/../../../../arm-none-eabi/lib/thumb/v6-m/nofp\libc_nano.a(lib_a-lock.o)
                0x0800611e                __retarget_lock_release
 .text.__retarget_lock_release_recursive
                0x08006120        0x2 c:/progra~2/gnutoo~1/92019-~1/bin/../lib/gcc/arm-none-eabi/9.2.1/../../../../arm-none-eabi/lib/thumb/v6-m/nofp\libc_nano.a(lib_a-lock.o)
                0x08006120                __retarget_lock_release_recursive
 *fill*         0x08006122        0x2 
 .text.__ssputs_r
                0x08006124       0xc4 c:/progra~2/gnutoo~1/92019-~1/bin/../lib/gcc/arm-none-eabi/9.2.1/../../../../arm-none-eabi/lib/thumb/v6-m/nofp\libc_nano.a(lib_a-nano-svfprintf.o)
                0x08006124                __ssputs_r
 .text._svfprintf_r
                0x080061e8      0x200 c:/progra~2/gnutoo~1/92019-~1/bin/../lib/gcc/arm-none-eabi/9.2.1/../../../../arm-none-eabi/lib/thumb/v6-m/nofp\libc_nano.a(lib_a-nano-svfprintf.o)
                0x080061e8                _svfiprintf_r
                0x080061e8                _svfprintf_r
 .text._printf_common
                0x080063e8       0xde c:/progra~2/gnutoo~1/92019-~1/bin/../lib/gcc/arm-none-eabi/9.2.1/../../../../arm-none-eabi/lib/thumb/v6-m/nofp\libc_nano.a(lib_a-nano-vfprintf_i.o)
                0x080063e8                _printf_common
 *fill*         0x080064c6        0x2 
 .text._printf_i
                0x080064c8      0x224 c:/progra~2/gnutoo~1/92019-~1/bin/../lib/gcc/arm-none-eabi/9.2.1/../../../../arm-none-eabi/lib/thumb/v6-m/nofp\libc_nano.a(lib_a-nano-vfprintf_i.o)
                0x080064c8                _printf_i
 .text.memchr   0x080066ec       0x16 c:/progra~2/gnutoo~1/92019-~1/bin/../lib/gcc/arm-none-eabi/9.2.1/../../../../arm-none-eabi/lib/thumb/v6-m/nofp\libc_nano.a(lib_a-memchr-stub.o)
                0x080066ec                memchr
 .text.memmove  0x08006702       0x26 c:/progra~2/gnutoo~1/92019-~1/bin/../lib/gcc/arm-none-eabi/9.2.1/../../../../arm-none-eabi/lib/thumb/v6-m/nofp\libc_nano.a(lib_a-memmove.o)
                0x08006702                memmove
 .text._free_r  0x08006728       0x94 c:/progra~2/gnutoo~1/92019-~1/bin/../lib/gcc/arm-none-eabi/9.2.1/../../../../arm-none-eabi/lib/thumb/v6-m/nofp\libc_nano.a(lib_a-nano-freer.o)
                0x08006728                _free_r
 .text._malloc_r
                0x080067bc       0xbc c:/progra~2/gnutoo~1/92019-~1/bin/../lib/gcc/arm-none-eabi/9.2.1/../../../../arm-none-eabi/lib/thumb/v6-m/nofp\libc_nano.a(lib_a-nano-mallocr.o)
                0x080067bc                _malloc_r
 .text._realloc_r
                0x08006878       0x4c c:/progra~2/gnutoo~1/92019-~1/bin/../lib/gcc/arm-none-eabi/9.2.1/../../../../arm-none-eabi/lib/thumb/v6-m/nofp\libc_nano.a(lib_a-nano-reallocr.o)
                0x08006878                _realloc_r
 .text._sbrk_r  0x080068c4       0x24 c:/progra~2/gnutoo~1/92019-~1/bin/../lib/gcc/arm-none-eabi/9.2.1/../../../../arm-none-eabi/lib/thumb/v6-m/nofp\libc_nano.a(lib_a-sbrkr.o)
                0x080068c4                _sbrk_r
 .text.__malloc_lock
                0x080068e8       0x10 c:/progra~2/gnutoo~1/92019-~1/bin/../lib/gcc/arm-none-eabi/9.2.1/../../../../arm-none-eabi/lib/thumb/v6-m/nofp\libc_nano.a(lib_a-mlock.o)
                0x080068e8                __malloc_lock
 .text.__malloc_unlock
                0x080068f8       0x10 c:/progra~2/gnutoo~1/92019-~1/bin/../lib/gcc/arm-none-eabi/9.2.1/../../../../arm-none-eabi/lib/thumb/v6-m/nofp\libc_nano.a(lib_a-mlock.o)
                0x080068f8                __malloc_unlock
 .text._malloc_usable_size_r
                0x08006908       0x10 c:/progra~2/gnutoo~1/92019-~1/bin/../lib/gcc/arm-none-eabi/9.2.1/../../../../arm-none-eabi/lib/thumb/v6-m/nofp\libc_nano.a(lib_a-nano-msizer.o)
                0x08006908                _malloc_usable_size_r
 .text          0x08006918       0x14 c:/progra~2/gnutoo~1/92019-~1/bin/../lib/gcc/arm-none-eabi/9.2.1/thumb/v6-m/nofp\libgcc.a(_thumb1_case_shi.o)
                0x08006918                __gnu_thumb1_case_shi
 *(.rodata .rodata.* .constdata .constdata.*)
 .rodata.main.str1.1
                0x0800692c       0x37 CMakeFiles/STM32F070x6.elf.dir/src/main.cpp.obj
 .rodata._ZZN3USB12HIDInterfaceI23USBHIDInterfaceCallbackE7RequestEhPDoFvN11Peripherals13USBActionDataEENS_9GetStatusEE4desc
                0x08006963        0x2 CMakeFiles/STM32F070x6.elf.dir/src/main.cpp.obj
                0x08006963                USB::HIDInterface<USBHIDInterfaceCallback>::Request(unsigned char, void (*)(Peripherals::USBActionData) noexcept, USB::GetStatus)::desc
 *fill*         0x08006965        0x1 
 .rodata._ZN3USB10USBManagerIJNS_12HIDInterfaceI23USBHIDInterfaceCallbackEEEE13configurationE
                0x08006966       0x34 CMakeFiles/STM32F070x6.elf.dir/src/main.cpp.obj
                0x08006966                USB::USBManager<USB::HIDInterface<USBHIDInterfaceCallback> >::configuration
 .rodata._ZN3USB10USBManagerIJNS_12HIDInterfaceI23USBHIDInterfaceCallbackEEEE8languageE
                0x0800699a        0x4 CMakeFiles/STM32F070x6.elf.dir/src/main.cpp.obj
                0x0800699a                USB::USBManager<USB::HIDInterface<USBHIDInterfaceCallback> >::language
 .rodata._ZN3USB10USBManagerIJNS_12HIDInterfaceI23USBHIDInterfaceCallbackEEEE19QualifierDescriptorE
                0x0800699e        0xa CMakeFiles/STM32F070x6.elf.dir/src/main.cpp.obj
                0x0800699e                USB::USBManager<USB::HIDInterface<USBHIDInterfaceCallback> >::QualifierDescriptor
 .rodata._ZN3USB10USBManagerIJNS_12HIDInterfaceI23USBHIDInterfaceCallbackEEEE16DeviceDescriptorE
                0x080069a8       0x12 CMakeFiles/STM32F070x6.elf.dir/src/main.cpp.obj
                0x080069a8                USB::USBManager<USB::HIDInterface<USBHIDInterfaceCallback> >::DeviceDescriptor
 .rodata._ZN3USB12HIDInterfaceI23USBHIDInterfaceCallbackE19HIDReportDescriptorE
                0x080069ba       0x20 CMakeFiles/STM32F070x6.elf.dir/src/main.cpp.obj
                0x080069ba                USB::HIDInterface<USBHIDInterfaceCallback>::HIDReportDescriptor
 .rodata.str1.1
                0x080069da       0x36 CMakeFiles/STM32F070x6.elf.dir/src/main.cpp.obj
 .rodata._ZN3USB2PD5USBPD15TypeCBoundariesE
                0x08006a10       0x30 CMakeFiles/STM32F070x6.elf.dir/src/main.cpp.obj
                0x08006a10                USB::PD::USBPD::TypeCBoundaries
 .rodata._ZN11Peripherals10USBGeneral2EPILj1EE6NumberE
                0x08006a40        0x4 CMakeFiles/STM32F070x6.elf.dir/src/main.cpp.obj
                0x08006a40                Peripherals::USBGeneral::EP<1u>::Number
 .rodata._ZN11Peripherals10USBGeneral2EPILj0EE6NumberE
                0x08006a44        0x4 CMakeFiles/STM32F070x6.elf.dir/src/main.cpp.obj
                0x08006a44                Peripherals::USBGeneral::EP<0u>::Number
 .rodata.dumpExceptionStack.str1.1
                0x08006a48       0x92 CMakeFiles/STM32F070x6.elf.dir/st-library/src/cortexm/exception_handlers.c.obj
 .rodata.str1.1
                0x08006ada        0xd CMakeFiles/STM32F070x6.elf.dir/st-library/src/cortexm/exception_handlers.c.obj
 *fill*         0x08006ae7        0x1 
 .rodata.tcpm_timer16_info
                0x08006ae8       0x12 ../richtek/lib/libbuild.a(pd_timer.c.obj)
                0x08006ae8                tcpm_timer16_info
 .rodata.tcpm_timer8_info
                0x08006afa       0x19 ../richtek/lib/libbuild.a(pd_timer.c.obj)
                0x08006afa                tcpm_timer8_info
 *fill*         0x08006b13        0x1 
 .rodata.pe_snk_state_actions
                0x08006b14       0x38 ../richtek/lib/libbuild.a(pd_xram.c.obj)
                0x08006b14                pe_snk_state_actions
 .rodata.reg_tbl_rt1711h_d
                0x08006b4c       0x38 ../richtek/lib/libbuild.a(rt1711_access.c.obj)
                0x08006b4c                reg_tbl_rt1711h_d
 .rodata.tcpc_state_actions
                0x08006b84       0x24 ../richtek/lib/libbuild.a(tcpc_xram.c.obj)
                0x08006b84                tcpc_state_actions
 .rodata        0x08006ba8       0x80 c:/progra~2/gnutoo~1/92019-~1/bin/../lib/gcc/arm-none-eabi/9.2.1/thumb/v6-m/nofp\libgcc.a(divsf3.o)
 .rodata        0x08006c28       0x40 c:/progra~2/gnutoo~1/92019-~1/bin/../lib/gcc/arm-none-eabi/9.2.1/thumb/v6-m/nofp\libgcc.a(mulsf3.o)
 .rodata._svfprintf_r.str1.1
                0x08006c68       0x11 c:/progra~2/gnutoo~1/92019-~1/bin/../lib/gcc/arm-none-eabi/9.2.1/../../../../arm-none-eabi/lib/thumb/v6-m/nofp\libc_nano.a(lib_a-nano-svfprintf.o)
 .rodata._printf_i.str1.1
                0x08006c79       0x22 c:/progra~2/gnutoo~1/92019-~1/bin/../lib/gcc/arm-none-eabi/9.2.1/../../../../arm-none-eabi/lib/thumb/v6-m/nofp\libc_nano.a(lib_a-nano-vfprintf_i.o)
 *(vtable)
 *(.eh_frame*)
 *(.glue_7)
 .glue_7        0x08006c9b        0x0 linker stubs
 *(.glue_7t)
 .glue_7t       0x08006c9b        0x0 linker stubs

.vfp11_veneer   0x08006c9c        0x0
 .vfp11_veneer  0x08006c9c        0x0 linker stubs

.v4_bx          0x08006c9c        0x0
 .v4_bx         0x08006c9c        0x0 linker stubs

.iplt           0x08006c9c        0x0
 .iplt          0x08006c9c        0x0 CMakeFiles/STM32F070x6.elf.dir/richtek/USBPD.cpp.obj

.rel.dyn        0x08006c9c        0x0
 .rel.iplt      0x08006c9c        0x0 CMakeFiles/STM32F070x6.elf.dir/richtek/USBPD.cpp.obj

.ARM.extab
 *(.ARM.extab* .gnu.linkonce.armextab.*)
                0x08006c9c                . = ALIGN (0x4)
                0x08006c9c                __exidx_start = .

.ARM.exidx
 *(.ARM.exidx* .gnu.linkonce.armexidx.*)
                0x08006c9c                __exidx_end = .
                0x08006c9c                . = ALIGN (0x4)
                0x08006c9c                _etext = .
                0x08006c9c                __etext = .

.data_CCMRAM    0x00000000        0x0 load address 0x08006c9c
 FILL mask 0xff
 *(.data.CCMRAM .data.CCMRAM.*)
                0x00000000                . = ALIGN (0x4)
                0x08006c9c                _sidata = LOADADDR (.data)

.ConfigData     0x0801f800        0x0
 *(.ConfigData)
                [!provide]                PROVIDE (ConfigAddress = ABSOLUTE (.))

.data           0x20000000      0x148 load address 0x08006c9c
 FILL mask 0xff
                0x20000000                _sdata = .
                0x20000000                __data_start__ = .
 *(.data_begin .data_begin.*)
 *(.data .data.*)
 .data.pd_manu_info
                0x20000000       0x1a CMakeFiles/STM32F070x6.elf.dir/richtek/src/pd_user_xram.c.obj
                0x20000000                pd_manu_info
 .data.slave_base_addr
                0x2000001a        0x1 CMakeFiles/STM32F070x6.elf.dir/richtek/src/pd_user_xram.c.obj
                0x2000001a                slave_base_addr
 .data.snk_cap_cnt
                0x2000001b        0x1 CMakeFiles/STM32F070x6.elf.dir/richtek/src/pd_user_xram.c.obj
                0x2000001b                snk_cap_cnt
 .data.snk_default_caps_tbl_le
                0x2000001c       0x1c CMakeFiles/STM32F070x6.elf.dir/richtek/src/pd_user_xram.c.obj
                0x2000001c                snk_default_caps_tbl_le
 .data._ZN3USB10USBManagerIJNS_12HIDInterfaceI23USBHIDInterfaceCallbackEEEE23ConfigurationDescriptorE
                0x20000038       0x22 CMakeFiles/STM32F070x6.elf.dir/src/main.cpp.obj
                0x20000038                USB::USBManager<USB::HIDInterface<USBHIDInterfaceCallback> >::ConfigurationDescriptor
 .data._ZN11Peripherals13USBModuleBaseIN3USB13USB_LL_KernalEN2IO3PinILNS3_4PortE0ELm11EEENS4_ILS5_0ELm10EEEE11m_SavedDataE
                0x2000005a        0x1 CMakeFiles/STM32F070x6.elf.dir/src/main.cpp.obj
                0x2000005a                Peripherals::USBModuleBase<USB::USB_LL_Kernal, IO::Pin<(IO::Port)0, 11ul>, IO::Pin<(IO::Port)0, 10ul> >::m_SavedData
 .data.AHBPrescTable
                0x2000005b       0x10 CMakeFiles/STM32F070x6.elf.dir/st-library/src/cmsis/system_stm32f0xx.c.obj
                0x2000005b                AHBPrescTable
 *fill*         0x2000006b        0x1 ff
 .data.SystemCoreClock
                0x2000006c        0x4 CMakeFiles/STM32F070x6.elf.dir/st-library/src/cmsis/system_stm32f0xx.c.obj
                0x2000006c                SystemCoreClock
 .data.argv.4354
                0x20000070        0x8 CMakeFiles/STM32F070x6.elf.dir/st-library/src/newlib/_syscalls.c.obj
 .data.pe_ams30_state_actions
                0x20000078       0x18 ../richtek/lib/libbuild.a(pd_xram.c.obj)
                0x20000078                pe_ams30_state_actions
 .data.ams30_snk_send_get_xxx_funcs
                0x20000090       0x1c ../richtek/lib/libbuild.a(pd_ams30.c.obj)
                0x20000090                ams30_snk_send_get_xxx_funcs
 .data.ams30_snk_send_give_xxx_funcs
                0x200000ac       0x18 ../richtek/lib/libbuild.a(pd_ams30.c.obj)
                0x200000ac                ams30_snk_send_give_xxx_funcs
 .data.snk_check_rec_funcs
                0x200000c4       0x1c ../richtek/lib/libbuild.a(pd_ams30.c.obj)
                0x200000c4                snk_check_rec_funcs
 .data._impure_ptr
                0x200000e0        0x4 c:/progra~2/gnutoo~1/92019-~1/bin/../lib/gcc/arm-none-eabi/9.2.1/../../../../arm-none-eabi/lib/thumb/v6-m/nofp\libc_nano.a(lib_a-impure.o)
                0x200000e0                _impure_ptr
 .data.impure_data
                0x200000e4       0x60 c:/progra~2/gnutoo~1/92019-~1/bin/../lib/gcc/arm-none-eabi/9.2.1/../../../../arm-none-eabi/lib/thumb/v6-m/nofp\libc_nano.a(lib_a-impure.o)
 .data.__atexit_recursive_mutex
                0x20000144        0x4 c:/progra~2/gnutoo~1/92019-~1/bin/../lib/gcc/arm-none-eabi/9.2.1/../../../../arm-none-eabi/lib/thumb/v6-m/nofp\libc_nano.a(lib_a-__call_atexit.o)
                0x20000144                __atexit_recursive_mutex
 *(.data_end .data_end.*)
                0x20000148                . = ALIGN (0x4)
                0x20000148                _edata = .
                0x20000148                __data_end__ = .

.igot.plt       0x20000148        0x0 load address 0x08006de4
 .igot.plt      0x20000148        0x0 CMakeFiles/STM32F070x6.elf.dir/richtek/USBPD.cpp.obj

.bss_CCMRAM     0x00000000        0x0
 *(.bss.CCMRAM .bss.CCMRAM.*)

.bss            0x20000148      0xbf4
                0x20000148                __bss_start__ = .
                0x20000148                _sbss = .
 *(.bss_begin .bss_begin.*)
 *(.bss .bss.*)
 .bss._ZN11Peripherals13SysTickCommon7m_CountE
                0x20000148        0x8 CMakeFiles/STM32F070x6.elf.dir/richtek/USBPD.cpp.obj
                0x20000148                Peripherals::SysTickCommon::m_Count
 .bss.StringMonitor
                0x20000150       0x84 CMakeFiles/STM32F070x6.elf.dir/richtek/USBPD.cpp.obj
 .bss.TypeCMode
                0x200001d4        0x1 CMakeFiles/STM32F070x6.elf.dir/richtek/USBPD.cpp.obj
                0x200001d4                TypeCMode
 *fill*         0x200001d5        0x3 
 .bss._ZGVZN3USB2PD5StartEvE6usb_pd
                0x200001d8        0x4 CMakeFiles/STM32F070x6.elf.dir/richtek/USBPD.cpp.obj
 .bss._ZL10LogMonitor
                0x200001dc      0x104 CMakeFiles/STM32F070x6.elf.dir/richtek/USBPD.cpp.obj
 .bss._ZN7General13EventDispatchISt17integral_constantIN6System15InterruptSourceELS3_n1EELj2EE8g_BufferE
                0x200002e0        0xc CMakeFiles/STM32F070x6.elf.dir/src/Interrupt.cpp.obj
                0x200002e0                General::EventDispatch<std::integral_constant<System::InterruptSource, (System::InterruptSource)-1>, 2u>::g_Buffer
 .bss._ZN7General13EventDispatchISt17integral_constantIN6System15InterruptSourceELS3_n2EELj2EE8g_BufferE
                0x200002ec        0xc CMakeFiles/STM32F070x6.elf.dir/src/Interrupt.cpp.obj
                0x200002ec                General::EventDispatch<std::integral_constant<System::InterruptSource, (System::InterruptSource)-2>, 2u>::g_Buffer
 .bss._ZN7General13EventDispatchISt17integral_constantIN6System15InterruptSourceELS3_11EELj2EE8g_BufferE
                0x200002f8        0xc CMakeFiles/STM32F070x6.elf.dir/src/Interrupt.cpp.obj
                0x200002f8                General::EventDispatch<std::integral_constant<System::InterruptSource, (System::InterruptSource)11>, 2u>::g_Buffer
 .bss._ZN7General13EventDispatchISt17integral_constantIN6System15InterruptSourceELS3_31EELj2EE8g_BufferE
                0x20000304        0xc CMakeFiles/STM32F070x6.elf.dir/src/Interrupt.cpp.obj
                0x20000304                General::EventDispatch<std::integral_constant<System::InterruptSource, (System::InterruptSource)31>, 2u>::g_Buffer
 .bss._ZN7General13EventDispatchISt17integral_constantIN6System15InterruptSourceELS3_4EELj2EE8g_BufferE
                0x20000310        0xc CMakeFiles/STM32F070x6.elf.dir/src/Interrupt.cpp.obj
                0x20000310                General::EventDispatch<std::integral_constant<System::InterruptSource, (System::InterruptSource)4>, 2u>::g_Buffer
 .bss._ZN7General13EventDispatchISt17integral_constantIN6System15InterruptSourceELS3_28EELj2EE8g_BufferE
                0x2000031c        0xc CMakeFiles/STM32F070x6.elf.dir/src/Interrupt.cpp.obj
                0x2000031c                General::EventDispatch<std::integral_constant<System::InterruptSource, (System::InterruptSource)28>, 2u>::g_Buffer
 .bss._ZN7General13EventDispatchISt17integral_constantIN6System15InterruptSourceELS3_27EELj2EE8g_BufferE
                0x20000328        0xc CMakeFiles/STM32F070x6.elf.dir/src/Interrupt.cpp.obj
                0x20000328                General::EventDispatch<std::integral_constant<System::InterruptSource, (System::InterruptSource)27>, 2u>::g_Buffer
 .bss._ZN7General13EventDispatchISt17integral_constantIN6System15InterruptSourceELS3_25EELj2EE8g_BufferE
                0x20000334        0xc CMakeFiles/STM32F070x6.elf.dir/src/Interrupt.cpp.obj
                0x20000334                General::EventDispatch<std::integral_constant<System::InterruptSource, (System::InterruptSource)25>, 2u>::g_Buffer
 .bss._ZN7General13EventDispatchISt17integral_constantIN6System15InterruptSourceELS3_23EELj2EE8g_BufferE
                0x20000340        0xc CMakeFiles/STM32F070x6.elf.dir/src/Interrupt.cpp.obj
                0x20000340                General::EventDispatch<std::integral_constant<System::InterruptSource, (System::InterruptSource)23>, 2u>::g_Buffer
 .bss._ZN7General13EventDispatchISt17integral_constantIN6System15InterruptSourceELS3_22EELj2EE8g_BufferE
                0x2000034c        0xc CMakeFiles/STM32F070x6.elf.dir/src/Interrupt.cpp.obj
                0x2000034c                General::EventDispatch<std::integral_constant<System::InterruptSource, (System::InterruptSource)22>, 2u>::g_Buffer
 .bss._ZN7General13EventDispatchISt17integral_constantIN6System15InterruptSourceELS3_21EELj2EE8g_BufferE
                0x20000358        0xc CMakeFiles/STM32F070x6.elf.dir/src/Interrupt.cpp.obj
                0x20000358                General::EventDispatch<std::integral_constant<System::InterruptSource, (System::InterruptSource)21>, 2u>::g_Buffer
 .bss._ZN7General13EventDispatchISt17integral_constantIN6System15InterruptSourceELS3_12EELj2EE8g_BufferE
                0x20000364        0xc CMakeFiles/STM32F070x6.elf.dir/src/Interrupt.cpp.obj
                0x20000364                General::EventDispatch<std::integral_constant<System::InterruptSource, (System::InterruptSource)12>, 2u>::g_Buffer
 .bss._ZN7General13EventDispatchISt17integral_constantIN6System15InterruptSourceELS3_19EELj2EE8g_BufferE
                0x20000370        0xc CMakeFiles/STM32F070x6.elf.dir/src/Interrupt.cpp.obj
                0x20000370                General::EventDispatch<std::integral_constant<System::InterruptSource, (System::InterruptSource)19>, 2u>::g_Buffer
 .bss._ZN7General13EventDispatchISt17integral_constantIN6System15InterruptSourceELS3_16EELj2EE8g_BufferE
                0x2000037c        0xc CMakeFiles/STM32F070x6.elf.dir/src/Interrupt.cpp.obj
                0x2000037c                General::EventDispatch<std::integral_constant<System::InterruptSource, (System::InterruptSource)16>, 2u>::g_Buffer
 .bss._ZN7General13EventDispatchISt17integral_constantIN6System15InterruptSourceELS3_14EELj2EE8g_BufferE
                0x20000388        0xc CMakeFiles/STM32F070x6.elf.dir/src/Interrupt.cpp.obj
                0x20000388                General::EventDispatch<std::integral_constant<System::InterruptSource, (System::InterruptSource)14>, 2u>::g_Buffer
 .bss._ZN7General13EventDispatchISt17integral_constantIN6System15InterruptSourceELS3_13EELj2EE8g_BufferE
                0x20000394        0xc CMakeFiles/STM32F070x6.elf.dir/src/Interrupt.cpp.obj
                0x20000394                General::EventDispatch<std::integral_constant<System::InterruptSource, (System::InterruptSource)13>, 2u>::g_Buffer
 .bss._ZN7General13EventDispatchISt17integral_constantIN6System15InterruptSourceELS3_10EELj2EE8g_BufferE
                0x200003a0        0xc CMakeFiles/STM32F070x6.elf.dir/src/Interrupt.cpp.obj
                0x200003a0                General::EventDispatch<std::integral_constant<System::InterruptSource, (System::InterruptSource)10>, 2u>::g_Buffer
 .bss._ZN7General13EventDispatchISt17integral_constantIN6System15InterruptSourceELS3_9EELj2EE8g_BufferE
                0x200003ac        0xc CMakeFiles/STM32F070x6.elf.dir/src/Interrupt.cpp.obj
                0x200003ac                General::EventDispatch<std::integral_constant<System::InterruptSource, (System::InterruptSource)9>, 2u>::g_Buffer
 .bss._ZN7General13EventDispatchISt17integral_constantIN6System15InterruptSourceELS3_7EELj2EE8g_BufferE
                0x200003b8        0xc CMakeFiles/STM32F070x6.elf.dir/src/Interrupt.cpp.obj
                0x200003b8                General::EventDispatch<std::integral_constant<System::InterruptSource, (System::InterruptSource)7>, 2u>::g_Buffer
 .bss._ZN7General13EventDispatchISt17integral_constantIN6System15InterruptSourceELS3_6EELj2EE8g_BufferE
                0x200003c4        0xc CMakeFiles/STM32F070x6.elf.dir/src/Interrupt.cpp.obj
                0x200003c4                General::EventDispatch<std::integral_constant<System::InterruptSource, (System::InterruptSource)6>, 2u>::g_Buffer
 .bss._ZN7General13EventDispatchISt17integral_constantIN6System15InterruptSourceELS3_5EELj2EE8g_BufferE
                0x200003d0        0xc CMakeFiles/STM32F070x6.elf.dir/src/Interrupt.cpp.obj
                0x200003d0                General::EventDispatch<std::integral_constant<System::InterruptSource, (System::InterruptSource)5>, 2u>::g_Buffer
 .bss._ZN7General13EventDispatchISt17integral_constantIN6System15InterruptSourceELS3_3EELj2EE8g_BufferE
                0x200003dc        0xc CMakeFiles/STM32F070x6.elf.dir/src/Interrupt.cpp.obj
                0x200003dc                General::EventDispatch<std::integral_constant<System::InterruptSource, (System::InterruptSource)3>, 2u>::g_Buffer
 .bss._ZN7General13EventDispatchISt17integral_constantIN6System15InterruptSourceELS3_2EELj2EE8g_BufferE
                0x200003e8        0xc CMakeFiles/STM32F070x6.elf.dir/src/Interrupt.cpp.obj
                0x200003e8                General::EventDispatch<std::integral_constant<System::InterruptSource, (System::InterruptSource)2>, 2u>::g_Buffer
 .bss._ZN7General13EventDispatchISt17integral_constantIN6System15InterruptSourceELS3_0EELj2EE8g_BufferE
                0x200003f4        0xc CMakeFiles/STM32F070x6.elf.dir/src/Interrupt.cpp.obj
                0x200003f4                General::EventDispatch<std::integral_constant<System::InterruptSource, (System::InterruptSource)0>, 2u>::g_Buffer
 .bss.StringMonitor
                0x20000400       0x84 CMakeFiles/STM32F070x6.elf.dir/src/Interrupt.cpp.obj
 .bss._ZL10LogMonitor
                0x20000484      0x104 CMakeFiles/STM32F070x6.elf.dir/src/Interrupt.cpp.obj
 .bss._ZGVZN11Peripherals14USARTDMAModuleIN6System11USARTKernalEPFvN10Containers8DataViewIhLb1EEEEE16SetupDMATransmitEvE3dma
                0x20000588        0x4 CMakeFiles/STM32F070x6.elf.dir/src/main.cpp.obj
                0x20000588                guard variable for Peripherals::USARTDMAModule<System::USARTKernal, void (*)(Containers::DataView<unsigned char, true>)>::SetupDMATransmit()::dma
 .bss._ZN7General19StaticLambdaWrapperIZN11Peripherals14USARTDMAModuleIN6System11USARTKernalEPFvN10Containers8DataViewIhLb1EEEEE16SetupDMATransmitEvEUlNS1_16DMAInterruptFlagEE_vE9m_DataPtrE
                0x2000058c        0x4 CMakeFiles/STM32F070x6.elf.dir/src/main.cpp.obj
                0x2000058c                General::StaticLambdaWrapper<Peripherals::USARTDMAModule<System::USARTKernal, void (*)(Containers::DataView<unsigned char, true>)>::SetupDMATransmit()::{lambda(Peripherals::DMAInterruptFlag)#1}, void>::m_DataPtr
 .bss._ZN7General19StaticLambdaWrapperIZN11Peripherals14USARTDMAModuleIN6System11USARTKernalEPFvN10Containers8DataViewIhLb1EEEEE16SetupDMATransmitEvEUlNS1_16DMAInterruptFlagEE_vE6m_DataE
                0x20000590        0x1 CMakeFiles/STM32F070x6.elf.dir/src/main.cpp.obj
                0x20000590                General::StaticLambdaWrapper<Peripherals::USARTDMAModule<System::USARTKernal, void (*)(Containers::DataView<unsigned char, true>)>::SetupDMATransmit()::{lambda(Peripherals::DMAInterruptFlag)#1}, void>::m_Data
 *fill*         0x20000591        0x3 
 .bss._ZN7General7RunOnceIN11Peripherals14DMAPowerKernalILj4ELj2EEEE5CountE
                0x20000594        0x4 CMakeFiles/STM32F070x6.elf.dir/src/main.cpp.obj
                0x20000594                General::RunOnce<Peripherals::DMAPowerKernal<4u, 2u> >::Count
 .bss._ZGVZN11Peripherals14USARTDMAModuleIN6System11USARTKernalEPFvN10Containers8DataViewIhLb1EEEEE15SetupDMAReceiveEvE3dma
                0x20000598        0x4 CMakeFiles/STM32F070x6.elf.dir/src/main.cpp.obj
                0x20000598                guard variable for Peripherals::USARTDMAModule<System::USARTKernal, void (*)(Containers::DataView<unsigned char, true>)>::SetupDMAReceive()::dma
 .bss._ZN7General19StaticLambdaWrapperIZN11Peripherals14USARTDMAModuleIN6System11USARTKernalEPFvN10Containers8DataViewIhLb1EEEEE15SetupDMAReceiveEvEUlNS1_16DMAInterruptFlagEE_vE9m_DataPtrE
                0x2000059c        0x4 CMakeFiles/STM32F070x6.elf.dir/src/main.cpp.obj
                0x2000059c                General::StaticLambdaWrapper<Peripherals::USARTDMAModule<System::USARTKernal, void (*)(Containers::DataView<unsigned char, true>)>::SetupDMAReceive()::{lambda(Peripherals::DMAInterruptFlag)#1}, void>::m_DataPtr
 .bss._ZN7General19StaticLambdaWrapperIZN11Peripherals14USARTDMAModuleIN6System11USARTKernalEPFvN10Containers8DataViewIhLb1EEEEE15SetupDMAReceiveEvEUlNS1_16DMAInterruptFlagEE_vE6m_DataE
                0x200005a0        0x1 CMakeFiles/STM32F070x6.elf.dir/src/main.cpp.obj
                0x200005a0                General::StaticLambdaWrapper<Peripherals::USARTDMAModule<System::USARTKernal, void (*)(Containers::DataView<unsigned char, true>)>::SetupDMAReceive()::{lambda(Peripherals::DMAInterruptFlag)#1}, void>::m_Data
 *fill*         0x200005a1        0x3 
 .bss._ZN7General7RunOnceIN11Peripherals14DMAPowerKernalILj5ELj2EEEE5CountE
                0x200005a4        0x4 CMakeFiles/STM32F070x6.elf.dir/src/main.cpp.obj
                0x200005a4                General::RunOnce<Peripherals::DMAPowerKernal<5u, 2u> >::Count
 .bss._ZGVZN11Peripherals9ADCModuleIJN2IO3PinILNS1_4PortE0ELm1EEEEEC4IZN6System7GetVbusEffEUlvE_EEOT_E7adc_dma
                0x200005a8        0x4 CMakeFiles/STM32F070x6.elf.dir/src/main.cpp.obj
                0x200005a8                guard variable for Peripherals::ADCModule<IO::Pin<(IO::Port)0, 1ul> >::ADCModule<System::GetVbus(float, float)::{lambda()#1}>(System::GetVbus(float, float)::{lambda()#1}&&)::adc_dma
 .bss._ZN7General19StaticLambdaWrapperIZN11Peripherals9ADCModuleIJN2IO3PinILNS3_4PortE0ELm1EEEEEC4IZN6System7GetVbusEffEUlvE_EEOT_EUlNS1_16DMAInterruptFlagEE_vE9m_DataPtrE
                0x200005ac        0x4 CMakeFiles/STM32F070x6.elf.dir/src/main.cpp.obj
                0x200005ac                General::StaticLambdaWrapper<Peripherals::ADCModule<IO::Pin<(IO::Port)0, 1ul> >::ADCModule<System::GetVbus(float, float)::{lambda()#1}>(System::GetVbus(float, float)::{lambda()#1}&&)::{lambda(Peripherals::DMAInterruptFlag)#1}, void>::m_DataPtr
 .bss._ZN7General19StaticLambdaWrapperIZN11Peripherals9ADCModuleIJN2IO3PinILNS3_4PortE0ELm1EEEEEC4IZN6System7GetVbusEffEUlvE_EEOT_EUlNS1_16DMAInterruptFlagEE_vE6m_DataE
                0x200005b0        0x1 CMakeFiles/STM32F070x6.elf.dir/src/main.cpp.obj
                0x200005b0                General::StaticLambdaWrapper<Peripherals::ADCModule<IO::Pin<(IO::Port)0, 1ul> >::ADCModule<System::GetVbus(float, float)::{lambda()#1}>(System::GetVbus(float, float)::{lambda()#1}&&)::{lambda(Peripherals::DMAInterruptFlag)#1}, void>::m_Data
 *fill*         0x200005b1        0x3 
 .bss._ZN7General7RunOnceIN11Peripherals14DMAPowerKernalILj1ELj2EEEE5CountE
                0x200005b4        0x4 CMakeFiles/STM32F070x6.elf.dir/src/main.cpp.obj
                0x200005b4                General::RunOnce<Peripherals::DMAPowerKernal<1u, 2u> >::Count
 .bss._ZN3USB10USBManagerIJNS_12HIDInterfaceI23USBHIDInterfaceCallbackEEEE7PendingE
                0x200005b8        0x4 CMakeFiles/STM32F070x6.elf.dir/src/main.cpp.obj
                0x200005b8                USB::USBManager<USB::HIDInterface<USBHIDInterfaceCallback> >::Pending
 .bss._ZN7General19StaticLambdaWrapperIN3USB16SetupOutCallbackINS1_10USBManagerIJNS1_12HIDInterfaceI23USBHIDInterfaceCallbackEEEEEEEN11Peripherals9USBModuleINS9_13USBModuleBaseINS1_13USB_LL_KernalEN2IO3PinILNSD_4PortE0ELm11EEENSE_ILSF_0ELm10EEEEENS1_13EventCallbackIS7_EES8_EEE9m_DataPtrE
                0x200005bc        0x4 CMakeFiles/STM32F070x6.elf.dir/src/main.cpp.obj
                0x200005bc                General::StaticLambdaWrapper<USB::SetupOutCallback<USB::USBManager<USB::HIDInterface<USBHIDInterfaceCallback> > >, Peripherals::USBModule<Peripherals::USBModuleBase<USB::USB_LL_Kernal, IO::Pin<(IO::Port)0, 11ul>, IO::Pin<(IO::Port)0, 10ul> >, USB::EventCallback<USB::USBManager<USB::HIDInterface<USBHIDInterfaceCallback> > >, USB::SetupOutCallback<USB::USBManager<USB::HIDInterface<USBHIDInterfaceCallback> > > > >::m_DataPtr
 .bss._ZN7General19StaticLambdaWrapperIN3USB16SetupOutCallbackINS1_10USBManagerIJNS1_12HIDInterfaceI23USBHIDInterfaceCallbackEEEEEEEN11Peripherals9USBModuleINS9_13USBModuleBaseINS1_13USB_LL_KernalEN2IO3PinILNSD_4PortE0ELm11EEENSE_ILSF_0ELm10EEEEENS1_13EventCallbackIS7_EES8_EEE6m_DataE
                0x200005c0        0x1 CMakeFiles/STM32F070x6.elf.dir/src/main.cpp.obj
                0x200005c0                General::StaticLambdaWrapper<USB::SetupOutCallback<USB::USBManager<USB::HIDInterface<USBHIDInterfaceCallback> > >, Peripherals::USBModule<Peripherals::USBModuleBase<USB::USB_LL_Kernal, IO::Pin<(IO::Port)0, 11ul>, IO::Pin<(IO::Port)0, 10ul> >, USB::EventCallback<USB::USBManager<USB::HIDInterface<USBHIDInterfaceCallback> > >, USB::SetupOutCallback<USB::USBManager<USB::HIDInterface<USBHIDInterfaceCallback> > > > >::m_Data
 *fill*         0x200005c1        0x3 
 .bss._ZN7General19StaticLambdaWrapperIN3USB13EventCallbackINS1_10USBManagerIJNS1_12HIDInterfaceI23USBHIDInterfaceCallbackEEEEEEEN11Peripherals9USBModuleINS9_13USBModuleBaseINS1_13USB_LL_KernalEN2IO3PinILNSD_4PortE0ELm11EEENSE_ILSF_0ELm10EEEEES8_NS1_16SetupOutCallbackIS7_EEEEE9m_DataPtrE
                0x200005c4        0x4 CMakeFiles/STM32F070x6.elf.dir/src/main.cpp.obj
                0x200005c4                General::StaticLambdaWrapper<USB::EventCallback<USB::USBManager<USB::HIDInterface<USBHIDInterfaceCallback> > >, Peripherals::USBModule<Peripherals::USBModuleBase<USB::USB_LL_Kernal, IO::Pin<(IO::Port)0, 11ul>, IO::Pin<(IO::Port)0, 10ul> >, USB::EventCallback<USB::USBManager<USB::HIDInterface<USBHIDInterfaceCallback> > >, USB::SetupOutCallback<USB::USBManager<USB::HIDInterface<USBHIDInterfaceCallback> > > > >::m_DataPtr
 .bss._ZN7General19StaticLambdaWrapperIN3USB13EventCallbackINS1_10USBManagerIJNS1_12HIDInterfaceI23USBHIDInterfaceCallbackEEEEEEEN11Peripherals9USBModuleINS9_13USBModuleBaseINS1_13USB_LL_KernalEN2IO3PinILNSD_4PortE0ELm11EEENSE_ILSF_0ELm10EEEEES8_NS1_16SetupOutCallbackIS7_EEEEE6m_DataE
                0x200005c8        0x1 CMakeFiles/STM32F070x6.elf.dir/src/main.cpp.obj
                0x200005c8                General::StaticLambdaWrapper<USB::EventCallback<USB::USBManager<USB::HIDInterface<USBHIDInterfaceCallback> > >, Peripherals::USBModule<Peripherals::USBModuleBase<USB::USB_LL_Kernal, IO::Pin<(IO::Port)0, 11ul>, IO::Pin<(IO::Port)0, 10ul> >, USB::EventCallback<USB::USBManager<USB::HIDInterface<USBHIDInterfaceCallback> > >, USB::SetupOutCallback<USB::USBManager<USB::HIDInterface<USBHIDInterfaceCallback> > > > >::m_Data
 *fill*         0x200005c9        0x3 
 .bss._ZN3USB12HIDInterfaceI23USBHIDInterfaceCallbackE9TXDataPtrE
                0x200005cc        0x4 CMakeFiles/STM32F070x6.elf.dir/src/main.cpp.obj
                0x200005cc                USB::HIDInterface<USBHIDInterfaceCallback>::TXDataPtr
 .bss._ZN3USB12HIDInterfaceI23USBHIDInterfaceCallbackE6TXDataE
                0x200005d0        0x8 CMakeFiles/STM32F070x6.elf.dir/src/main.cpp.obj
                0x200005d0                USB::HIDInterface<USBHIDInterfaceCallback>::TXData
 .bss._ZN7General19StaticLambdaWrapperI23USBHIDInterfaceCallbackvE9m_DataPtrE
                0x200005d8        0x4 CMakeFiles/STM32F070x6.elf.dir/src/main.cpp.obj
                0x200005d8                General::StaticLambdaWrapper<USBHIDInterfaceCallback, void>::m_DataPtr
 .bss._ZN7General19StaticLambdaWrapperI23USBHIDInterfaceCallbackvE6m_DataE
                0x200005dc        0x1 CMakeFiles/STM32F070x6.elf.dir/src/main.cpp.obj
                0x200005dc                General::StaticLambdaWrapper<USBHIDInterfaceCallback, void>::m_Data
 *fill*         0x200005dd        0x3 
 .bss._ZN11Peripherals14USARTDMAModuleIN6System11USARTKernalEPFvN10Containers8DataViewIhLb1EEEEE12TransmitViewE
                0x200005e0        0x8 CMakeFiles/STM32F070x6.elf.dir/src/main.cpp.obj
                0x200005e0                Peripherals::USARTDMAModule<System::USARTKernal, void (*)(Containers::DataView<unsigned char, true>)>::TransmitView
 .bss._ZN11Peripherals14USARTDMAModuleIN6System11USARTKernalEPFvN10Containers8DataViewIhLb1EEEEE14TransmitBufferE
                0x200005e8      0x200 CMakeFiles/STM32F070x6.elf.dir/src/main.cpp.obj
                0x200005e8                Peripherals::USARTDMAModule<System::USARTKernal, void (*)(Containers::DataView<unsigned char, true>)>::TransmitBuffer
 .bss._ZN11Peripherals14USARTDMAModuleIN6System11USARTKernalEPFvN10Containers8DataViewIhLb1EEEEE14ReceiveManagerE
                0x200007e8        0x8 CMakeFiles/STM32F070x6.elf.dir/src/main.cpp.obj
                0x200007e8                Peripherals::USARTDMAModule<System::USARTKernal, void (*)(Containers::DataView<unsigned char, true>)>::ReceiveManager
 .bss._ZN11Peripherals14USARTDMAModuleIN6System11USARTKernalEPFvN10Containers8DataViewIhLb1EEEEE13ReceiveBufferE
                0x200007f0      0x200 CMakeFiles/STM32F070x6.elf.dir/src/main.cpp.obj
                0x200007f0                Peripherals::USARTDMAModule<System::USARTKernal, void (*)(Containers::DataView<unsigned char, true>)>::ReceiveBuffer
 .bss._ZN7General19StaticLambdaWrapperIPFvN10Containers8DataViewIhLb1EEEEvE9m_DataPtrE
                0x200009f0        0x4 CMakeFiles/STM32F070x6.elf.dir/src/main.cpp.obj
                0x200009f0                General::StaticLambdaWrapper<void (*)(Containers::DataView<unsigned char, true>), void>::m_DataPtr
 .bss._ZN7General19StaticLambdaWrapperIPFvN10Containers8DataViewIhLb1EEEEvE6m_DataE
                0x200009f4        0x4 CMakeFiles/STM32F070x6.elf.dir/src/main.cpp.obj
                0x200009f4                General::StaticLambdaWrapper<void (*)(Containers::DataView<unsigned char, true>), void>::m_Data
 .bss._ZN7General7RunOnceIN11Peripherals12USARTGeneral16USARTPowerKernalILm2EEEE5CountE
                0x200009f8        0x4 CMakeFiles/STM32F070x6.elf.dir/src/main.cpp.obj
                0x200009f8                General::RunOnce<Peripherals::USARTGeneral::USARTPowerKernal<2ul> >::Count
 .bss._ZGVZN6System7GetVbusEffE3adc
                0x200009fc        0x4 CMakeFiles/STM32F070x6.elf.dir/src/main.cpp.obj
                0x200009fc                guard variable for System::GetVbus(float, float)::adc
 .bss._ZZN6System7GetVbusEffE3adc
                0x20000a00        0x1 CMakeFiles/STM32F070x6.elf.dir/src/main.cpp.obj
                0x20000a00                System::GetVbus(float, float)::adc
 *fill*         0x20000a01        0x1 
 .bss._ZN11Peripherals9ADCModuleIJN2IO3PinILNS1_4PortE0ELm1EEEEE8g_BufferE
                0x20000a02        0x2 CMakeFiles/STM32F070x6.elf.dir/src/main.cpp.obj
                0x20000a02                Peripherals::ADCModule<IO::Pin<(IO::Port)0, 1ul> >::g_Buffer
 .bss._ZN7General7RunOnceIN11Peripherals14ADCPowerKernalIJN2IO3PinILNS3_4PortE0ELm1EEEEEEE5CountE
                0x20000a04        0x4 CMakeFiles/STM32F070x6.elf.dir/src/main.cpp.obj
                0x20000a04                General::RunOnce<Peripherals::ADCPowerKernal<IO::Pin<(IO::Port)0, 1ul> > >::Count
 .bss._ZN7General7RunOnceIN2IO14PinPowerKernalILNS1_4PortE1EEEE5CountE
                0x20000a08        0x4 CMakeFiles/STM32F070x6.elf.dir/src/main.cpp.obj
                0x20000a08                General::RunOnce<IO::PinPowerKernal<(IO::Port)1> >::Count
 .bss._ZN7General7RunOnceIN2IO14PinPowerKernalILNS1_4PortE0EEEE5CountE
                0x20000a0c        0x4 CMakeFiles/STM32F070x6.elf.dir/src/main.cpp.obj
                0x20000a0c                General::RunOnce<IO::PinPowerKernal<(IO::Port)0> >::Count
 .bss._ZN7General7RunOnceIN11Peripherals14USBModulePowerEE5CountE
                0x20000a10        0x4 CMakeFiles/STM32F070x6.elf.dir/src/main.cpp.obj
                0x20000a10                General::RunOnce<Peripherals::USBModulePower>::Count
 .bss.StringMonitor
                0x20000a14       0x84 CMakeFiles/STM32F070x6.elf.dir/src/main.cpp.obj
 .bss._ZL10LogMonitor
                0x20000a98      0x104 CMakeFiles/STM32F070x6.elf.dir/src/main.cpp.obj
 .bss._ZN6System5hf_onE
                0x20000b9c        0x1 CMakeFiles/STM32F070x6.elf.dir/src/main.cpp.obj
                0x20000b9c                System::hf_on
 .bss._ZN6System6pwr_enE
                0x20000b9d        0x1 CMakeFiles/STM32F070x6.elf.dir/src/main.cpp.obj
                0x20000b9d                System::pwr_en
 .bss._ZN7General19StaticLambdaWrapperIZ4mainEUlyE_vE6m_DataE
                0x20000b9e        0x1 CMakeFiles/STM32F070x6.elf.dir/src/main.cpp.obj
 *fill*         0x20000b9f        0x1 
 .bss._ZN7General19StaticLambdaWrapperIZ4mainEUlyE_vE9m_DataPtrE
                0x20000ba0        0x4 CMakeFiles/STM32F070x6.elf.dir/src/main.cpp.obj
 .bss.buf.5228  0x20000ba4       0x80 CMakeFiles/STM32F070x6.elf.dir/st-library/src/diag/Trace.c.obj
 .bss.current_heap_end.3984
                0x20000c24        0x4 CMakeFiles/STM32F070x6.elf.dir/st-library/src/newlib/_sbrk.c.obj
 .bss.name.4353
                0x20000c28        0x1 CMakeFiles/STM32F070x6.elf.dir/st-library/src/newlib/_syscalls.c.obj
 .bss.Ams30_State
                0x20000c29        0x1 ../richtek/lib/libbuild.a(pd_xram.c.obj)
                0x20000c29                Ams30_State
 .bss.Lock_Flags0
                0x20000c2a        0x1 ../richtek/lib/libbuild.a(pd_xram.c.obj)
                0x20000c2a                Lock_Flags0
 .bss.Lock_Flags1
                0x20000c2b        0x1 ../richtek/lib/libbuild.a(pd_xram.c.obj)
                0x20000c2b                Lock_Flags1
 .bss.PD_State  0x20000c2c        0x1 ../richtek/lib/libbuild.a(pd_xram.c.obj)
                0x20000c2c                PD_State
 .bss.Tcpci_Alerts
                0x20000c2d        0x1 ../richtek/lib/libbuild.a(pd_xram.c.obj)
                0x20000c2d                Tcpci_Alerts
 .bss.caps_counter
                0x20000c2e        0x1 ../richtek/lib/libbuild.a(pd_xram.c.obj)
                0x20000c2e                caps_counter
 *fill*         0x20000c2f        0x1 
 .bss.dpm_contract_i_new
                0x20000c30        0x2 ../richtek/lib/libbuild.a(pd_xram.c.obj)
                0x20000c30                dpm_contract_i_new
 .bss.dpm_contract_v_new
                0x20000c32        0x2 ../richtek/lib/libbuild.a(pd_xram.c.obj)
                0x20000c32                dpm_contract_v_new
 .bss.gl_ams30_cmd
                0x20000c34        0x1 ../richtek/lib/libbuild.a(pd_xram.c.obj)
                0x20000c34                gl_ams30_cmd
 .bss.gl_msg_type
                0x20000c35        0x1 ../richtek/lib/libbuild.a(pd_xram.c.obj)
                0x20000c35                gl_msg_type
 .bss.gl_obj_byte_cnt
                0x20000c36        0x1 ../richtek/lib/libbuild.a(pd_xram.c.obj)
                0x20000c36                gl_obj_byte_cnt
 .bss.gl_uRec30CtrlMsgFlag
                0x20000c37        0x1 ../richtek/lib/libbuild.a(pd_xram.c.obj)
                0x20000c37                gl_uRec30CtrlMsgFlag
 .bss.gl_uRec30ExtMsgFlag
                0x20000c38        0x2 ../richtek/lib/libbuild.a(pd_xram.c.obj)
                0x20000c38                gl_uRec30ExtMsgFlag
 .bss.gl_uRecCtrlMsgFlag
                0x20000c3a        0x2 ../richtek/lib/libbuild.a(pd_xram.c.obj)
                0x20000c3a                gl_uRecCtrlMsgFlag
 .bss.gl_uRecDataMsgFlag
                0x20000c3c        0x2 ../richtek/lib/libbuild.a(pd_xram.c.obj)
                0x20000c3c                gl_uRecDataMsgFlag
 .bss.gl_uWait30CtrlMsgFlag
                0x20000c3e        0x1 ../richtek/lib/libbuild.a(pd_xram.c.obj)
                0x20000c3e                gl_uWait30CtrlMsgFlag
 *fill*         0x20000c3f        0x1 
 .bss.gl_uWait30ExtMsgFlag
                0x20000c40        0x2 ../richtek/lib/libbuild.a(pd_xram.c.obj)
                0x20000c40                gl_uWait30ExtMsgFlag
 .bss.gl_uWaitCtrlMsgFlag
                0x20000c42        0x2 ../richtek/lib/libbuild.a(pd_xram.c.obj)
                0x20000c42                gl_uWaitCtrlMsgFlag
 .bss.gl_uWaitDataMsgFlag
                0x20000c44        0x2 ../richtek/lib/libbuild.a(pd_xram.c.obj)
                0x20000c44                gl_uWaitDataMsgFlag
 .bss.hard_reset_counter
                0x20000c46        0x1 ../richtek/lib/libbuild.a(pd_xram.c.obj)
                0x20000c46                hard_reset_counter
 .bss.msg_id_rx
                0x20000c47        0x3 ../richtek/lib/libbuild.a(pd_xram.c.obj)
                0x20000c47                msg_id_rx
 .bss.msg_id_tx
                0x20000c4a        0x3 ../richtek/lib/libbuild.a(pd_xram.c.obj)
                0x20000c4a                msg_id_tx
 .bss.pd30_flags0
                0x20000c4d        0x1 ../richtek/lib/libbuild.a(pd_xram.c.obj)
                0x20000c4d                pd30_flags0
 .bss.pd30_flags1
                0x20000c4e        0x1 ../richtek/lib/libbuild.a(pd_xram.c.obj)
                0x20000c4e                pd30_flags1
 .bss.pd_ctrl_ex_flags
                0x20000c4f        0x1 ../richtek/lib/libbuild.a(pd_xram.c.obj)
                0x20000c4f                pd_ctrl_ex_flags
 .bss.pd_ex0_flags
                0x20000c50        0x1 ../richtek/lib/libbuild.a(pd_xram.c.obj)
                0x20000c50                pd_ex0_flags
 .bss.pd_ex1_flags
                0x20000c51        0x1 ../richtek/lib/libbuild.a(pd_xram.c.obj)
                0x20000c51                pd_ex1_flags
 .bss.pd_flags  0x20000c52        0x1 ../richtek/lib/libbuild.a(pd_xram.c.obj)
                0x20000c52                pd_flags
 .bss.rdo_buff  0x20000c53        0x4 ../richtek/lib/libbuild.a(pd_xram.c.obj)
                0x20000c53                rdo_buff
 .bss.TcpcUtilityFlag
                0x20000c57        0x1 ../richtek/lib/libbuild.a(tcpc_xram.c.obj)
                0x20000c57                TcpcUtilityFlag
 .bss.data_role
                0x20000c58        0x1 ../richtek/lib/libbuild.a(tcpc_xram.c.obj)
                0x20000c58                data_role
 .bss.gl_uCc1   0x20000c59        0x1 ../richtek/lib/libbuild.a(tcpc_xram.c.obj)
                0x20000c59                gl_uCc1
 .bss.gl_uCc2   0x20000c5a        0x1 ../richtek/lib/libbuild.a(tcpc_xram.c.obj)
                0x20000c5a                gl_uCc2
 .bss.power_role
                0x20000c5b        0x1 ../richtek/lib/libbuild.a(tcpc_xram.c.obj)
                0x20000c5b                power_role
 .bss.smp_step  0x20000c5c        0x1 ../richtek/lib/libbuild.a(tcpc_xram.c.obj)
                0x20000c5c                smp_step
 *fill*         0x20000c5d        0x1 
 .bss.smp_timestamp
                0x20000c5e        0x2 ../richtek/lib/libbuild.a(tcpc_xram.c.obj)
                0x20000c5e                smp_timestamp
 .bss.smp_voltage
                0x20000c60        0x2 ../richtek/lib/libbuild.a(tcpc_xram.c.obj)
                0x20000c60                smp_voltage
 .bss.typec_attach_state
                0x20000c62        0x1 ../richtek/lib/libbuild.a(tcpc_xram.c.obj)
                0x20000c62                typec_attach_state
 .bss.typec_flags
                0x20000c63        0x1 ../richtek/lib/libbuild.a(tcpc_xram.c.obj)
                0x20000c63                typec_flags
 .bss.var_timer_stamp
                0x20000c64        0x2 ../richtek/lib/libbuild.a(tcpc_xram.c.obj)
                0x20000c64                var_timer_stamp
 .bss.vbus_level
                0x20000c66        0x1 ../richtek/lib/libbuild.a(tcpc_xram.c.obj)
                0x20000c66                vbus_level
 *fill*         0x20000c67        0x1 
 .bss._global_atexit0
                0x20000c68       0x8c c:/progra~2/gnutoo~1/92019-~1/bin/../lib/gcc/arm-none-eabi/9.2.1/../../../../arm-none-eabi/lib/thumb/v6-m/nofp\libc_nano.a(lib_a-__atexit.o)
 .bss._global_atexit
                0x20000cf4        0x4 c:/progra~2/gnutoo~1/92019-~1/bin/../lib/gcc/arm-none-eabi/9.2.1/../../../../arm-none-eabi/lib/thumb/v6-m/nofp\libc_nano.a(lib_a-__call_atexit.o)
                0x20000cf4                _global_atexit
 .bss.__malloc_free_list
                0x20000cf8        0x4 c:/progra~2/gnutoo~1/92019-~1/bin/../lib/gcc/arm-none-eabi/9.2.1/../../../../arm-none-eabi/lib/thumb/v6-m/nofp\libc_nano.a(lib_a-nano-mallocr.o)
                0x20000cf8                __malloc_free_list
 .bss.__malloc_sbrk_start
                0x20000cfc        0x4 c:/progra~2/gnutoo~1/92019-~1/bin/../lib/gcc/arm-none-eabi/9.2.1/../../../../arm-none-eabi/lib/thumb/v6-m/nofp\libc_nano.a(lib_a-nano-mallocr.o)
                0x20000cfc                __malloc_sbrk_start
 *(COMMON)
 COMMON         0x20000d00        0x4 CMakeFiles/STM32F070x6.elf.dir/st-library/src/newlib/_syscalls.c.obj
                0x20000d00                errno
 COMMON         0x20000d04       0x2b ../richtek/lib/libbuild.a(pd_xram.c.obj)
                0x20000d04                tcpm_timer16
                0x20000d16                tcpm_timer8
 COMMON         0x20000d2f        0x3 ../richtek/lib/libbuild.a(tcpc_xram.c.obj)
                0x20000d2f                TcpcLock
                0x20000d30                pd_allow_time_consuming_task
                0x20000d31                typec_state
 COMMON         0x20000d32        0x9 c:/progra~2/gnutoo~1/92019-~1/bin/../lib/gcc/arm-none-eabi/9.2.1/../../../../arm-none-eabi/lib/thumb/v6-m/nofp\libc_nano.a(lib_a-lock.o)
                0x20000d32                __lock___atexit_recursive_mutex
                0x20000d33                __lock___arc4random_mutex
                0x20000d34                __lock___env_recursive_mutex
                0x20000d35                __lock___sinit_recursive_mutex
                0x20000d36                __lock___malloc_recursive_mutex
                0x20000d37                __lock___at_quick_exit_mutex
                0x20000d38                __lock___dd_hash_mutex
                0x20000d39                __lock___tz_mutex
                0x20000d3a                __lock___sfp_recursive_mutex
 *(.bss_end .bss_end.*)
                0x20000d3c                . = ALIGN (0x4)
 *fill*         0x20000d3b        0x1 
                0x20000d3c                __bss_end__ = .
                0x20000d3c                _ebss = .

.noinit_CCMRAM
 *(.noinit.CCMRAM .noinit.CCMRAM.*)

.noinit         0x20000d3c        0x0
                0x20000d3c                _noinit = .
 *(.noinit .noinit.*)
                0x20000d3c                . = ALIGN (0x4)
                0x20000d3c                _end_noinit = .
                [!provide]                PROVIDE (end = _end_noinit)
                [!provide]                PROVIDE (_end = _end_noinit)
                [!provide]                PROVIDE (__end = _end_noinit)
                [!provide]                PROVIDE (__end__ = _end_noinit)

._check_stack   0x20000d3c      0x100
                0x20000e3c                . = (. + _Minimum_Stack_Size)
 *fill*         0x20000d3c      0x100 

.b1text
 *(.b1text)
 *(.b1rodata)
 *(.b1rodata.*)

.eb0text
 *(.eb0text)
 *(.eb0rodata)
 *(.eb0rodata.*)

.eb1text
 *(.eb1text)
 *(.eb1rodata)
 *(.eb1rodata.*)

.eb2text
 *(.eb2text)
 *(.eb2rodata)
 *(.eb2rodata.*)

.eb3text
 *(.eb3text)
 *(.eb3rodata)
 *(.eb3rodata.*)

DISCARD
 libc.a(*)
 libm.a(*)
 libgcc.a(*)

.stab
 *(.stab)

.stabstr
 *(.stabstr)

.stab.excl
 *(.stab.excl)

.stab.exclstr
 *(.stab.exclstr)

.stab.index
 *(.stab.index)

.stab.indexstr
 *(.stab.indexstr)

.comment        0x00000000       0xee
 *(.comment)
 .comment       0x00000000       0x79 CMakeFiles/STM32F070x6.elf.dir/richtek/USBPD.cpp.obj
                                 0x7a (size before relaxing)
 .comment       0x00000079       0x7a CMakeFiles/STM32F070x6.elf.dir/richtek/src/pd_user_xram.c.obj
 .comment       0x00000079       0x7a CMakeFiles/STM32F070x6.elf.dir/src/Interrupt.cpp.obj
 .comment       0x00000079       0x7a CMakeFiles/STM32F070x6.elf.dir/src/main.cpp.obj
 .comment       0x00000079       0x7a CMakeFiles/STM32F070x6.elf.dir/st-library/src/cmsis/system_stm32f0xx.c.obj
 .comment       0x00000079       0x7a CMakeFiles/STM32F070x6.elf.dir/st-library/src/cmsis/vectors_stm32f0xx.c.obj
 .comment       0x00000079       0x7a CMakeFiles/STM32F070x6.elf.dir/st-library/src/cortexm/_initialize_hardware.c.obj
 .comment       0x00000079       0x7a CMakeFiles/STM32F070x6.elf.dir/st-library/src/cortexm/_reset_hardware.c.obj
 .comment       0x00000079       0x7a CMakeFiles/STM32F070x6.elf.dir/st-library/src/cortexm/exception_handlers.c.obj
 .comment       0x00000079       0x7a CMakeFiles/STM32F070x6.elf.dir/st-library/src/diag/Trace.c.obj
 .comment       0x00000079       0x7a CMakeFiles/STM32F070x6.elf.dir/st-library/src/diag/trace_impl.c.obj
 .comment       0x00000079       0x7a CMakeFiles/STM32F070x6.elf.dir/st-library/src/newlib/_exit.c.obj
 .comment       0x00000079       0x7a CMakeFiles/STM32F070x6.elf.dir/st-library/src/newlib/_sbrk.c.obj
 .comment       0x00000079       0x7a CMakeFiles/STM32F070x6.elf.dir/st-library/src/newlib/_startup.c.obj
 .comment       0x00000079       0x7a CMakeFiles/STM32F070x6.elf.dir/st-library/src/newlib/_syscalls.c.obj
 .comment       0x00000079       0x75 ../richtek/lib/libbuild.a(pd_main.c.obj)
                                 0x76 (size before relaxing)
 .comment       0x000000ee       0x76 ../richtek/lib/libbuild.a(pd_sub_func.c.obj)
 .comment       0x000000ee       0x76 ../richtek/lib/libbuild.a(pd_timer.c.obj)
 .comment       0x000000ee       0x76 ../richtek/lib/libbuild.a(pd_util.c.obj)
 .comment       0x000000ee       0x76 ../richtek/lib/libbuild.a(pd_xram.c.obj)
 .comment       0x000000ee       0x76 ../richtek/lib/libbuild.a(rt1711_access.c.obj)
 .comment       0x000000ee       0x76 ../richtek/lib/libbuild.a(tcpc_alert.c.obj)
 .comment       0x000000ee       0x76 ../richtek/lib/libbuild.a(tcpc_core.c.obj)
 .comment       0x000000ee       0x76 ../richtek/lib/libbuild.a(tcpc_xram.c.obj)
 .comment       0x000000ee       0x76 ../richtek/lib/libbuild.a(pd_ams30.c.obj)
 .comment       0x000000ee       0x76 ../richtek/lib/libbuild.a(pd_core.c.obj)
 .comment       0x000000ee       0x76 ../richtek/lib/libbuild.a(pd_core_power_control.c.obj)
 .comment       0x000000ee       0x76 ../richtek/lib/libbuild.a(pd_pe.c.obj)
 .comment       0x000000ee       0x76 ../richtek/lib/libbuild.a(pd_dpm.c.obj)
 .comment       0x000000ee       0x76 ../richtek/lib/libbuild.a(pd_packet.c.obj)

.ARM.attributes
                0x00000000       0x2f
 .ARM.attributes
                0x00000000       0x2b CMakeFiles/STM32F070x6.elf.dir/richtek/USBPD.cpp.obj
 .ARM.attributes
                0x0000002b       0x31 CMakeFiles/STM32F070x6.elf.dir/richtek/src/pd_user_xram.c.obj
 .ARM.attributes
                0x0000005c       0x2b CMakeFiles/STM32F070x6.elf.dir/src/Interrupt.cpp.obj
 .ARM.attributes
                0x00000087       0x2b CMakeFiles/STM32F070x6.elf.dir/src/main.cpp.obj
 .ARM.attributes
                0x000000b2       0x2b CMakeFiles/STM32F070x6.elf.dir/st-library/src/cmsis/system_stm32f0xx.c.obj
 .ARM.attributes
                0x000000dd       0x2b CMakeFiles/STM32F070x6.elf.dir/st-library/src/cmsis/vectors_stm32f0xx.c.obj
 .ARM.attributes
                0x00000108       0x2b CMakeFiles/STM32F070x6.elf.dir/st-library/src/cortexm/_initialize_hardware.c.obj
 .ARM.attributes
                0x00000133       0x2b CMakeFiles/STM32F070x6.elf.dir/st-library/src/cortexm/_reset_hardware.c.obj
 .ARM.attributes
                0x0000015e       0x2b CMakeFiles/STM32F070x6.elf.dir/st-library/src/cortexm/exception_handlers.c.obj
 .ARM.attributes
                0x00000189       0x2b CMakeFiles/STM32F070x6.elf.dir/st-library/src/diag/Trace.c.obj
 .ARM.attributes
                0x000001b4       0x2b CMakeFiles/STM32F070x6.elf.dir/st-library/src/diag/trace_impl.c.obj
 .ARM.attributes
                0x000001df       0x2b CMakeFiles/STM32F070x6.elf.dir/st-library/src/newlib/_exit.c.obj
 .ARM.attributes
                0x0000020a       0x2b CMakeFiles/STM32F070x6.elf.dir/st-library/src/newlib/_sbrk.c.obj
 .ARM.attributes
                0x00000235       0x2b CMakeFiles/STM32F070x6.elf.dir/st-library/src/newlib/_startup.c.obj
 .ARM.attributes
                0x00000260       0x2b CMakeFiles/STM32F070x6.elf.dir/st-library/src/newlib/_syscalls.c.obj
 .ARM.attributes
                0x0000028b       0x2b ../richtek/lib/libbuild.a(pd_main.c.obj)
 .ARM.attributes
                0x000002b6       0x2b ../richtek/lib/libbuild.a(pd_sub_func.c.obj)
 .ARM.attributes
                0x000002e1       0x2b ../richtek/lib/libbuild.a(pd_timer.c.obj)
 .ARM.attributes
                0x0000030c       0x2b ../richtek/lib/libbuild.a(pd_util.c.obj)
 .ARM.attributes
                0x00000337       0x31 ../richtek/lib/libbuild.a(pd_xram.c.obj)
 .ARM.attributes
                0x00000368       0x2b ../richtek/lib/libbuild.a(rt1711_access.c.obj)
 .ARM.attributes
                0x00000393       0x2b ../richtek/lib/libbuild.a(tcpc_alert.c.obj)
 .ARM.attributes
                0x000003be       0x2b ../richtek/lib/libbuild.a(tcpc_core.c.obj)
 .ARM.attributes
                0x000003e9       0x31 ../richtek/lib/libbuild.a(tcpc_xram.c.obj)
 .ARM.attributes
                0x0000041a       0x2b ../richtek/lib/libbuild.a(pd_ams30.c.obj)
 .ARM.attributes
                0x00000445       0x2b ../richtek/lib/libbuild.a(pd_core.c.obj)
 .ARM.attributes
                0x00000470       0x2b ../richtek/lib/libbuild.a(pd_core_power_control.c.obj)
 .ARM.attributes
                0x0000049b       0x2b ../richtek/lib/libbuild.a(pd_pe.c.obj)
 .ARM.attributes
                0x000004c6       0x2b ../richtek/lib/libbuild.a(pd_dpm.c.obj)
 .ARM.attributes
                0x000004f1       0x2b ../richtek/lib/libbuild.a(pd_packet.c.obj)
 .ARM.attributes
                0x0000051c       0x1e c:/progra~2/gnutoo~1/92019-~1/bin/../lib/gcc/arm-none-eabi/9.2.1/thumb/v6-m/nofp\libgcc.a(_thumb1_case_uqi.o)
 .ARM.attributes
                0x0000053a       0x1e c:/progra~2/gnutoo~1/92019-~1/bin/../lib/gcc/arm-none-eabi/9.2.1/thumb/v6-m/nofp\libgcc.a(_udivsi3.o)
 .ARM.attributes
                0x00000558       0x1e c:/progra~2/gnutoo~1/92019-~1/bin/../lib/gcc/arm-none-eabi/9.2.1/thumb/v6-m/nofp\libgcc.a(_dvmd_tls.o)
 .ARM.attributes
                0x00000576       0x1e c:/progra~2/gnutoo~1/92019-~1/bin/../lib/gcc/arm-none-eabi/9.2.1/thumb/v6-m/nofp\libgcc.a(_arm_cmpsf2.o)
 .ARM.attributes
                0x00000594       0x2c c:/progra~2/gnutoo~1/92019-~1/bin/../lib/gcc/arm-none-eabi/9.2.1/thumb/v6-m/nofp\libgcc.a(divsf3.o)
 .ARM.attributes
                0x000005c0       0x2c c:/progra~2/gnutoo~1/92019-~1/bin/../lib/gcc/arm-none-eabi/9.2.1/thumb/v6-m/nofp\libgcc.a(eqsf2.o)
 .ARM.attributes
                0x000005ec       0x2c c:/progra~2/gnutoo~1/92019-~1/bin/../lib/gcc/arm-none-eabi/9.2.1/thumb/v6-m/nofp\libgcc.a(gesf2.o)
 .ARM.attributes
                0x00000618       0x2c c:/progra~2/gnutoo~1/92019-~1/bin/../lib/gcc/arm-none-eabi/9.2.1/thumb/v6-m/nofp\libgcc.a(lesf2.o)
 .ARM.attributes
                0x00000644       0x2c c:/progra~2/gnutoo~1/92019-~1/bin/../lib/gcc/arm-none-eabi/9.2.1/thumb/v6-m/nofp\libgcc.a(mulsf3.o)
 .ARM.attributes
                0x00000670       0x2c c:/progra~2/gnutoo~1/92019-~1/bin/../lib/gcc/arm-none-eabi/9.2.1/thumb/v6-m/nofp\libgcc.a(floatunsisf.o)
 .ARM.attributes
                0x0000069c       0x1e c:/progra~2/gnutoo~1/92019-~1/bin/../lib/gcc/arm-none-eabi/9.2.1/thumb/v6-m/nofp\libgcc.a(_clzsi2.o)
 .ARM.attributes
                0x000006ba       0x2c c:/progra~2/gnutoo~1/92019-~1/bin/../lib/gcc/arm-none-eabi/9.2.1/../../../../arm-none-eabi/lib/thumb/v6-m/nofp\libc_nano.a(lib_a-atexit.o)
 .ARM.attributes
                0x000006e6       0x2c c:/progra~2/gnutoo~1/92019-~1/bin/../lib/gcc/arm-none-eabi/9.2.1/../../../../arm-none-eabi/lib/thumb/v6-m/nofp\libc_nano.a(lib_a-errno.o)
 .ARM.attributes
                0x00000712       0x2c c:/progra~2/gnutoo~1/92019-~1/bin/../lib/gcc/arm-none-eabi/9.2.1/../../../../arm-none-eabi/lib/thumb/v6-m/nofp\libc_nano.a(lib_a-impure.o)
 .ARM.attributes
                0x0000073e       0x2c c:/progra~2/gnutoo~1/92019-~1/bin/../lib/gcc/arm-none-eabi/9.2.1/../../../../arm-none-eabi/lib/thumb/v6-m/nofp\libc_nano.a(lib_a-memcpy-stub.o)
 .ARM.attributes
                0x0000076a       0x2c c:/progra~2/gnutoo~1/92019-~1/bin/../lib/gcc/arm-none-eabi/9.2.1/../../../../arm-none-eabi/lib/thumb/v6-m/nofp\libc_nano.a(lib_a-memset.o)
 .ARM.attributes
                0x00000796       0x1c c:/progra~2/gnutoo~1/92019-~1/bin/../lib/gcc/arm-none-eabi/9.2.1/../../../../arm-none-eabi/lib/thumb/v6-m/nofp\libc_nano.a(lib_a-strlen.o)
 .ARM.attributes
                0x000007b2       0x2c c:/progra~2/gnutoo~1/92019-~1/bin/../lib/gcc/arm-none-eabi/9.2.1/../../../../arm-none-eabi/lib/thumb/v6-m/nofp\libc_nano.a(lib_a-vsnprintf.o)
 .ARM.attributes
                0x000007de       0x2c c:/progra~2/gnutoo~1/92019-~1/bin/../lib/gcc/arm-none-eabi/9.2.1/../../../../arm-none-eabi/lib/thumb/v6-m/nofp\libc_nano.a(lib_a-__atexit.o)
 .ARM.attributes
                0x0000080a       0x2c c:/progra~2/gnutoo~1/92019-~1/bin/../lib/gcc/arm-none-eabi/9.2.1/../../../../arm-none-eabi/lib/thumb/v6-m/nofp\libc_nano.a(lib_a-__call_atexit.o)
 .ARM.attributes
                0x00000836       0x2c c:/progra~2/gnutoo~1/92019-~1/bin/../lib/gcc/arm-none-eabi/9.2.1/../../../../arm-none-eabi/lib/thumb/v6-m/nofp\libc_nano.a(lib_a-lock.o)
 .ARM.attributes
                0x00000862       0x2c c:/progra~2/gnutoo~1/92019-~1/bin/../lib/gcc/arm-none-eabi/9.2.1/../../../../arm-none-eabi/lib/thumb/v6-m/nofp\libc_nano.a(lib_a-nano-svfprintf.o)
 .ARM.attributes
                0x0000088e       0x2c c:/progra~2/gnutoo~1/92019-~1/bin/../lib/gcc/arm-none-eabi/9.2.1/../../../../arm-none-eabi/lib/thumb/v6-m/nofp\libc_nano.a(lib_a-nano-vfprintf_i.o)
 .ARM.attributes
                0x000008ba       0x2c c:/progra~2/gnutoo~1/92019-~1/bin/../lib/gcc/arm-none-eabi/9.2.1/../../../../arm-none-eabi/lib/thumb/v6-m/nofp\libc_nano.a(lib_a-memchr-stub.o)
 .ARM.attributes
                0x000008e6       0x2c c:/progra~2/gnutoo~1/92019-~1/bin/../lib/gcc/arm-none-eabi/9.2.1/../../../../arm-none-eabi/lib/thumb/v6-m/nofp\libc_nano.a(lib_a-memmove.o)
 .ARM.attributes
                0x00000912       0x2c c:/progra~2/gnutoo~1/92019-~1/bin/../lib/gcc/arm-none-eabi/9.2.1/../../../../arm-none-eabi/lib/thumb/v6-m/nofp\libc_nano.a(lib_a-nano-freer.o)
 .ARM.attributes
                0x0000093e       0x2c c:/progra~2/gnutoo~1/92019-~1/bin/../lib/gcc/arm-none-eabi/9.2.1/../../../../arm-none-eabi/lib/thumb/v6-m/nofp\libc_nano.a(lib_a-nano-mallocr.o)
 .ARM.attributes
                0x0000096a       0x2c c:/progra~2/gnutoo~1/92019-~1/bin/../lib/gcc/arm-none-eabi/9.2.1/../../../../arm-none-eabi/lib/thumb/v6-m/nofp\libc_nano.a(lib_a-nano-reallocr.o)
 .ARM.attributes
                0x00000996       0x2c c:/progra~2/gnutoo~1/92019-~1/bin/../lib/gcc/arm-none-eabi/9.2.1/../../../../arm-none-eabi/lib/thumb/v6-m/nofp\libc_nano.a(lib_a-sbrkr.o)
 .ARM.attributes
                0x000009c2       0x2c c:/progra~2/gnutoo~1/92019-~1/bin/../lib/gcc/arm-none-eabi/9.2.1/../../../../arm-none-eabi/lib/thumb/v6-m/nofp\libc_nano.a(lib_a-mlock.o)
 .ARM.attributes
                0x000009ee       0x2c c:/progra~2/gnutoo~1/92019-~1/bin/../lib/gcc/arm-none-eabi/9.2.1/../../../../arm-none-eabi/lib/thumb/v6-m/nofp\libc_nano.a(lib_a-nano-msizer.o)
 .ARM.attributes
                0x00000a1a       0x1e c:/progra~2/gnutoo~1/92019-~1/bin/../lib/gcc/arm-none-eabi/9.2.1/thumb/v6-m/nofp\libgcc.a(_thumb1_case_shi.o)

.debug
 *(.debug)

.line
 *(.line)

.debug_srcinfo
 *(.debug_srcinfo)

.debug_sfnames
 *(.debug_sfnames)

.debug_aranges
 *(.debug_aranges)

.debug_pubnames
 *(.debug_pubnames)

.debug_info
 *(.debug_info .gnu.linkonce.wi.*)

.debug_abbrev
 *(.debug_abbrev)

.debug_line
 *(.debug_line)

.debug_frame    0x00000000      0x560
 *(.debug_frame)
 .debug_frame   0x00000000       0x20 c:/progra~2/gnutoo~1/92019-~1/bin/../lib/gcc/arm-none-eabi/9.2.1/thumb/v6-m/nofp\libgcc.a(_udivsi3.o)
 .debug_frame   0x00000020       0x38 c:/progra~2/gnutoo~1/92019-~1/bin/../lib/gcc/arm-none-eabi/9.2.1/thumb/v6-m/nofp\libgcc.a(divsf3.o)
 .debug_frame   0x00000058       0x2c c:/progra~2/gnutoo~1/92019-~1/bin/../lib/gcc/arm-none-eabi/9.2.1/thumb/v6-m/nofp\libgcc.a(eqsf2.o)
 .debug_frame   0x00000084       0x30 c:/progra~2/gnutoo~1/92019-~1/bin/../lib/gcc/arm-none-eabi/9.2.1/thumb/v6-m/nofp\libgcc.a(gesf2.o)
 .debug_frame   0x000000b4       0x30 c:/progra~2/gnutoo~1/92019-~1/bin/../lib/gcc/arm-none-eabi/9.2.1/thumb/v6-m/nofp\libgcc.a(lesf2.o)
 .debug_frame   0x000000e4       0x3c c:/progra~2/gnutoo~1/92019-~1/bin/../lib/gcc/arm-none-eabi/9.2.1/thumb/v6-m/nofp\libgcc.a(mulsf3.o)
 .debug_frame   0x00000120       0x2c c:/progra~2/gnutoo~1/92019-~1/bin/../lib/gcc/arm-none-eabi/9.2.1/thumb/v6-m/nofp\libgcc.a(floatunsisf.o)
 .debug_frame   0x0000014c       0x28 c:/progra~2/gnutoo~1/92019-~1/bin/../lib/gcc/arm-none-eabi/9.2.1/../../../../arm-none-eabi/lib/thumb/v6-m/nofp\libc_nano.a(lib_a-atexit.o)
 .debug_frame   0x00000174       0x20 c:/progra~2/gnutoo~1/92019-~1/bin/../lib/gcc/arm-none-eabi/9.2.1/../../../../arm-none-eabi/lib/thumb/v6-m/nofp\libc_nano.a(lib_a-errno.o)
 .debug_frame   0x00000194       0x28 c:/progra~2/gnutoo~1/92019-~1/bin/../lib/gcc/arm-none-eabi/9.2.1/../../../../arm-none-eabi/lib/thumb/v6-m/nofp\libc_nano.a(lib_a-memcpy-stub.o)
 .debug_frame   0x000001bc       0x20 c:/progra~2/gnutoo~1/92019-~1/bin/../lib/gcc/arm-none-eabi/9.2.1/../../../../arm-none-eabi/lib/thumb/v6-m/nofp\libc_nano.a(lib_a-memset.o)
 .debug_frame   0x000001dc       0x48 c:/progra~2/gnutoo~1/92019-~1/bin/../lib/gcc/arm-none-eabi/9.2.1/../../../../arm-none-eabi/lib/thumb/v6-m/nofp\libc_nano.a(lib_a-vsnprintf.o)
 .debug_frame   0x00000224       0x30 c:/progra~2/gnutoo~1/92019-~1/bin/../lib/gcc/arm-none-eabi/9.2.1/../../../../arm-none-eabi/lib/thumb/v6-m/nofp\libc_nano.a(lib_a-__atexit.o)
 .debug_frame   0x00000254       0x34 c:/progra~2/gnutoo~1/92019-~1/bin/../lib/gcc/arm-none-eabi/9.2.1/../../../../arm-none-eabi/lib/thumb/v6-m/nofp\libc_nano.a(lib_a-__call_atexit.o)
 .debug_frame   0x00000288       0xb0 c:/progra~2/gnutoo~1/92019-~1/bin/../lib/gcc/arm-none-eabi/9.2.1/../../../../arm-none-eabi/lib/thumb/v6-m/nofp\libc_nano.a(lib_a-lock.o)
 .debug_frame   0x00000338       0x74 c:/progra~2/gnutoo~1/92019-~1/bin/../lib/gcc/arm-none-eabi/9.2.1/../../../../arm-none-eabi/lib/thumb/v6-m/nofp\libc_nano.a(lib_a-nano-svfprintf.o)
 .debug_frame   0x000003ac       0x54 c:/progra~2/gnutoo~1/92019-~1/bin/../lib/gcc/arm-none-eabi/9.2.1/../../../../arm-none-eabi/lib/thumb/v6-m/nofp\libc_nano.a(lib_a-nano-vfprintf_i.o)
 .debug_frame   0x00000400       0x20 c:/progra~2/gnutoo~1/92019-~1/bin/../lib/gcc/arm-none-eabi/9.2.1/../../../../arm-none-eabi/lib/thumb/v6-m/nofp\libc_nano.a(lib_a-memchr-stub.o)
 .debug_frame   0x00000420       0x28 c:/progra~2/gnutoo~1/92019-~1/bin/../lib/gcc/arm-none-eabi/9.2.1/../../../../arm-none-eabi/lib/thumb/v6-m/nofp\libc_nano.a(lib_a-memmove.o)
 .debug_frame   0x00000448       0x2c c:/progra~2/gnutoo~1/92019-~1/bin/../lib/gcc/arm-none-eabi/9.2.1/../../../../arm-none-eabi/lib/thumb/v6-m/nofp\libc_nano.a(lib_a-nano-freer.o)
 .debug_frame   0x00000474       0x30 c:/progra~2/gnutoo~1/92019-~1/bin/../lib/gcc/arm-none-eabi/9.2.1/../../../../arm-none-eabi/lib/thumb/v6-m/nofp\libc_nano.a(lib_a-nano-mallocr.o)
 .debug_frame   0x000004a4       0x30 c:/progra~2/gnutoo~1/92019-~1/bin/../lib/gcc/arm-none-eabi/9.2.1/../../../../arm-none-eabi/lib/thumb/v6-m/nofp\libc_nano.a(lib_a-nano-reallocr.o)
 .debug_frame   0x000004d4       0x2c c:/progra~2/gnutoo~1/92019-~1/bin/../lib/gcc/arm-none-eabi/9.2.1/../../../../arm-none-eabi/lib/thumb/v6-m/nofp\libc_nano.a(lib_a-sbrkr.o)
 .debug_frame   0x00000500       0x40 c:/progra~2/gnutoo~1/92019-~1/bin/../lib/gcc/arm-none-eabi/9.2.1/../../../../arm-none-eabi/lib/thumb/v6-m/nofp\libc_nano.a(lib_a-mlock.o)
 .debug_frame   0x00000540       0x20 c:/progra~2/gnutoo~1/92019-~1/bin/../lib/gcc/arm-none-eabi/9.2.1/../../../../arm-none-eabi/lib/thumb/v6-m/nofp\libc_nano.a(lib_a-nano-msizer.o)

.debug_str
 *(.debug_str)

.debug_loc
 *(.debug_loc)

.debug_macinfo
 *(.debug_macinfo)

.debug_weaknames
 *(.debug_weaknames)

.debug_funcnames
 *(.debug_funcnames)

.debug_typenames
 *(.debug_typenames)

.debug_varnames
 *(.debug_varnames)
OUTPUT(STM32F070x6.elf elf32-littlearm)
